:020000040000fa
:10000000f07f0020f1690000375d00007b5e00009a
:1000100000000000000000000000000000000000e0
:10002000000000000000000000000000017f000050
:100030000000000000000000e16b0000d97b000020
:100040003b6300003b630000a1770000a95f000054
:100050003b6300003b6300003b6300003b63000028
:100060003b6300003b630000e93200003b6300009b
:100070003b6300008d6200003b6300003b630000b7
:100080003b6300003b6300003b6300003b630000f8
:100090003b6300003b6300003b6300003b630000e8
:1000a0003b6300003b6300003b6300003b630000d8
:0c00b0003b6300003b6300003b6300006a
:020000040000fa
:1000bc00f8b5c046f8bc08bc9e467047b168000055
:1000cc00f8b5c046f8bc08bc9e467047896800006d
:020000040000fa
:0800dc00bc3d00000100000022
:020000040000fa
:1000e40043454e5452414c205625642e25642e25fa
:1000f400640d0a0053310000000000005332000078
:100104005333000053340000533500004300000013
:1001140055736167653a2053544152545f4c4541cd
:10012400524e203c432f53312e2e53353e0d0a00a0
:100134003a20436f6d6d616e64730000636f6d6d83
:10014400616e6473000000005b41737365727469cf
:100154006f6e5d20000000005359535f434d445fb0
:10016400414444475250206661696c7300000000aa
:1001740056455253494f4e3f000000003a20476510
:10018400742056657273696f6e00000053544152b7
:10019400545f4c4541524e003a20537461727420ae
:1001a4004c6561726e204d6f6465000076657269fe
:1001b400667900003a20537461727420566572693e
:1001c4006679204d6f6465005345545f414c41523c
:1001d4004d0000003a205365742053656e736f72ae
:1001e40020416c61726d000043454e5452414c5f96
:1001f40052455345540000003a205365742043652a
:100204006e7472616c2052657365740053454e536d
:100214004f525f5245534554000000003a20536545
:10022400742053656e736f72205265736574000099
:1002340054455354000000003a20537461727420f2
:1002440054657374000000000d0a5b52465f41530d
:10025400534552545d202573282e2e29203a200020
:100264004c656e6774682065786365656473206d9a
:100274006178696d756d206f6620313620627974fe
:10028400657300000d0a5b4552524f525d20000019
:100294000d0a00000d0a5b53534d5f4552524f52f5
:1002a4005d20000044454255475f4552524f525f1e
:1002b400434f44455f53595354454d5f4552524f44
:1002c400525f454550524f4d5f4e4f545f56414c1f
:1002d4004944000044454255475f4552524f525fde
:1002e400434f44455f53455449444c454d4f444561
:1002f4005f4d4953535f53534d524459000000001e
:1003040044454255475f4552524f525f434f44451f
:100314005f53455449444c454d4f44455f54494d02
:1003240045525f4c4f434b45440000004445425501
:10033400475f4552524f525f434f44455f52585fa7
:100344005354415445535441525453534d5f5449ab
:100354004d45525f4c4f434b454400004445425584
:10036400475f4552524f525f434f44455f52585f77
:100374005354415445574149543453534d535441b4
:1003840054455f47455454454c454752414d5f548d
:10039400494d454f5554000044454255475f455229
:1003a400524f525f434f44455f54585f5354415436
:1003b40045535441525453534d5f54494d45525f34
:1003c4004c4f434b4544000044454255475f45521a
:1003d400524f525f434f44455f54585f5354415406
:1003e40045574149543453534d5244595f54494d30
:1003f400454f55540000000044454255475f45525f
:10040400524f525f434f44455f504f4c4c5f5354df
:10041400415445535441525453534d5f54494d45ef
:10042400525f4c4f434b4544000000004445425545
:10043400475f4552524f525f434f44455f504f4cc4
:100444004c5f5354415445574149543453534d53cd
:10045400544154455f47455454454c454752414dda
:100464005f54494d454f55540000000044454255e2
:10047400475f4552524f525f434f44455f414e548c
:1004840054554e455f53544154455354415254536b
:10049400534d5f54494d45525f4c4f434b454400c7
:1004a40044454255475f4552524f525f434f44457e
:1004b4005f414e5454554e455f5354415445574142
:1004c40049543453534d5244595f54494d454f5543
:1004d4005400000044454255475f4552524f525f15
:1004e400434f44455f56434f43414c5f535441543b
:1004f40045535441525453534d5f54494d45525ff3
:100504004c4f434b4544000044454255475f4552d8
:10051400524f525f434f44455f56434f43414c5ff4
:100524005354415445574149543453534d524459fb
:100534005f54494d454f5554000000004445425511
:10054400475f4552524f525f434f44455f534855ae
:1005540054444f574e5452585f54494d45525f4c82
:100564004f434b454400000044454255475f4552c4
:10057400524f525f434f44455f53485554444f577d
:100584004e5452585f54494d454f55540000000095
:1005940044454255475f4552524f525f434f44458d
:1005a4005f504f4c4c494e475f54494d4552315f63
:1005b4004c4f434b4544000044454255475f455228
:1005c400524f525f434f44455f494e56414c494454
:1005d4005f4f504d5f535749544348494e470000bd
:1005e40044454255475f4552524f525f434f44453d
:1005f4005f494e56414c49445f4f504d5f4d4f4407
:10060400455f445552494e475f54554e455f414ef0
:10061400445f434845434b0044454255475f455278
:10062400524f525f434f44455f415643434c4f57eb
:100634005f445552494e475f545800004445425563
:10064400475f4552524f525f434f44455f534552b3
:10065400564943455f494e49545f4641494c5552ba
:100664004500000044454255475f4552524f525f92
:10067400434f44455f444649464f5f4f5645525f9a
:10068400554e4445525f464c4f5700004445425531
:10069400475f4552524f525f434f44455f5346496b
:1006a400464f5f4f5645525f554e4445525f464c48
:1006b4004f57000044454255475f4552524f525fe1
:1006c400434f44455f525353495f53544154455338
:1006d4005441525453534d5f54494d45525f4c4f0e
:1006e400434b45440000000044454255475f455292
:1006f400524f525f434f44455f5352435f46524308
:100704005f43414c49425f4641494c454400000027
:1007140044454255475f4552524f525f434f44450b
:100724005f474554525854454c454752414d5f53d9
:10073400534d5f4552524f5200000000444542550c
:10074400475f4552524f525f434f44455f54454db6
:10075400504d4541535f53544154455354415254b1
:1007640053534d5f54494d45525f4c4f434b4544a1
:100774000000000044454255475f4552524f525fc6
:10078400434f44455f54454d504d4541535f535489
:10079400415445574149543453534d5244595f547d
:1007a400494d454f5554000044454255475f455215
:1007b400524f525f434f44455f415643434c4f575a
:1007c4005f54494d454f555400000000444542557f
:1007d400475f4552524f525f434f44455f53554222
:1007e4004348414e5f53544154455354415254532a
:1007f400534d5f43454e544552465245515f54490b
:100804004d45525f4c4f434b4544000044454255cf
:10081400475f4552524f525f434f44455f535542e1
:100824004348414e5f5354415445535441525453e9
:10083400534d5f4c4f574552465245515f54494db5
:1008440045525f4c4f434b454400000044454255dc
:10085400475f4552524f525f434f44455f535542a1
:100864004348414e5f5354415445535441525453a9
:10087400534d5f5550504552465245515f54494d72
:1008840045525f4c4f434b4544000000444542559c
:10089400475f4552524f525f434f44455f53554261
:1008a4004348414e5f535441544553544152545369
:1008b400534d5f43454e544552465245515f54494a
:1008c4004d454f555400000044454255475f45523d
:1008d400524f525f434f44455f5355424348414e44
:1008e4005f5354415445535441525453534d5f4cf8
:1008f4004f574552465245515f54494d454f555403
:100904000000000044454255475f4552524f525f34
:10091400434f44455f5355424348414e5f5354410e
:100924005445535441525453534d5f5550504552be
:10093400465245515f54494d454f555400000000ff
:10094400305555555555560044454255475f535308
:100954004d5f4552524f525f434f44455f504c4c9c
:100964005f454e41424c450044454255475f535311
:100974004d5f4552524f525f434f44455f504c4c7c
:100984005f4c4f434b00000044454255475f53536f
:100994004d5f4552524f525f434f44455f52585f3b
:1009a4004453505f454e41424c4500004445425536
:1009b400475f53534d5f4552524f525f434f444537
:1009c4005f52585f4453505f44495341424c450081
:1009d40044454255475f53534d5f4552524f525f12
:1009e400434f44455f54585f4453505f454e414222
:1009f4004c45000044454255475f53534d5f4552b3
:100a0400524f525f434f44455f54585f4453505fc5
:100a140044495341424c450044454255475f535372
:100a24004d5f4552524f525f434f44455f52585faa
:100a3400544f5f545800000044454255475f535398
:100a44004d5f4552524f525f434f44455f54585f88
:100a5400544f5f525800000044454255475f53537a
:100a64004d5f4552524f525f434f44455f47455493
:100a74005f54454c454752414d00000044454255a2
:100a8400475f53534d5f4552524f525f434f444566
:100a94005f53454e445f54454c454752414d000019
:100aa40044454255475f53534d5f4552524f525f41
:100ab400434f44455f534855545f444f574e0000dd
:100ac40044454255475f53534d5f4552524f525f21
:100ad400434f44455f56434f5f54554e494e47007c
:100ae40044454255475f53534d5f4552524f525f01
:100af400434f44455f414e545f54554e494e470061
:100b0400556e6b6e6f776e204170706c69636174a3
:100b1400696f6e2053746174650000000d0a3e3ed7
:100b24003e200000203c3c3c0d0a0000535441543c
:100b3400455f494e4954000053544154455f574161
:100b440049545f52465f5359535f52445900000061
:100b540053544154455f49444c4500005354415457
:100b6400455f4c4541524e0053544154455f4c45fa
:100b740041524e5f52585f504152545f52455100aa
:100b840053544154455f4c4541524e5f54585f5055
:100b94004152545f5245515f52455350000000008a
:100ba40053544154455f4c4541524e5f54585f5035
:100bb4004152545f5245515f524553505f434f4d2c
:100bc400504c45544500000053544154455f4c4536
:100bd40041524e5f54585f434f4e5f5645525f53e8
:100be4005441540053544154455f4c4541524e5f67
:100bf40054585f434f4e5f5645525f535441545fc0
:100c0400434f4d504c45544500000000535441544b
:100c1400455f4c4541524e5f52585f41434b5f4dd7
:100c24005347000053544154455f4c4541524e5f75
:100c3400504153530000000053544154455f4c4508
:100c440041524e5f4641494c000000005354415408
:100c5400455f414c41524d0053544154455f414c12
:100c640041524d5f54585f41434b5f4d53475f437f
:100c74004f4d504c4554450053544154455f434fe8
:100c84004e4e454354494f4e5f564552494649439b
:100c94004154494f4e5f54585f434f4e5f5645523f
:100ca4005f5245535000000053544154455f434f35
:100cb4004e4e454354494f4e5f564552494649436b
:100cc4004154494f4e5f54585f434f4e5f5645520f
:100cd4005f524553505f434f4d504c4554450000bf
:100ce40053544154455f5550444154455f54585ff3
:100cf40041434b0053544154455f5550444154457e
:100d04005f54585f41434b5f434f4d504c455445ee
:100d14000000000053544154455f4552524f520065
:100d240025303458000000003b5b253034582c2516
:100d34003032585d000000002525253038583b2509
:100d44007325250d0a0000000d0a556e7375707029
:100d54006f7274656420636f6d6d616e640d0a005b
:100d64000d0a544553540d0a000000000d0a5b415e
:100d740050504c49434154494f4e5f41535345529f
:100d8400545d202573282e2e29203a2000000000cf
:100d9400556e6b6e6f776e2053656e736f720000c5
:100da400454d7631000000000d0a2d2d2d2d2d2de1
:100db4002d20537570706f7274656420636f6d6d50
:100dc400616e642067726f757073202d2d2d2d2d2b
:100dd4002d0000000d0a202a2a2a2000202a2a2a6f
:100de400000000000d0a2d2d2d2d2d2d2d2d2d2d26
:100df400204275696c7420696e20636f6d6d616e3d
:100e04006473202d2d2d2d2d2d2d2d2d2d00000025
:100e14000d0a556e6b6e6f776e20636f6d6d616e2c
:100e2400642067726f75702e205472792068656c27
:100e3400700d0a0008200800080000000d0a3e009a
:100e44001b5b2564430000001b5b25644400000019
:100e54000d0a202a2a2a205175697474696e672044
:100e640074686520436f6d6d616e642050726f63aa
:100e74006573736f722e20427965202a2a2a0d0a1f
:100e8400000000000d0a202a2a2a20537973746571
:100e94006d205265626f6f74202a2a2a0d0a0000a1
:100ea40020092c004661696c656420746f206372ac
:100eb400656174652074686520436f6e736f6c653b
:100ec400204150490d0a0000202a2a2a20436f6d30
:100ed4006d616e642050726f636573736f723a2034
:100ee400506c65617365207479706520696e20614a
:100ef40020636f6d6d616e642a2a2a0d0a0000005a
:100f04000a0d20546f6f206d616e792061726775d0
:100f14006d656e74732e204d6178696d756d2061f9
:100f240072677320737570706f727465643a2025ec
:100f340064210d0a00000000202a2a2a20436f6d34
:100f44006d616e642050726f636573736f723a20c3
:100f5400756e6b6e6f776e20636f6d6d616e642e50
:100f6400202a2a2a0d0a00003e000000081b5b4bc1
:100f740025731b5b25644400081b5b4b00000000c9
:100f84001b5b4b25731b5b256444000025731b5bb3
:100f940025644400202a2a2a20436f6d6d616e6403
:100fa4002050726f636573736f7220627566666535
:100fb400722065786365656465642e205265747279
:100fc400792e202a2a2a0d0a000000007265736512
:100fd400740000003a20526573657420686f73745e
:100fe40000000000710000003a20717569742063ec
:100ff4006f6d6d616e642070726f636573736f7271
:101004000000000068656c70000000003a2068650c
:101014006c7000001b5b41001b5b42001b5b4300c8
:101024001b5b44001b5b317e000000001b5b347eb5
:10103400000000005359535f434d445f5441534be8
:10104400530000004150505f5461736b7300000003
:1010540049444c4500000000546d722053766300ef
:020000040000fa
:10106400f0b59db012930b6814900b934b681191db
:1010740004938b680d930b691593cb6808931368dd
:10108400546806930794069807990022002305f0f4
:101094002cff00280dd10b9b5b073ed408230b9a31
:1010a4001a400c920d9a09920b9a1a4213d01833d3
:1010b4000ae080200006844606990a0007996144e4
:1010c4000b00069207932d23089a13700d9b013b86
:1010d400099301230c93079b06995b00c74a5b089d
:1010e40000291cd193421ad1089a129b94460c9859
:1010f400413bc3496044192b00d9c24907f08efa19
:10110400089807f093f80b9b0200009308990d9b35
:10111400149804f0c9fb1db0f0bd2b23d4e793420f
:1011240002d80cd100290ad0089a129b94460c9834
:10113400413bb5496044192be0d9b449dee70022ac
:1011440006980799002306f058fb0026b04f0028a4
:1011540000d120e100230393129807f014fac3b2dc
:101164001093049b002b00daebe1109b0a93672b8e
:1011740012d1049b002b01d10133049365230a93fc
:10118400039b04331ddb039b049a934219da662301
:101194000a93039b002b14da049b013304930a9be8
:1011a400662b0ed1039b002b03da00230026984ff5
:1011b4000393109b672b04d0039a049b94466344c7
:1011c4000493069a079b0e920f93002334003d006c
:1011d400139322000e980f992b0003f04df903f09e
:1011e4000bfa8022120694460e9b169017911893c0
:1011f4000f9b63441993189a199b00920193220040
:101204002b0007f09bf980231b06cb180022290032
:101214000e900f9320007f4b03f02ef9139b0400d4
:1012240001331393139a049b0d009342d1d10022ee
:10123400794b01f025fc0e9a0f9b04000d0005f07c
:1012440035fe002800d0d5e00e9a0f9b200029001f
:1012540006f0d3fa002806d01698179906f00afa71
:10126400c00700d4c6e00698079922002b0001f0bd
:101274005ff9002206900791664b3000390001f0b7
:10128400fffb069a079b0e900f9105f0ebfc0028dc
:1012940000d1c7e0039b013303930a9b662b00d064
:1012a400c2e0049b039d0133049300263700049b92
:1012b4000c9ceb1a1693169b9d4200d0dee0002f87
:1012c40000d11de10026089b1f190a9b3e70652b67
:1012d4002dd1159b5d1e089b5e55039bb34202da1c
:1012e4005b4203930136039b002b00d011e1159b55
:1012f400eb1a0333002b00dd0be12b236a1e002eb7
:1013040000d002330899023d8b54129b413b192ba8
:1013140001d845230a93089b59190a9b0b70ac42c8
:1013240002da380007f07af9099b023b0993032398
:101334000b9a1340022b00d0e2e6099b002b00dc41
:10134400dee6089806f072ff0c9b834200dcf1e0b5
:101354001800089b30219c46099a604407f070f8f5
:1013640000230d93cce626002f00039b0133039347
:101374000022284b3000390001f082fb04000d00ec
:1013840002000b000698079905f0affd0028ead08b
:101394000024012523e00390eae7204b039a9a42b4
:1013a40012da002c10d10698079900221c4b01f088
:1013b40067fb002206900791194b3000390001f0b9
:1013c4005ffb2c0006000f0030003900114b002297
:1013d40003f052f806000f00039b013b0393320015
:1013e400069807993b0005f080fd0028d5d1b3e6a7
:1013f4000623c2e60024002535e7c0460000f07f3e
:10140400487f00004c7f0000507f0000547f0000a4
:101414000000f03f0000244000001440d4feffff11
:10142400000050430e960f970a9d653d6b1e9d412b
:10143400039b6d421d4038e7002f0ad1002d08dac6
:101444002e23089a139901345354099b0137013b05
:101454000993321923009446302102e0089ad154aa
:1014640001336345fad1099a3419961b089a30302e
:10147400d054731e01340026099320e0119b139469
:101484001b69053ba34200d819e70e9a0f9b0698e7
:10149400079902f0f1ff03f0aff80490059106f00c
:1014a400e9f8092800dd092010230b9a13400343af
:1014b400c2d1109b672bbfd1002dbdda013680222b
:1014c4000e980f9912069446069b013d1a93079baa
:1014d40063441b931a9a1b9b00920193049a059be5
:1014e40007f02cf880231b06cb18069007930e9860
:1014f4000f990022174b02f0bfff0e900f91dae60e
:101504000b9bdb0600d4dde62e23089a1355013429
:10151400d8e603980a2103f027fb089b3031013dec
:10152400595503980a2103f0d5fa099b0390013b0e
:101534000993d8e6089b09991a5c5b181a54013878
:1015440002e7109b672b00d152e70a93062304930a
:0815540022e6c046000024401d
:020000040000fa
:10155c00f0b599b012930b68cf680a934b6816904c
:10156c000e938b680b930b69119313685468069355
:10157c000794069807990022002305f0b2fc002876
:10158c000ed10a9b5b072ed408230a9a0a991a409b
:10159c0005920b9a194213d018333b7013000ce0d0
:1015ac0080200006844606990a00079961440b00c6
:1015bc00069207932d233b700b9b5a1e0123059318
:1015cc00079b06995b005b0800290ed1af4883424c
:1015dc000bd1129b059a413bad4cae49b818192b57
:1015ec0011d921000fe02b23e5e7a848834202d84c
:1015fc0018d1002916d0129b059a413ba64ca7493d
:10160c00b818192bedd807f005f8200006f00afee3
:10161c000a9b0200009339000b9b169804f040f9ca
:10162c0019b0f0bd059b0598591c30233b54129bf7
:10163c00413b0f930f987823192800d8203b05982d
:10164c007b540230931e059009930022069807994b
:10165c00002306f0cef8002800d16de10023904c59
:10166c00089302930394182310930e9b002b00db1a
:10167c0010930026029c039d109b01331793069a2e
:10168c00079b0c920d930c980d9922002b0002f0e5
:10169c00effe02f0adff22002b001490159101f02b
:1016ac00ebf902000b000c980d9906f04bff7d4beb
:1016bc000c900d9100222000290001f0ddf90e9b09
:1016cc0004000d000136002b07da0c980d9900224e
:1016dc00002306f08ef8002804d1179b9e42d2d12d
:1016ec00109e01360022200029006f4b01f0c4f936
:1016fc0004000d0002000b000c980d9905f0f1fb95
:10170c00002800d01ee10c980d9922002b0006f049
:10171c0070f8002806d01498159905f0a7ffc0079b
:10172c0000d40fe10698079922002b0000f0fcfe74
:10173c0006900791079b069a5b005b08002a03d171
:10174c00524a934200d144e7119b059a053b1493ee
:10175c00934200d83de10025734214001600179304
:10176c0010950c95029a039b0698079902f080fe3f
:10177c0002f03eff1290139105f078ff031e00d08b
:10178c00e3e00c9a002a00d1dfe00135029a039bba
:10179c001298139901f070f902000b000698079942
:1017ac0006f0d0fe002206900791029803993d4b5b
:1017bc0001f062f90c9b179a013b029003910c9378
:1017cc00934203d0149b26009c42cbd3109b002b3e
:1017dc001ad1002d00dcfde00e9b002b00dcf9e0a3
:1017ec000a9bdb0700d5f5e02e2230213b191a703d
:1017fc002a19ba18597001339342fbd16419ed437d
:10180c00099b0134eb18099300263b191e700293b7
:10181c00119b5d1e089b7e55b34202da5b42089316
:10182c000136089b002b00d0bce0119beb1a013356
:10183c0000d1b7e02b236a1e002e00d00233bb541c
:10184c000f9a7023023d192a00d8203b79190b708e
:10185c00ac4202da029806f0ddfe03230a9a13402a
:10186c00022b11d1099b9c1e002c0ddd380006f0bb
:10187c00d9fc059b984200dba4e0f818220030212b
:10188c0006f0dafd00230b933800bfe60000f07f72
:10189c004c7f0000487f0000547f0000507f000008
:1018ac000000f03f0000b03f00002040089b029475
:1018bc00039501330893029a039b1000190000f062
:1018cc0033fe04000d0002000b000698079905f08a
:1018dc0008fb0028ead0029a039b0698079905f0aa
:1018ec0000fb002800d1bee60298039900223d4b74
:1018fc0001f0c2f80022002305f07bff00280fd076
:10190c00029803990022384b01f0b6f8002202909d
:10191c00039106980799344b01f0aef806900791a5
:10192c00029803992f4b002201f0a6f8089b029015
:10193c000391013b0893cee700232c4c08900293b3
:10194c000394b8e700240025ece6109a002a0ad18b
:10195c000c9a002a07d02e22ba55099a0134013a62
:10196c0009920122109230222e1901e03a550134cd
:10197c00b442fbd11800099a5730551b092b01dcd6
:10198c00303318000f9b192b06d820230343613bdf
:10199c00192b01d806f0fafd6b1e741c0025b855e6
:1019ac000993f3e608980a2103f0daf8013d303187
:1019bc00089879550a2103f089f8099b0890013b96
:1019cc0009932ee7099b3a5c023bfb181a54013829
:1019dc004fe7059c0a9bdb0600d415e72e233b55ed
:1019ec00013411e70000e03f000050430000f03fdd
:020000040000fa
:1019fc00f0b5de4657464e464546e0b5bbb0b34b58
:101a0c001b68002b16d1b24b1b68002b06d0b04bb9
:101a1c001c68b04b0493b04b9b46ace0af494a7882
:101a2c000131af4803f04cfc00280bd0a84b1c68cc
:101a3c00002ceed101203bb0f0bcbb46b246a9460f
:101a4c00a046f0bda74b1b78002befd106f0c4fdd0
:101a5c00012803d8a34b01221a70e7e706f0b6fd64
:101a6c00a14904f07ff8f5e7002363759f4e27002a
:101a7c001237a8465d4631680322380005f06cff2a
:101a8c00002800d1e8e10c36ae42f4d1ab4600237d
:101a9c0023826ce00d283dd00a283bd0082800d1c9
:101aac0075e17f2800d1a2e11b2800d1bfe1e169db
:101abc0020239846a0444346cb1a4f2b00ddbfe1b0
:101acc00a2698b1a914200d1b6e14a1ed84309187b
:101adc0010785070013a9142fad1e269511ce161df
:101aec0000215170a269013281492000723006f048
:101afc00f6fb7123e75433682100713128009847b5
:101b0c00a3691f70a3690133a361e26993422ed9c3
:101b1c00e3612ce020239846a044e369434556d06a
:101b2c007449336828009847e36900221a704346c9
:101b3c00a361e3612032002108a806f07dfc6768f0
:101b4c0005975122414610a806f06afd082208a903
:101b5c0010a803f01dfa039000283dd166492368b4
:101b6c001b68380098473368049928009847a46884
:101b7c00002c00d15ee726686568f368280098475a
:101b8c000028f4d033692800984707001021635ec1
:101b9c00002b00d17ee7e218907401331db2258230
:101bac00032d00d160e7022de1dde668b3689d42ac
:101bbc00ddd131682000123006f086fb002803d1fd
:101bcc00736831002000984700232382cfe74b49ec
:101bdc00336828009847cae7039b002b05dc48496b
:101bec0023681b6805989847bde7cc23e35822006f
:101bfc00cc325768bb4236d079682200cc32516067
:101c0c000b60cc23e35852685a60380008305122dc
:101c1c00414606f005fdcc23e358002b2ad03b604f
:101c2c00cc232200cc3252687a601760e25857609d
:101c3c00e750d4230022e250089b9946314f324b97
:101c4c009a463968484606f03ffb00281ad00c37f4
:101c5c005745f6d12d4b99460696aa46434607930f
:101c6c00a0464e465ae00023cc22a3502200cc3290
:101c7c005360cae7cc33e7502300cc335f603f603e
:101c8c007f60d6e7039b082b06dd214923685b6840
:101c9c0008220598984766e77b6808aa03992000f4
:101cac00984760e74446069e5546194923685b6889
:101cbc0008220598984756e74446069e55467b6889
:101ccc0008aa0399200098474de7c046e82e00204b
:101cdc00d82e00206c0f0000f0690000ec2e0020c4
:101cec007c830000722f0020a80e0000a869000061
:101cfc00900f000094020000cc0e0000400e00007b
:101d0c003c0f0000b47b0000d87b0000c02a0020f0
:101d1c00040f00001836524b9e4230d07468002cd1
:101d2c00f8d03569002d13d05122079925a806f05b
:101d3c0077fc73690093512325aa41462000a847dc
:101d4c00002820d1082208a925a803f021f9039026
:101d5c00039b082ba6dc77683368002bdad0089d30
:101d6c000024b1461e003968280006f0adfa0028a0
:101d7c00a2d001340c37b442f5d14e46cae74446e2
:101d8c00069e55462be74446069e5546ebe6a36950
:101d9c0022002032934200d8e9e6e06983421bd24c
:101dac005a1ec31a01385178117001328242fad18d
:101dbc00a269013aa261e269013ae2610021117063
:101dcc00a269284927007137380006f088fa336871
:101ddc00390028009847cae62349336828009847f9
:101dec00a369013ba361e369013be361bfe6e169e0
:101dfc00a269914200d8bae6501c0b1a814205d058
:101e0c00d0185178117001328242fad1e269013a4c
:101e1c00e26100211170a269144927007137380062
:101e2c0006f05dfa33683900280098479fe61b23bb
:101e3c00a3741a3b23829ae672230022e25458e6da
:101e4c000b493368280098474346a361e36109496d
:101e5c003368280098478ae6ab464546e660a4e618
:101e6c00802b0020700f00007c0f0000840f0000fe
:081e7c00980f00006c0f00003c
:020000040000fa
:101e8400e82d00201c00000000000000b32e0020fc
:101e94000100000000000000e02e0020040000000b
:101ea400000000001c300020980000000100000029
:101eb40000000000300b0000010000003c0b00009b
:101ec40002000000540b000005000000600b00003d
:101ed400060000006c0b000007000000840b0000eb
:101ee40008000000a40b000009000000cc0b000057
:101ef4000a000000e80b00000b000000100c0000ba
:101f04000c000000280c00000d0000003c0c000038
:101f14000e000000500c00000f0000005c0c0000dc
:101f2400100000007c0c000011000000ac0c00004c
:101f340012000000e40c000013000000f80c000084
:101f440014000000180d0000742f0020a8000000e9
:101f54000100000000000000bd5700000100000067
:101f64005153000002000000c92e000003000000cd
:101f74000542000004000000597d00000500000037
:101f8400a56f000006000000455700000700000090
:101f94005967000008000000e5790000090000000e
:101fa400f16c00000a0000006d7b00000b000000d3
:101fb400196900000c000000616900000d000000b8
:101fc400618500000e000000d96400000f000000cd
:101fd400497b000010000000356200001100000081
:101fe400797d000012000000296500001300000044
:101ff400997d00001400000003420000e42e00203c
:102004000400000000000000a42e00200f000000c7
:1020140000000000c42d0020240000000000000087
:10202400842c00205400000000000000002a00203e
:10203400c000000000000000b42e00200c000000ce
:1020440000000000712f00200100000000000000cb
:10205400982d00202c000000000000000024002027
:102064000004000000000000282d002040000000b3
:1020740000000000722f002001000000000000009a
:10208400e82e00200400000000000000c02a002008
:10209400c000000000000000ec2e0020080000003a
:1020a40000000000002000200004000000000000e8
:1020b400d82e00200800000000000000f42e0020ac
:1020c4000400000000000000732f00200100000045
:1020d40000000000002800200002000000000000b2
:1020e400c02e00201800000000000000f82e002080
:1020f4000800000000000000b830002002000000ca
:102104000100000001000000802b0020a00000005e
:1021140000000000682d00203000000000000000d6
:10212400042e00201400000000000000002f0020f6
:102134000800000000000000b4300020040000008b
:1021440001000000aaaaaaaa082f00200800000083
:10215400000000000000002000200000000000003b
:10216400102f00202c00000000000000182e00207a
:1021740014000000000000003c2f002004000000b8
:10218400000000002c2e00202800000000000000a9
:10219400402f00200800000000000000542e002002
:1021a4002800000000000000202c00206400000033
:1021b40000000000482f002018000000000000006c
:1021c4007c2e00202800000000000000702f00205a
:1021d4000100000000000000602f00200800000043
:1021e40000000000d82c0020500000000000000077
:1021f400682f00200800000000000000000000001c
:102204000000000066666666666666666666666602
:020000040000fa
:102214000023f0b51600b1b0039007910493079d15
:102224002b78002b00d1cfe001235b420c9310ab41
:1022340000240e9380230b940d940f932b5d002b9d
:1022440001d0252b30d1002c06d029002200039880
:102254002d1905f0b0fb0795079b1a78252a00d0a5
:10226400a7e001331800002105930793243a03786b
:102274002b2b25d02dd8202b25d0232b26d000295d
:1022840000d007902a2b2cd004f0cafc01250d9015
:102294000020079a11000b780132303b092b64d9d6
:1022a40000282dd007912be00134c7e701230b99b7
:1022b4000b430b9311000130d9e702230b99f7e785
:1022c40004230b99f4e708230b99f1e710230b99e6
:1022d400eee72d2bead0302befd00029d4d0079095
:1022e400d2e7336801301a1d1b68079032600d93e2
:1022f400002b05da01220b995b424a400b920d93a5
:102304000b9bda0702d5022293430b93079b1a789f
:102314002e2a0dd100270c975a785d1c07952a2a7e
:1023240025d10233079333681a1d1b6832600c935e
:1023340007a805f085f9079d0700287806f023f91a
:10234400252800d1d5e06138172800d9dbe006f054
:102354009ff81fdab63ea6a6a6da3edadadada9ce7
:102364005e7fdadac6da4edada6e280092e72800ff
:1023740004f056fc01210c902a0013780135303bff
:10238400092b03d9002fd3d00792d1e70f00f3e72d
:102394003200390008a805f0b6f8002800d17be027
:1023a4006b1c079303982b7808aa0ba9fff7d4f8a2
:1023b4002418049b1c19a34200dcb0e04f22594ba3
:1023c4001a6001235b420493049831b0f0bd3300da
:1023d4000122390008a801f0a7fe00285cd00135cd
:1023e400039808aa0ba9079502f0bef9e0e73300a9
:1023f4000022390008a801f097fe00284cd00135ce
:10240400039808aa0ba9079503f06affd0e73300e5
:102414000022390008a801f087fe00283cd00135cd
:10242400039808aa0ba9079503f04cfcc0e73300f6
:102434000022390008a801f077fe00282cd06b1c7c
:1024440007932b78039808aa0ba901f03ef9afe78c
:1024540033000022f02108a801f066fe00281bd0fa
:10246400089b099a0135079513430cd12e4d28007a
:1024740005f0dcfe290002000b9b00930d9b0398e2
:1024840003f012fa94e77823dce7049b39001a1965
:1024940008a8330003f07ffa0135079589e7320075
:1024a400390008a805f02ff80028f5d06b1c079315
:1024b40003982b7808aa0ba9fef7d2fd78e7802fa2
:1024c400ead1336801351a1d1b68326008aa1370fb
:1024d4000123079503980ba904f014f968e7802fea
:1024e400dad132680135131d336012680023079571
:1024f400f0e7802fd0d10b9b0135009301220b49cb
:102504000d9b0795bbe7059b0122079300235242cd
:102514000c9206490b930d9300930232afe7049497
:102524007de6c0466c2f0020407f0000467f0000ff
:020000040000fa
:10253400f0b40125ed070f005f405ad48b4200d15f
:10254400824205d950404240504059404b40594086
:102554004e18760ddf187f0d3bd0741c640529d00e
:10256400f41b352c26d80e0ddb022b43db0ac902e3
:102574002943c9121700202c1ed2e741e2405740dc
:10258400e3415a40a340e3405a4000248018594193
:102594000ad3b21c520521d0c207012f6241170091
:1025a4004008cb0718434908013636054208af41b5
:1025b40060417141f0bc7047203c06d01f00e741e8
:1025c400e3405f400024012a6741c0186141ebd316
:1025d400dfe7002eeed129400020ebe7013631057c
:1025e4000020e7e7e742e5d10020c143090dc90413
:1025f400e0e76b400e00871a9e4104d26e40c01b78
:10260400b141d21973414e18df18ac0ae642e9d23f
:10261400760d7f0d31d0f41b362ccbd8b4460e0d7d
:10262400db022b43db0ac9022943c90a012c32d835
:1026340004d1d4075208df073a435b08ef0a644227
:10264400904199411ed0002239424dd12419404174
:1026540049410124394204d1013400184941394225
:10266400fad06246a24204d9361b013e36058919c6
:10267400a0e7f10ac90700209ce736429ad100205e
:10268400002197e70200224394d0b842ded2010031
:1026940020002024e3d1202c13dd203ce24117004c
:1026a400a240e2405740e3415a40a340e3405a402d
:1026b400012fbf410137174300227c4298419141c9
:1026c4000ce01700e741e2405740e3415a40a34081
:1026d400e3405a407c429041994100220f0303d2c7
:1026e400013e241940414941013e36054708ac41a9
:0826f40050417141f0bc704738
:020000040000fa
:1026fc00f0b583b000900f0001939400200002f01d
:10270c0071fb061e59d0542002f06cfb051e51d0f3
:10271c005422002105f090fe2e632200a5213000ea
:10272c0005f08afe043c2e6b361907229643002fc7
:10273c000cd000242a0034323b5d1355002b02d000
:10274c000134102cf8d143230022ea54089f042fa3
:10275c0000d90427ef626f642c1d200005f086ff62
:10276c002800183005f082ff2d610523db1bab61bf
:10277c006d62019a0099300002f04cfa2860099bb6
:10278c00002b00d01d6005f01dfd394a1368013384
:10279c001360384b1b68002b13d0374b1b68002b76
:1027ac0015d1344b1b68da6aeb6a9a420fd8314b5d
:1027bc001d600ce0300004f08cff0120404203b09f
:1027cc00f0bd2c4b1d602a4b1b68012b31d02b4ac2
:1027dc00136801331360ea6a294b1b689a4201d9ca
:1027ec00274b1a60274993009b189b00cb185b68fa
:1027fc00ab609a68ea6054609c60e86a83001a18bf
:10280c00920052186a611a189200535801335350af
:10281c0005f0e4fc184b1b680120002bcfd0154ba6
:10282c001b68da6aeb6a9a42c9d205f0bffc012038
:10283c00c5e7144e37006437300005f03afd143606
:10284c00be42f9d1104f380005f033fd0f4e300069
:10285c0005f02ffd0e4805f02cfd0e4805f029fd66
:10286c000d4805f026fd0d4b1f600d4b1e60aee7ad
:10287c00382f0020482f00202c2f00201c2f002048
:10288c00302f0020202c0020682e0020542e0020f9
:10289c00402e00202c2e0020182e0020442f00202b
:0428ac00402f002099
:020000040000fa
:1028b000f0b5de4657464e464546e0b583b0584b28
:1028c0001b68002b00d09de0564b1c68621c0092d8
:1028d0001a60002a11d0544b1b6800229346009abc
:1028e00093421dd8514b1b681b68002b12d04f4dd3
:1028f0004f4fbc464f4901955ce04c4a11684e4b26
:102900001868106019604d4a13680133136005f0b0
:1029100013f8e0e700239b46434b012252421a6022
:10292000474b1b68434ad96a8b005b189b009b5836
:10293000012b01d901239b46424b1b68002b67d01a
:1029400001239b4664e0384b1a60e9e7dc68546079
:1029500041e000229a622268013a2260dc6a3a6809
:10296000944201d962461460a200121992008a189a
:1029700052689a609468dc6060609060d86a8200f7
:102980001418a400a046884444465c611418a400ae
:102990006258013262502a4a12689046da6a434607
:1029a000db6a9a4201d901239b46019b1b681b6885
:1029b000002bb1d02b68db68db685a680098904226
:1029c000c1d35a699c68d868a0609c684460181d8f
:1029d00054688442bad000245c611468013c1460dd
:1029e0009c6a002cbad0da6992461a6a5646b260de
:1029f000de6956601a00183266689642a9d11a6ad2
:102a00006260a6e7104a13680133136000239b46f7
:102a1000584603b0f0bcbb46b246a946a046f0bd3e
:102a2000102f0020342f0020182f0020442f0020ca
:102a3000302f0020202c0020402f0020202f0020ad
:0c2a4000482f0020242f0020282f002009
:020000040000fa
:102a4c0008d1002806d1f54204d801d3002a01d1bf
:102a5c006d0d09d10020c143090dc904f0bdf9d198
:102a6c001242f7d1640df5d00020c1434905490845
:102a7c00a6e000206146f0bdf0b50127ff070e006f
:102a8c005e403e40b446be0a4c18dd18f442d7d224
:102a9c00f542e4d2640decd06d0dead06419c90294
:102aac003943460dc0023143db023b43db0a10b411
:102abc008e4685b297b26f43140c6c433e0ca4192e
:102acc00260c2404bfb227439cb26c43a419190ce6
:102adc006943250ca4b249190d04090c6419000ca6
:102aec0095b245433e0c76193743bfb2360c150ce4
:102afc004543ad19a6b2240cad192e0437432e0c48
:102b0c0036199db24543ad19acb22e0c89191d0c6a
:102b1c0045436d182e04290c3443704680b295b28f
:102b2c0045433e0c76193743bfb2360c150c454362
:102b3c00ad19a6b2ad19240c2e0437432e0c361940
:102b4c009db24543ad19acb22e0c89191d0c4543f1
:102b5c006d182e043443290c75462d0c90b2684325
:102b6c003e0c80190604bfb23e43070ca0b23f18be
:102b7c00120c6a43d019020c80b2240ca4189ab21d
:102b8c006a43121914042043120c89181b0c6b4352
:102b9c00c91810bc01273d05294203d1b619404183
:102bac004941013cff077d0d013d641b0bdb6d00b2
:102bbc00ac4209da240500254208be416841614156
:0a2bcc0066463143f0bd54e74ee7c2
:020000040000fa
:022bd600704746
:020000040000fa
:102bd800810000004c090000820000006c09000020
:102be800830000008c09000084000000b009000088
:102bf80085000000d409000086000000f8090000e4
:102c0800870000001c0a0000880000003c0a000041
:102c1800890000005c0a00008a000000800a0000a9
:102c28008b000000a40a00008c000000c40a000009
:102c38008d000000e40a000000000000a802000067
:102c480001000000d8020000020000000403000098
:102c580003000000300300000400000060030000cf
:102c6800050000009c03000006000000cc030000e3
:102c780007000000fc03000008000000300400000a
:102c880009000000700400000a000000a40400000d
:102c98000b000000d80400000c0000000c05000028
:102ca8000d000000400500000e0000006c0500004b
:102cb8000f0000009405000010000000bc05000093
:102cc80011000000e4050000120000001c060000ce
:102cd8001300000040060000140000006806000011
:102ce800150000009006000016000000b80600005d
:102cf80017000000ec060000180000001407000090
:102d080019000000400700001a00000078070000c2
:102d18001b000000ac0700001c000000d0070000ea
:102d28001d000000100800001e00000050080000f0
:102d38001f0000009008000020000000cc080000e0
:082d4800210000000809000051
:020000040000fa
:102d500070b50500594c247fe0b2002c00d0a7e0ec
:102d600000294ad0002d48d0554c666807243440cd
:102d7000012c5ed0514805604260002444618461aa
:102d800004614e488160002a58d04c4ad3604b4ab7
:102d9000012111774a4a127e520705d5484a04207c
:102da000916a117e0142fbd1454a518b04200143b7
:102db0005183117e7c300143117640498a68c9688d
:102dc000914203d93d48c168891a01613c4949686b
:102dd000490743d139498969914233d2374a116849
:102de000087837498862916901319161002b5ad086
:102df000334b04229a7501205be0002b59d0002a46
:102e000057d02f4c666807243440012c0cd02b4837
:102e1000056042600024446184610461002db0d1ea
:102e2000264900208860aee7002943d1dc07eed5b3
:102e30003fe0cc073dd4002be9d0f7e71f4a002143
:102e4000d160a4e71d4a1269002acfd01c4aff2195
:102e500091621a490a69013a0a61c7e7174a9168fb
:102e600049089160116949081161d1684908d16028
:102e7000916892698a420ad210490a681288d2057a
:102e8000d20d0f4882628a6901328a61aee70b4a2d
:102e90001269002aaad00a4a0a49916207490a69b6
:102ea000013a0a61a2e7064b01229a75012000e06f
:102eb000002070bdcc07b9d5fbe7c046982d002097
:082ec00000080042ff010000c0
:020000040000fa
:102ec800f0b595b003780d2b00d995e09b004e4adc
:102ed800d3589f4603f07afe052002f0b1f915b0e9
:102ee800f0bd03f073fefae750220021684605f0b2
:102ef800a5fa464b9a691202120c4549684605f034
:102f0800f0f9444d042700242e0003e00134033572
:102f1800052c0fd063001b19995df3185a7812021b
:102f28000a43f3d0ab783c493800684405f0d9f936
:102f38000a37ebe7354b9a68511c996037496b465d
:102f4800002002f011fecae7354b5b78db06c6d5d8
:102f580004f0defe040020220021684605f06efa27
:102f68006946200003f0fcff6b469b78032b10d0ca
:102f7800062b1ed00c2b29d0042b33d005f02efbaa
:102f8800032833d805f0c3f90028a8d105f007fbba
:102f9800a5e7009802f074fd002807d01b4b6a468d
:102fa8001288da83032002f04bf998e705f0f7fa64
:102fb80095e7009802f064fd002803d08378012289
:102fc800134383700e2002f03bf988e70f4b6a46e3
:102fd80092881a846a46917922229954102002f024
:102fe8002ff97ce7122002f02bf978e705f0f0fac8
:102ff8000c4904f009fbc5e705f089f9002800d061
:103008006de705f0ccfa6ae734720000c42d0020a1
:10301800240d0000a42e00202c0d00003c0d000003
:08302800e02e00204c0d000019
:020000040000fa
:10303000f0b5ce46474680b585b002f006fb504b52
:103040009946504b984600254b461b681e68002e3b
:103050005cd0db681e6805f06bfa01a803f08ef8ff
:103060000400019a002a0bd1b0425dd300f090f821
:103070002100300004f04af85fe005f09df85ce0c4
:1030800000f086f859e02422a35c01210b43a354ed
:10309000029ba16959180200200003f0cdfc002812
:1030a0004fd02423e35c5a0707d4012293432332f1
:1030b000a354236a2000984743e00299a369c918e2
:1030c0003a00200004f0f2fcf3e72422a35c012183
:1030d0008b43a35435e02422a35c01210b43a3546a
:1030e0000299a161411803000200200003f0a4fc32
:1030f00027e02423e35c9a0704d50122934323327b
:10310000a3541ee0200004f0eafa1ae005f010fad9
:1031100001a803f033f80400019b002bb0d1434613
:103120001b681a6853425a41311b174b186803f049
:1031300073fa00f02df800289fd0019502950395b1
:10314000114e30682a0001a900f059fc002800d176
:103150007ae7019b002bf4db039c002cf1d0636920
:10316000002b02d0201d04f05dfd684603f006f838
:103170000700019b092be4d89900044b5b589f463c
:103180005c2f0020582f0020542f0020d47a0000fc
:020000040000fa
:10319000f8b5de4657464e464546e0b505f018f808
:1031a000494b1a68013a1a601b680024002b7bd136
:1031b000464b1b68002b77d0454b1b68002b5cd01f
:1031c000434e00239b46434dac46434b9a46340046
:1031d00008e0196a516012e0d96851601ee0236866
:1031e000002b48d0f368db689a6ad869196a816055
:1031f000d86948601900183150688842e9d05946aa
:1032000099621168013911605a699868d9688160ba
:10321000986848601f1d5168b942ddd05946596110
:10322000116801391160d86a2a68904201d9624652
:1032300010602a498200121892008a1852689a6017
:103240009068d86047609760df6aba00d019800044
:103250008046884440465861d01980004258013267
:1032600042501f4a1168da6acb6a9a42b7d90123e1
:1032700052461360b3e704f05ffb1a4b1c68002c46
:103280000ed0154e012502e0013c002c05d0fff7c1
:103290000ffb0028f8d03560f6e7124b00221a60c9
:1032a0000d4b1c68002c08d104f09eff2000f0bce0
:1032b000bb46b246a946a046f8bd094b1b6804f0c0
:1032c0007bff0124f0e7c046102f0020382f00209c
:1032d000402e0020302f0020242f0020202c002002
:0832e000482f0020282f0020d8
:020000040000fa
:1032e80070b5504b586a504b9b7d002b54d04e49bb
:1032f8004c68072214404b4b5a699d699e680b7ea7
:103308005b0757d5896a474bdb68934252d9002c33
:1033180043d1444b5b6899540132434b1b7edb0716
:1033280016d5414b012119753e4b9b68ab4256d9c6
:103338003c4b1b68595d3c4b99620135394b1b6905
:10334800002b01d1b54262d0364bdb68934262d084
:10335800344b5a619d61344b1b7e9b0715d5334b0b
:103368001b78002b18d02f4bdb68934211d12d4bc3
:1033780000221a772c4907240c752c490a701b6afd
:10338800002b09d0274b1b6a9847284b1b78002b2a
:1033980002d0254b02229a7570bd224b5b685400ff
:1033a800e1520132204b1b7edb07d1d51e4b012198
:1033b800197508e01c4b1b7edb07c9d51a4b012188
:1033c8001975002cb0d0174b9b68ab4213d9154b1d
:1033d8001b686900c95a144b99620135aee7114b55
:1033e8001b69002baad0104bff2199620d490b696c
:1033f800013b0b61a2e70b4b1b69002b9ed00a4bcc
:103408000b49996207490b69013b0b6196e7074b2a
:10341800012119709ce7044b012199750331197535
:1034280096e7c046982d002000080042712f002022
:04343800ffff000092
:020000040000fa
:10343c00f0b5c64600b5040017004568012903d055
:10344c00464e474b984651e00022444e454f18e0fb
:10345c0023681b68390028009847b16823681b68eb
:10346c0028009847f16823681b68280098473e4954
:10347c0023681b682800984701221836384b9e4257
:10348c000ad07368002bf8d0002ae1d137492368a1
:10349c001b6828009847dbe7354923681b68280020
:1034ac009847344e2f4b98462f4f23681b68414644
:1034bc0028009847316823681b6828009847b16832
:1034cc0023681b682800984723681b68390028006c
:1034dc0098470c36284b9e42e7d1284923681b6835
:1034ec002800984731e01836464531d07368002bd8
:1034fc00f9d07968b06804f0e7fe0028f3d177685a
:10350c00336800229046002b1ad0164923681b689a
:10351c0028009847396823681b6828009847b968c1
:10352c0023681b68280098470f4923681b682800ec
:10353c00984701239c46e0440c3733684345e4d854
:10354c000e4923681b682800984780bcb846f0bd1c
:10355c000b4923681b6828009847f6e7c02a00200f
:10356c00802b0020d80d0000e00d0000ac0d0000f9
:10357c00e80d0000b47b0000d87b00009402000032
:04358c00140e000019
:020000040000fa
:10359000f0b5c64600b584b00400019100239846fa
:1035a00000274425002645e0013ba3632368002b48
:1035b0000bd02369002b0cd104f016fe0123984692
:1035c000404604b080bcb846f0bd04f013ffa060d4
:1035d000efe72000103000f0cffc0028ecd004f022
:1035e000ebfde9e704f000fe00239846e8e702a8b7
:1035f00004f012fe28e0665530e04523e65432e040
:1036000004f0e6fda06801f011fa804604f0ecfd3c
:1036100039e0200001f09cfffff7bafd09e020002f
:1036200001f096fffff7b4fd200004f0d9fe00285a
:1036300038d1012704f0ccfda36b002bb4d1019b42
:10364000002bcfd0002fd2d004f0cefd04f070ffbd
:1036500004f0befd635d5bb20133ccd04523e35c77
:103660005bb20133c9d004f0bffd01a902a802f08a
:1036700057fd0028d3d1200004f0b2fe0028c8d0a6
:103680002368002bbcd001992000243004f02efdcb
:10369000200001f05dfffff77bfd0028c9d104f099
:1036a0008bfdc6e74346002b00d189e704f090fd6f
:1036b000616a002903d0236b1b680521c91aa06821
:0e36c00001f03cfd04f090fd0023984678e7f1
:020000040000fa
:1036ce00f0b58fb00c934b680d0008938b68160005
:1036de000993cb680f680393089b0b90002b43db79
:1036ee0002239f4310233a001a400d92099a049226
:1036fe001f4206d033687268134302d0099b023b07
:10370e00049308233b400a935a1e9341049a2c6952
:10371e00d31a04933368039a06937368013c079394
:10372e0000231355049b0593012c20dc0d9b002bcd
:10373e0050d10a9b002b03d02023039a013c135532
:10374e002a69039b013a19190b98099b121b0097c2
:10375e0002f0a5f80b9b5b68db0503d56b689842fe
:10376e0000da18000fb0f0bd01230893bae7069bec
:10377e00079a13430ad1049a089b9b1a059a9b1821
:10378e00002b03dc002ad1ddbb07cfd50f23069a11
:10379e00013c134018005730092b01dc3033180060
:1037ae000c9b413b192b06d820230343613b192b5d
:1037be0001d804f0eafe039b1855059b013b0593c7
:1037ce00079b1a07069b1b091a43079b06921b09a8
:1037de000793a9e70cce1343abd0039b0c9a1b198e
:0e37ee00013b1a703023039a023c1355a1e7e9
:020000040000fa
:1037fc00f0b5de4657464e464546e0b583b00190df
:10380c008c4600296dd005000123374f374a91466d
:10381c009346160092460de040003549009c0c542e
:10382c00013000240c5451468a605a1c0235634501
:10383c0047d213005a1e9046796807220a40012a83
:10384c0017d0b068f468421c31698a4289410a4039
:10385c00944237d001990139cc5c00947968884640
:10386c000721444621400129d6d02149009c0c5403
:10387c00d9e74a469068d468421c494609698a428d
:10388c0089410a4094421dd0697809022c78214361
:10389c0000917c68a046072441460c40012c06d0c0
:1038ac0069460978124c215459468a60bde740009c
:1038bc00694609780e4c215401300099090a2154ab
:1038cc00f2e7984604f0aafb002802d0064b01222e
:1038dc009a75404603b0f0bcbb46b246a946a0461a
:1038ec00f0bd8846eee7c04600140042282d0020ab
:0438fc000024002084
:020000040000fa
:10390000f0b5ce4600b584b00400009101921e00cf
:103910000025442730e032000099200002f062f9cf
:10392000636a002b08d100280fd104f05dfc012050
:1039300004b080bcb946f0bd2000243000f01cfb70
:103940000028f2d004f038fcefe704f035fcece797
:1039500004f04afc0020ebe702a804f05dfc18e04c
:103960000023e3551fe00022e25421e0200001f093
:10397000effdfff70dfc012504f02afca26be36bc1
:103980009a42c8d3022ec6d0019b002be0d0002d56
:10399000e2d004f029fc04f0cbfd04f019fce15d59
:1039a00049b20131dcd04523e05c40b20130dad0cd
:1039b00004f01afc01a902a802f0b2fb002817d1fa
:1039c00004f006fca36b9946e56b04f00dfca945d9
:1039d000ccd101992000103004f088fb200001f0c8
:1039e000b7fdfff7d5fb0028c5d104f0e5fbc2e722
:0e39f000200001f0adfdfff7cbfb002098e7b3
:020000040000fa
:1039fe00f0b5c64600b584b00400009101920027d0
:103a0e0044260023984638e00099200004f015f96a
:103a1e006b1ea3632369002b06d104f0defb01208d
:103a2e0004b080bcb846f0bd2000103000f09dfa06
:103a3e000028f2d004f0b9fbefe704f0cefb002033
:103a4e00eee702a804f0e1fb21e04346a35528e08f
:103a5e0045234246e25429e0200001f072fdfff7b3
:103a6e0090fb09e0200001f06cfdfff78afb2000bf
:103a7e0004f0affc002835d1012704f0a2fba56ba2
:103a8e00002dc1d1019b002bd7d0002fd9d004f02f
:103a9e00a4fb04f046fd04f094fba35d5bb201337e
:103aae00d3d04523e35c5bb20133d1d004f095fb58
:103abe0001a902a802f02dfb0028d3d1200004f0aa
:103ace0088fc0028c8d001992000243004f007fba0
:103ade00200001f036fdfff754fb0028ccd104f096
:083aee0064fbc9e700209be71f
:020000040000fa
:023af600704717
:020000040000fa
:103af800f8b5de4657464e464546e0b5354d364b99
:103b08002f001e00354a01239b46324b9846b24689
:103b18001e0016e0580030498c46095c8946ff2192
:103b28008c4349460c4301306146085c0002e4b20c
:103b38000443013319e0ff2323401385337d002b11
:103b480021d1137e584603423ed0a868eb689842bc
:103b580037d05068072108400128dbd05046c05ca8
:103b6800f8318c430443a4b201333869834280415d
:103b780003404046c360536807210b40012bdad14c
:103b8800164b1c85dae7564604f0eafb114b1b6816
:103b9800002bb7d00f4b59681b7f002b08d00d4b5b
:103ba8009b699842aed30b4b1b6803209847a9e743
:103bb800084b9b699842a5d1064b1b680320984780
:103bc800a0e7064b01221a75f0bcbb46b246a946cf
:103bd800a046f8bd282d0020002400200014004233
:020000040000fa
:103be80070b5364b5b681a8835498a4207d0802100
:103bf8004900595a3248814201d08a4205d02f4b98
:103c08005868010000232d4c16e08021585a824242
:103c180050d04031595a8a424cd040229b5a98423f
:103c280048d0994246d0012004f012f9e7e7013361
:103c38009bb24031082b05d00a88012af7d8a21870
:103c48001372f4e71d4b012252425a8103881d4a20
:103c5800944663445a4253414022825a6244514234
:103c68004a41524213408022825a624451424a4198
:103c780052421340c022815a114a914214d0421c28
:103c8800ff3280239b009c46604401210c4c138822
:103c98001b1b5d426b415b42194040328242f6d1a8
:103ca8000122002903d170bd002be8d00022034b6c
:103cb8005a81f8e7002004f0cbf8a0e7842c002014
:083cc800ffff00000100fffff7
:020000040000fa
:103cd00010b5e0b03249882252001ba804f0a8fbbe
:103ce0003049682201a804f0a3fbc0216a4689007c
:103cf000022001f067fa6b46187822221ba903f014
:103d0000d8ff041e0bd004f06dfc032824d804f067
:103d100069fc032826d804f065fc032828d86b46e4
:103d200058780d2201a903f0c4ff041e0bd004f043
:103d300059fc032822d804f055fc032824d804f0a9
:103d400051fc032826d86b461b881b0a1b026a46b7
:103d50001078184360b010bd04f03efc124903f027
:103d600057fcd4e704f038fc210003f051fcd2e703
:103d700004f032fc0d4903f04bfcd0e704f02cfcbe
:103d80000b4903f045fcd6e704f026fc210003f0c4
:103d90003ffcd4e704f020fc044903f039fcd2e7ef
:103da000402c0000d82b0000880200009402000084
:043db0009802000075
:020000040000fa
:103db400f8b5ce46474680b5334d2f00a846a946f0
:103dc4005be04246126a002a42d0716a336a0120db
:103dd4009847b36a0133326b93429241134037e000
:103de4004a46926a5200e0b2284988540132240ab1
:103df4008c543ce004f024f9234b1b6a002b3cd088
:103e0400214b596a3c229b5c002b08d01e4b9b6bb8
:103e1400984232d31c4b1b6a002098472de01a4b62
:103e24009b6b984229d1184b1b6a0020984724e0c9
:103e3400174b1b7e5b0722d5154b1c8da4b2ab6ab6
:103e440001332a6b934292411340fa6a9a42b8d0e2
:103e54000d4ad26a9a42ebd00d4a516807220a40b1
:103e6400012abdd0084a926ae4b208498c54064a31
:103e740093623423d35c002bbcd1034ed8e7c0bc7f
:103e8400b946b046f8bdc046282d002000260020c3
:043e940000140042d4
:020000040000fa
:103e9800f0b506000f0015001c0085b08b4263d8f2
:103ea80001d1824260d82100280004f0edf93900e0
:103eb8000090300004f0e8f9009b21001b1a1a005a
:103ec8002800039304f0d4f900900191b94245d831
:103ed80001d1b04242d8009b019c01200021039ae5
:103ee800f61aa74104f0c4f904000d00039b002b47
:103ef8002bd0019b009adb0750081843019b5908f7
:103f0800039b9c46b9422cd801d1b04229d8320033
:103f18003b00121a8b41012692185b410027b61804
:103f28005f4101235b429c446346002bead1300089
:103f38003900039a04f090f9039aa4197d41060008
:103f48000f0004f095f9241a8d410a9b002b01d02b
:103f58001e605f602000290005b0f0bd0024002528
:0e3f6800c4e7b6197f41dce700240025ede731
:020000040000fa
:023f7600704792
:020000040000fa
:103f780010b5c368db689a6ad869196a8160d8691c
:103f88004860180018305168814240d00021996279
:103f9800116801391160274a1268002a3dd15a690f
:103fa8009868d9688160986848601c1d5168a1426a
:103fb80030d000215961116801391160d96a1e4a4f
:103fc8001268914201d91c4a11601c488a00521893
:103fd8009200821852689a609168d9604c60946027
:103fe800dc6aa200111989000918596111198900a0
:103ff8000a5801320a50124a1168da6acb6a00205c
:104008009a4203d90f4b01221a60013010bd196a78
:104018005160bbe7d9685160cbe70b4a5168d96159
:104028008c681c62606088609a6211680131116056
:10403800e1e7c046102f0020302f0020202c002060
:0c404800482f0020242f0020402e0020d4
:020000040000fa
:1040540010b52e4b1b68002b03d02d4b01221a6088
:1040640010bd2b4b00221a602a4b1a68116b1a6878
:104074001b6812681b6b9a4203d9274b0a689a4241
:1040840033d0244b19681868343104f0fbfa234bfd
:104094001b6823499a00d21892005258002a09d169
:1040a4009a00d21892001f495218013b143a5169e0
:1040b4000029fad01a489a00d118890041184c688e
:1040c40064684c60d218920008321218944216d0d8
:1040d400134a9900c918890052185268d1680d4ac8
:1040e40011600e490b601368bae74a689a42c8d156
:1040f4008a689a42c5d1ca689a42c2d1c7e7990070
:10410400c91889004218d1685160e1e7102f0020d6
:10411400242f0020482f0020a5a5a5a5302f00207e
:08412400202c00200c2c0020cf
:020000040000fa
:10412c0010b50400902911dc00207f2928dd80398e
:10413c000800102910d804f0a7f931313d0f110fe8
:10414c000f0f240f0f0f0f0f0f0f3d00c0294bd077
:10415c00f02949d0a02928d0002011e01968002aa4
:10416c0007d00a1d1a6000228b5e2360db17636088
:10417c0005e0081d18600b689bb22360626001208b
:10418c0010bd1968002a04d00a1d1a600023cb56f2
:10419c00ebe7081d18600b68dbb2eee71968002a24
:1041ac001ed00a1d1a600b68dfe71a68111d196012
:1041bc001368dae707201968002a09d00918814327
:1041cc000a0008321a600a684b6822606360d6e7fe
:1041dc00ca1d824311000831196053681268f4e754
:1041ec00081d18600b68c8e71a68111d1960136860
:0641fc0023600023bbe775
:020000040000fa
:02420200704703
:020000040000fa
:10420400f0b583b0314de88b002603f049f8040083
:10421400290019310222684604f008f905236a4688
:104224009370d37801229343013293430232934330
:10423400043293430832934310329343203293431e
:104244003f3213406a46d3709680d6806d7fa54274
:1042540023d0601c052100f087fc8d4217d0a01ce0
:10426400052100f081fc8d4220d0e01c052100f0e6
:104274007bfc8d4221d0201d052100f075fc8d4270
:104284000bd164236a4693805a3bd38005e06423b0
:104294005b426a4693805a33d3806946082002f011
:1042a400abff042000f0ceff03b0f0bd084b6a461c
:1042b40093802333ff33d380efe796235b006a4672
:1042c4009380233bff3bd380e7e7c046c42d002007
:0442d400d4feffff16
:020000040000fa
:1042d80030b58223db05304a1a60304a1a61002261
:1042e80042215a5408315a5401315a5449394d20ff
:1042f800195402301a544e3850241855013419559f
:10430800013418550134185501341955023419551a
:104318000134195504341a55013407251d552b3c11
:104328001a5504341a5501341a5501341a550134f2
:10433800195501341b351d5501341a5501341a55c8
:1043480002341a5501341a554234154d1d51103492
:10435800a025ed011d5134341a5501341a55013484
:104368001a5501341a5502341955013418550134b7
:104378001855cb301954cc31c73858541c395a54b5
:1043880001315a5401315a5401312e3058540131f7
:104398005a5401315a5430bd04acd2080484d2189e
:0443a800f01200000f
:020000040000fa
:1043ac00f8b5314b5a6a9869d9690124002500196e
:1043bc0069419861d961002a4ed02020195c0131e5
:1043cc0019549368002b48d09368013b9360264b9b
:1043dc005c6a002c43d1254d00242e0021e02000e6
:1043ec0002f0daf9a378002b00d16770e368002b98
:1043fc0001d020699847746a002cecd0a368002b7c
:10440c00e9d125756575a378002be8d1e368002bfd
:10441c00e5d0e06902f0c6fce8e701342035052c54
:10442c0015d06301f3185b7d002bf6d00f4b6101a7
:10443c005b1800215975ab78012beed169680b4bd9
:10444c0062019b189960280000f034fce5e7064bec
:10445c0020215a5c013a5a54f8bd034b5c6a012581
:10446c000027014ecae7c046682d0020802b002093
:020000040000fa
:10447c00f0b40125ed070c005c402c40a446ae0abc
:10448c004c18df18f4423dd2f74245d2640d4cd0a3
:10449c007f0d3cd0e41bc9022943cf0adb022b431e
:1044ac00db0a0600b61a9f4104d2013cb6197f41c3
:1044bc00b6185f416812800d241838dd001884424c
:1044cc0025d8e80c0021b6197f41b61a9f4103d3b9
:1044dc0040414941f7d304e0b6185f410018494107
:1044ec00f1d32405b6197f41b61a9f4105d3374342
:1044fc00c20717430022012f50416141624611430c
:10450c00f0bc70470cd100280ad1f74208d2002029
:10451c00c143490d0905f1e7002a01d1f74206d044
:10452c000020c143090dc904eae77f0df8d0002033
:04453c006146e5e708
:020000040000fa
:10454000f0b583b004000191264b1e68264b1f680e
:10455000264b1d68264b1868043003f063fb631c70
:104560000dd03419224b1b685c60a6421ed9204b2b
:1045700019680431280003f02bf903b0f0bd019b4a
:10458000002b20d01b4a5168194b186881601868ad
:104590008c68c460186804306060186804308860f3
:1045a0001b685a61136801331360e6e7104b196802
:1045b0000431380003f00cf90f4b1b68a342dcd91f
:1045c0000d4b1c60d9e7731e094a126853609e4266
:1045d000cdd8074b19680431380003f0f9f8064bc1
:1045e0001b68cae7342f0020442f0020402f0020f2
:0c45f000482f0020182e0020182f00205b
:020000040000fa
:1045fc004b005b0d284af0b50d00591e040091428a
:10460c0039d8264a9e1825d420002900332e20dcc8
:10461c00234a9b1826d4234ada4013002700214a48
:10462c009f43f24038002f00234097432a40390023
:10463c0013430ed0002f0cda3400203c25d48025f7
:10464c006d03e5402a0080246403f44023008018a5
:10465c005941f0bd002d02db00200021f9e70020bc
:10466c001149f6e720230f4a9b1b9a4001235b421a
:10467c00f3401343d2e720002900002be9d100229c
:10468c00e90fcb0710001900e3e720248025a41bb9
:10469c006d03a5402a00d6e7fd07000001fcffffd3
:0c46ac00e1fbffffffff0f000000f0bf6c
:020000040000fa
:1046b800f0b5de4657464e464546e0b583b007009e
:1046c8000b0001910822944663449b46180003f0ae
:1046d800abfd0090002837d03e687d6820239a46bd
:1046e800ba44fc695346e41aa0420dda1a4b9946bb
:1046f8003b00070098463368494628009847013c24
:10470800a742f8d14746009c002c0ad0134bb84664
:104718001f003368390028009847013c002cf8d165
:1047280047465946504603f077ff0d49336828003d
:1047380098473368514628009847009b5344bb610b
:10474800fb61d423019afa5003b0f0bcbb46b246d1
:10475800a946a046f0bdc046380e00003c0e000039
:04476800400e0000ff
:020000040000fa
:10476c00f0b54b6889b004930b6805000c009c46af
:10477c008e68cf68079310685168cb0f059300299a
:10478c0044da0b000200002150429941049b002b9b
:10479c0009db0222634693430793059b002b02d14e
:1047ac00079b5a0723d5731e07aa02920a2200936d
:1047bc0001920b000200200001f024f9059b002b54
:1047cc0019d02d2301383b542269079b013a121a48
:1047dc00391800932800330001f062f86b68db0590
:1047ec0003d56368984200da180009b0f0bd1b07c6
:1047fc00db0ff31ad8e7079b5a0702d52b23013896
:10480c00e1e71b07e0d520230138dce7049b002bf4
:04481c00bfdac5e753
:020000040000fa
:10482000f0b583b005000c001700019308ab1e78ab
:1048300002f04efc00283fd0214b1b785bb2022bcc
:1048400006d00124644203f061f8200003b0f0bdfb
:10485000002c2bd0ac422cd300231a4a117800290b
:1048600006d020320133052bf8d101246442eae757
:10487000013111700021517011755175967054609d
:10488000d76001991161641b94600f4909881c0469
:10489000240c0b041c43d461013189b20b4a9142b0
:1048a00002d0094a1180cee70121fae701246442cf
:1048b000c9e701246442c6e701246442c5e7c04653
:1048c000682d0020802b0020b8300020ffff000062
:020000040000fa
:1048d000f8b504000d00002850d0c36b0020002b59
:1048e0004dd00026190c226c100c00292fd181b25a
:1048f00000291ed10020002e41d103f069fc22685e
:10490000216ce36b4b43d018a0600020a063626071
:104910005b1ad218e260ff234422a3540132a3544d
:10492000002d22d12369002b16d103f05dfc01205c
:1049300025e0011c181c9bb292b25a4380b28bb284
:104940004343120c9b181b0cd4d00126d2e780b233
:104950000028fad1101ceee720001030fff70cfb06
:104960000028e2d003f028fcdfe72000103003f03d
:10497000a6fc2000243003f0a2fcd6e70020f8bdfe
:020000040000fa
:10498000244b5a6852031b68db0c13439b029b0a9f
:10499000214a936300235375110004228b691a4244
:1049a000fcd11d491022cb681a42fcd01a4a137d53
:1049b00080210b431375194b00229a611a61184b21
:1049c000184a1a62190004224b681a42fcd1144a90
:1049d00088234021d15010004831402243581a42c8
:1049e000fcd00f4ad0234021d150100090314022fa
:1049f00043581a42fcd00a4adc234021d15010000f
:104a00009c31402243581a42fcd0074b2422da61e1
:104a10007047c04620608000001000400014004035
:0c4a2000001c00400601010000080040de
:020000040000fa
:104a2c0070b5041e4ad0c26a254b1b68db6a9a42d9
:104a3c003cd28369002b05db214b1b68d96a05230b
:104a4c005b1a836193009b189b001e4a9b1862693a
:104a5c009a4205d01a4b1b68db6ae36201202ce0fa
:104a6c00251d280003f0d8f8154b1b68da6ae262a2
:104a7c00154b1b689a4201d9134b1a6011499300cc
:104a8c009b189b00cb185b68a3609a68e26055602a
:104a9c009d60e06a83001a189200521862611a181d
:104aac009200535801335350012006e0044b1b680d
:104abc00406cdb6a98428041404270bd0020fce7ac
:0c4acc00482f0020202c0020302f00205c
:020000040000fa
:104ad800002941d010b404004c40a4460123002210
:104ae800002900d54942002800d5404288422cd3ed
:104af80001242407a14204d2814202d209011b01e8
:104b0800f8e7e400a14204d2814202d249005b00e6
:104b1800f8e7884201d3401a1a434c08a04202d34e
:104b2800001b5c0822438c08a04202d3001b9c088f
:104b38002243cc08a04202d3001bdc0822430028f1
:104b480003d01b0901d00909e3e710006446002cd3
:104b580000d5404210bc704701b5002003f098fd15
:104b680002bdc0460029f7d003b5fff7b3ff0ebc5e
:084b78004243891a1847c046a8
:020000040000fa
:104b8000f0b5de4657464e46c0b582b007008b46ac
:104b900091469a46214d01235b420193002404e093
:104ba000019401341835082c2fd06e68002ef7d0f0
:104bb000be42f6d1194b62001219d2009b189968b7
:104bc000484603f087fb002826d1144b62001219d7
:104bd000d2009b181d695869631c18d00f4a6100e8
:104be0000b19db00d3185f600e19f6005f46b75053
:104bf0004e469e605646de601d615861012002b03f
:104c0000e0bcbb46b246a946f0bd00200025019c91
:104c1000631ce3d10020f2e70020f0e7c02a002067
:020000040000fa
:104c200010b5031f802464041c60043b1960043b1e
:104c300016491960043b16491960043b154919606f
:104c4000043b15491960043b14491960043b1a6080
:104c5000043b134a1a60043b124a1a60043b124a8e
:104c60001a60043b114a1a60043b114a1a60043b63
:104c7000104a1a60043b104a1a60043b0f4a1a603b
:104c8000443803235b42036010bdc046cd8400005e
:104c900012121212030303030202020201010101b4
:104ca000111111111010101009090909080808083c
:104cb000070707070606060605050505040404049c
:020000040000fa
:104cc000f0b5d6464f464646c0b584b0002834d02d
:104cd000214b596a83689a46002934d08b68524622
:104ce0000392002290469a4531d300220023814648
:104cf0008e683400002512196b41029189690029e0
:104d00000dd08e68009600260196009e019fb61871
:104d10005f41474503d8ebd103988642e8d9029c0e
:104d200048468161a06151468a1a82608369002bde
:104d300003d081689a68521a9a6004b0e0bcba46ff
:104d4000b146a846f0bd8360034b5862f5e7024bbd
:0c4d5000586281610022e6e7682d002017
:020000040000fa
:104d5c00f0b5d6464f464646c0b582461e4ad36a83
:104d6c00956a002933d0ab4234d0040001201b4a91
:104d7c0094469046184f13e05a006646b65c26706f
:104d8c0001326646b25c627001333a6b93429241d7
:104d9c001340814213d9421c0234ab4210d0100094
:104dac000f4a566807223240012ae5d04246d25caf
:104dbc0091465246013a4e4616540133e5e71d0022
:104dcc00054bdd62e0bcba46b146a846f0bd1d00fd
:104ddc000800f5e70020f3e7282d0020002600202e
:044dec00001400426d
:020000040000fa
:104df00070b5040007231a000240034205d01300d7
:104e0000093b834229d30834a41a03f091fb194bc0
:104e10001b68002b0ed0002c25d0174b1b68e243db
:104e20009a420dd31c19154a94420cd9fef7b0f9d9
:104e30001be000240f4a124b07218b431360eae763
:104e4000fef7a6f911e00b4a1568ed180a4b1c6035
:104e5000fef79ef9002d0bd107e003f069fb054b2f
:104e60001b68002be5d0fef793f903f00ffc00253b
:104e7000280070bd082f00200c2f0020f71f000015
:044e80000700002007
:020000040000fa
:104e84001e4b1f4a1a601f4a9a81c02292025a601e
:104e94001a00d369002bfcd1184a136802210b4372
:104ea4001360d369002bfcd1174b00221a629a625b
:104eb400da6234215a5408315a549a630021da8749
:104ec4001a609a60da60197519779a610b4b5a68ff
:104ed40007231340012b0ad00b4b802292001a6344
:104ee4001a61064b80229a757c3a9a757047064b74
:104ef400802252001a631a61f3e7c046001400428c
:0c4f0400840131402bf6ffff282d002017
:020000040000fa
:104f10000eb430b51d4ca544ffab183304cb019340
:104f20008021c90002a800f0ddff0400421e184bda
:104f30009a4224d802ab00221a54164b1b68c3189d
:104f40008022d200934202d3124b00221a60114bee
:104f50001d68114bed1802a9280003f061fb290020
:104f6000002003f08bf8032213002340224201d0db
:104f70000132d31a074a1b1911685b181360812389
:104f8000db009d4430bc08bc03b01847f8fbffffb2
:0c4f9000fe030000f02e00200020002096
:020000040000fa
:104f9c00f8b5ce46474680b505008946170000286f
:104fac002ed000241c4b984621e0013400254146ac
:104fbc00280001f017fc002805d0a742f5d9a30062
:104fcc004a46d050f1e7002e1ed001362221300087
:104fdc0003f03cfa002815d086421ad00023037047
:104fec00bc4202d2a3004a469e500134451c2221e9
:104ffc00280003f02bfa061ed9d000230370d6e745
:10500c00002401e0012464422000c0bcb946b04633
:0c501c00f8bd01246442f7e7a40e000078
:020000040000fa
:10502800002934d00123002210b488422cd3012453
:105038002407a14204d2814202d209011b01f8e7e8
:10504800e400a14204d2814202d249005b00f8e7a1
:10505800884201d3401a1a434c08a04202d3001bcd
:105068005c0822438c08a04202d3001b9c08224300
:10507800cc08a04202d3001bdc082243002803d03e
:105088001b0901d00909e3e7100010bc704701b5fe
:10509800002003f0fdfa02bd0029f8d003b5fff7a0
:0c50a800c1ff0ebc4243891a1847c046e5
:020000040000fa
:1050b40000b587b00023029303930493059301334f
:1050c4001648c25c69460731ca5419000133002ae4
:1050d400f7d102ab5b18013b1a701148114b0193d5
:1050e40000920023803202a9fdf706fb012803d0b9
:1050f4000d4b1b6807b000bd02f024f80128f7d15e
:1051040072b60a4b012252421a60094b02321a60eb
:10511400084b00221a6001f039fde9e75310000042
:1051240001820000142f002090860000182f002018
:085134002c2f0020342f002075
:020000040000fa
:10513c0070b5041e09d0436c8b4200d20b00e26a9e
:10514c009a4202d0a16c012900d070bde362a16922
:10515c00002902db0521cb1aa36193009b189b004d
:10516c00134a9b1862699a42efd1251d280002f060
:10517c0053fde26a0f4b1b689a4201d90d4b1a6022
:10518c000b4993009b189b00cb185b68a3609a6833
:10519c00e26055609d60e06a83001a189200521814
:1051ac0062611a189200535801335350cde7c04630
:0851bc00202c0020302f002000
:020000040000fa
:1051c40070b586b004001500102818d903f008fa49
:1051d400032807d803f004fa0026032809d830006e
:1051e40006b070bd03f0f6f9134a144900f0befc92
:1051f400f0e703f0eff9124900f0b8fcefe7002301
:1052040001930293039304936a461375083313704e
:1052140050700b0a9370d170461df6b26946300087
:1052240001f030f9002ddad022006b46591d280018
:1052340003f0fcf8d3e7c046387d00004c020000c0
:045244006402000000
:020000040000fa
:1052480030b58bb004001b4b18701b49132202f0b9
:105258002cfd051e0bd003f0c1f9032817d803f065
:10526800bdf9032819d803f0b9f903281bd8200081
:1052780001f0f8ff00f0a8f801a901230b700d4b0d
:10528800586800230022fef737fb0bb030bd03f04f
:105298009ff90a4902f0b8f9e1e703f099f9290002
:1052a80002f0b2f9dfe703f093f9054902f0acf92f
:1052b800dde7c046c42d00201c300020200b000074
:0452c800280b0000af
:020000040000fa
:1052cc0070b506000d009220800002f00ffe041e47
:1052dc0030d092229200002103f0aef82660656077
:1052ec0023002033a361e361b83392229200a51806
:1052fc007d3aff3a2000cc3009e0196041685960d2
:10530c000b60a1584b60a3505c33ab4207d0a15843
:10531c000029f2d1a35043601b605b60f4e70023cb
:10532c00a360074b1b68002b06d0054b5b689c6089
:10533c00034b5c60200070bd014b1c60f8e7c0465d
:04534c00d82e002037
:020000040000fa
:10535000f8b503780d2b00d0f8bd1a4b1b789b06cf
:10536000fad5194b1a000021597600239376193289
:105370008224e400144e1500ff27200002f0befb3b
:10538000b3691b021b0cc01883b2384028701b0a7b
:105390006b70642002f050fd0134a4b20b4b9c42b0
:1053a000ebd1094b997e0f220a409a761b7e002b87
:1053b00003d00520fff748ffcee70220fff744ffa8
:1053c000cae7c046e02e0020c42d00201c040000c7
:020000040000fa
:1053d000f0b5c64600b5070072b68224e405802504
:1053e000ed006561642002f027fda561022002f056
:1053f00023fd0724012398468225ed050be0802636
:10540000f6006e61122002f017fdae61022002f07c
:1054100013fd013c0fd33b00234142461a42eed01c
:105420008026f6006e61022002f006fdae611220b9
:1054300002f002fdede78224e4058025ed006561c0
:10544000022002f0f9fca56162b680bcb846f0bd4e
:020000040000fa
:1054500010b51c4a137801210b431370110001226f
:105460004b681a42fcd117490023cb61164b0b62e3
:105470008223db010b61154b10221a819a821a8458
:105480009a851a8744201a520c301a520c301a523c
:105490000c3008241c520c301a520c301a520c30aa
:1054a0001a520c301a520c301a520c3006341c525c
:1054b0000c301a520b780e3a13430b704b681a4299
:1054c000fcd110bd0028004002000001002a00208d
:020000040000fa
:1054d00010b5194b06225a60fef7fefefff750fa90
:1054e00003f06ef801f09afd00f0cdfafff7cafc68
:1054f00003f05ff8fff7acff01f028fb002100206c
:1055000000f0fcfa0d4ce0600d4801f0e7fe206071
:105510000c49002000f08ef960600b49002002f079
:10552000bbfda0600949002000f096fb206102f05d
:105530006bff00f0a3fc10bd00400041042e0020d2
:105540008486000054860000fc850000f085000081
:020000040000fa
:1055500070b5050002f03cfe4523ec5c64b2002c03
:1055600011dd2e00243603e0013c64b2002c0ad089
:105570006b6a002b07d03000fef7fefc0028f3d04a
:1055800003f048f8f0e74523ff22ea5402f02cfe2e
:1055900002f01efe4423ec5c64b2002c11dd2e00f0
:1055a000103603e0013c64b2002c0ad02b69002bba
:1055b00007d03000fef7e0fc0028f3d003f02af813
:0e55c000f0e74423ff22ea5402f00efe70bd15
:020000040000fa
:1055ce0070b504000d00002833d00021030c2a0c06
:1055de00002b29d193b2002b18d100292cd12800f1
:1055ee00604300260300493324d84830fff7f9fb07
:1055fe00061e1fd00300002d00d048333360f46325
:10560e00356401213000fff75cf913e0131c261cf2
:10561e00a0b2aab24243b6b29bb27343120c9b180d
:10562e001b0cdad00121d8e792b2002afad12e1c37
:0c563e00eee70026300070bd0026fbe700
:020000040000fa
:02564a007047a7
:020000040000fa
:10564c0070b5041e31d0836c013b8364c16a426c1b
:10565c0091422cd00020002b00d070bd251d2800bd
:10566c0002f0dafa626ce26205239b1aa361114b19
:10567c001b689a4201d90f4b1a600f4993009b1873
:10568c009b00cb185b68a3609a68e26055609d60d4
:10569c00e06a83001a189200521862611a1892007c
:1056ac005358013353500120d7e70020d5e7002091
:0c56bc00d3e7c046302f0020202c002037
:020000040000fa
:1056c80070b50d0088b0202204000021684602f061
:1056d800b5fe2a78101e19d06b78002b18d01f2021
:1056e80001212b78002b15d00e005a0903409e404b
:1056f80033006e469200b658013533436e46b350b8
:10570800efe7013001789142fbd0001b08b070bd73
:105718002000f7e723001f2501200ae006005109b1
:105728002a40964032006e4689007158114203d0d3
:0c57380001331a78002af1d1181be7e7b2
:020000040000fa
:1057440010b588b003780d2b01d008b010bd174bed
:105754001b787f2b16d8154b5b78db06f5d502f04a
:10576400d9fa040020220021684602f069fe694645
:10577400200001f0f7fb6b469b78072b0cd002f05e
:1057840010ffe2e70a4b586901f030fbfef79efa7e
:105794000d20fff757fdd8e706480222694602f0bc
:1057a40045fe0720fff74efdcfe7c046e02e002060
:0857b400c42d0020df2d0020b0
:020000040000fa
:1057bc0030b583b0194c0023a360fa20800002f0ae
:1057cc0075fb0100164a012500950023002002f00c
:1057dc007dfbe06001f02cf8c82002f067fb0100b3
:1057ec00104a00950023002002f070fb206101f0ac
:1057fc001ff800226276a276e27622778223db05fe
:10580c001b6a1b0f6b4001321340237601f05af8d0
:10581c000120fff713fd03b030bdc046c42d00209e
:08582c00197e00006960000014
:020000040000fa
:1058340070b50d1e2ad000282bd1174802f0a6f906
:10584400012802d00120404225e02b68134c6360fc
:1058540080229200e2600422aa56227200200021d3
:10586400a061e16100226262202162540c481b683d
:105874000021984763685b6898470a48a022002182
:1058840002f0defd02232370200004e001204042e8
:1058940001e00120404270bd902d0020682d0020c1
