:108000000C945D400C94762D0C94782D0C94662D78
:108010000C94682D0C943A4B0C94694B0C947E4B49
:10802000189500000C943C2E0C943E2E0C94442E7B
:108030000C94462E0C94502E0C944C2E0C944E2ED8
:10804000189500000C94EB4B189500000C94602ED2
:108050000C94622E0C946C2D0C946E2D0C94702D3F
:108060000C94C04B0C94EE2D0C94BA2D0C94F02D66
:108070000C94BC2D0C94082E0C94E22D0C94E42D41
:108080000C94E62D0C94E82D0C94EA2D0C94EC2D18
:10809000189500001895000018950000189500002C
:1080A000189500000C94D14B048804E08004E0058E
:1080B0002B0099FA052B052D8000F0E0E0E0D0E0E0
:1080C000C0E0B0E0A0E090E080E070E060E050E070
:1080D00040E030E020E010E000E0FE2EEE2EDE2E4C
:1080E000CE2EBE2EAE2E9E2E8E2E7E2E6E2E5E2E70
:1080F0004E2E3E2E2E2E1E2E0E2E11241FBECFEFE4
:10810000D5E0DEBFCDBFE8EAF0E840E817C0B591A2
:10811000A59135912591059107FD0CC0959185910B
:10812000EF01F92FE82F05900D92A217B307D9F7A9
:10813000FE0104C01D92A217B307E1F7E93BF40763
:0E81400031F70E94224A0C94DA4CF894FFCFDB
:10814E000E94D24982B18E7F82B981B38F7781BB73
:10815E0081B3806281BB88E28093700085B38260B8
:10816E0085BB8CE38093710081B3806881BB81E411
:10817E000E94AA4880E180939904089589EE92E0C6
:10818E000E94D749882309F446C081B38F7781BBFB
:10819E0082B1816082B98091EB02873049F134C09F
:1081AE00FC013296EE0FFF1FE857FB4F2081318105
:1081BE002F3F3F4FD9F4E9EEF2E0508141813091EB
:1081CE00890432953F703F5F3295307F242F2F7098
:1081DE00232B50932B0520932C05FC013296EE0F8A
:1081EE00FF1FE857FB4F5083218307C0019602C043
:1081FE0080E090E0853091059CF282E40E94AA48CE
:10820E0081E180939904089580E40E94AA488FE04A
:10821E00809399040895A99B0BC081B38F7781BB7E
:10822E0082B1816082B980EA0E94AA480E948C4C79
:10823E000895CF93DF93CDB7DEB727970FB6F89497
:10824E00DEBF0FBECDBF8091E002837001F5CE017F
:10825E00019627E0FC0111922A95E9F72CE02B8379
:10826E0020912B0530912C053E832D8325E52F8300
:10827E0020918804309189043A83298367E00E9413
:10828E00A14983E40E94AA4882E18093990427962B
:10829E000FB6F894DEBF0FBECDBFDF91CF9108951C
:1082AE008091E0028370E9F40E94D24982B18E7F00
:1082BE0082B981B38F7781BB81B3806281BB88E243
:1082CE008093700085B3826085BB8CE380937100D0
:1082DE0081B3806881BB84E40E94AA4883E18093C5
:1082EE009904089589EE92E00E94D749882361F19E
:1082FE0081B38F7781BB82B1816082B98091EB02AD
:10830E008D30E1F42091ED023091EE0280912B053B
:10831E0090912C052817390759F48091EC0281FFB2
:10832E0007C085E40E94AA4884E1809399040895C9
:10833E0080EA0E94AA480E948C4C089580EA0E940E
:10834E00AA480E948C4C0895A99B0BC081B38F77CD
:10835E0081BB82B1816082B980EA0E94AA480E94E4
:10836E008C4C0895CF93DF9300D000D0CDB7DEB7FD
:10837E008091E002837079F519821A821B821C8229
:10838E0088E08B838C8182608C83809188049091AD
:10839E0089049A83898364E0CE0101960E94A149E3
:1083AE0086E40E94AA4885E18093990482B18E7F6B
:1083BE0082B981B38F7781BB81B3806281BB8AE042
:1083CE008093700085B3826085BB8CE180937100D1
:1083DE0081B3806881BB0F900F900F900F90DF914B
:1083EE00CF910895CF93DF9300D000D000D0CDB7BA
:1083FE00DEB78091E002837021F5A99B22C081B384
:10840E008F7781BB82B1816082B9CE01019626E061
:10841E00FC0111922A95E9F72BE02B832BEB3AEA1C
:10842E003E832D8320918804309189043A832983D9
:10843E0066E00E94A14987E40E94AA4886E18093E3
:10844E00990426960FB6F894DEBF0FBECDBFDF910E
:10845E00CF9108958091E0028370E9F40E94D24991
:10846E0082B18E7F82B981B38F7781BB81B38062F7
:10847E0081BB84E08093700085B3826085BB8CE302
:10848E008093710081B3806881BB88E40E94AA4802
:10849E0087E1809399040895CF93DF9389EE92E05C
:1084AE000E94D749882391F181B38F7781BB82B126
:1084BE00816082B98091EB02853009F580912B05A0
:1084CE0090912C050E94114BC0E0D0E00EC0CE0161
:1084DE000296880F991FFC01E857FB4F608171814E
:1084EE0080589D4F0E94ED4C2196C530D1057CF3EE
:1084FE0089E40E94AA4888E18093990414C080E917
:10850E000E94AA4881E2809399040DC0A99B0BC0DA
:10851E0081B38F7781BB82B1816082B980EA0E947C
:10852E00AA480E948C4CDF91CF910895CF93DF9390
:10853E00CDB7DEB72B970FB6F894DEBF0FBECDBF0B
:10854E008091E002837011F5CE0101962BE0FC01C3
:10855E0011922A95E9F724E02B8325E02D832091B3
:10856E008804309189043987288740912B055091D2
:10857E002C055B874A873A8329836BE00E94A149C9
:10858E008AE40E94AA4889E1809399042B960FB63B
:10859E00F894DEBF0FBECDBFDF91CF9108958091CD
:1085AE00E0028370E9F40E94D24982B18E7F82B9D3
:1085BE0081B38F7781BB81B3806281BB84E080936E
:1085CE00700085B3826085BB8CE38093710081B3AC
:1085DE00806881BB8BE40E94AA488AE1809399044B
:1085EE00089589EE92E00E94D7498823B9F081B3AD
:1085FE008F7781BB82B1816082B98091EB02853029
:10860E0031F480EA0E94AA480E948C4C089580E9B9
:10861E000E94AA4881E2809399040895A99B0BC0F9
:10862E0081B38F7781BB82B1816082B980EA0E946B
:10863E00AA480E948C4C08958091990489508231E9
:10864E0040F4419906C080E50E94AA488BE18093D0
:10865E0099040895CF93DF936FEF7FEF80E892E058
:10866E000E94ED4C6FEF7FEF82E892E00E94ED4C9E
:10867E00C0E0D0E00BC0CE010296880F991F6FEFBD
:10868E007FEF80589D4F0E94ED4C2196C530D1054D
:10869E0094F3419BFECF80EA0E94AA480E948C4C24
:0686AE00DF91CF91089559
:1086B400CF9382B1877F82B984B38F7784BB01C0A3
:1086C4000000A799FDCF84B3806284BB84B3846027
:1086D40084BB88E18093860087E088BBC2E0C093B6
:1086E400880080919604909197048F55984F9093A9
:1086F40083008093820084B3806884BB10929F04BB
:1087040010929E0410929D0410929C0410929B045B
:1087140010929A0481E20E94AA48C0939904CF91CE
:1087240008951F93CF93DF9300D000D0CDB7DEB769
:1087340019821A821B821C8213E01B838091880495
:10874400909189049A83898364E0CE0101960E9402
:10875400A14982E20E94AA48109399040F900F90B5
:108764000F900F90DF91CF911F9108958091E002B7
:10877400837051F480E288B90E94D24983E20E9456
:10878400AA4884E080939904089589EE92E00E94B7
:10879400D749882309F454C080E288B98091EB0258
:1087A400853009F046C02091E9023091EA028091B7
:1087B4008A0490918B0428173907A1F5E9EEF2E0B9
:1087C4008481958190939D0480939C0486819781F4
:1087D40090939B0480939A040E94DA4A8823D9F0E8
:1087E40084B38F7784BB01C00000A799FDCF80912B
:1087F40080009091810090939F0480939E0484B3A1
:10880400806884BB0E94D24984E20E94AA4885E021
:1088140080939904089587E20E94AA4888E080938F
:108824009904089582E20E94AA4883E080939904FF
:10883400089582E20E94AA4883E0809399040895EF
:108844008091980480FF22C081B38F7781BB82B16D
:10885400816082B982B18E7F82B981B38F7781BB07
:1088640081B3806281BB88EC8093700085B38260A1
:1088740085BB8CE18093710081B3806881BBA99B27
:10888400FECF80EA0E94AA480E948C4C089589EE8B
:1088940092E00E94D7498823E9F18091EB0283306A
:1088A40081F58091E9029091EA020E94F04A8130B8
:1088B400F9F484B38F7784BB01C00000A799FDCF7E
:1088C400809180009091810020919E0430919F04BA
:1088D400821B930B90939F0480939E0484B38068BF
:1088E40084BB85E20E94AA4886E080939904089597
:1088F4000E94D24984E20E94AA4885E080939904A8
:1089040008950E94D24984E20E94AA4885E0809397
:10891400990408958091980480FF22C081B38F77D1
:1089240081BB82B1816082B982B18E7F82B981B309
:108934008F7781BB81B3806281BB88EC80937000A8
:1089440085B3826085BB8CE18093710081B38068BC
:1089540081BBA99BFECF80EA0E94AA480E948C4C4E
:108964000895CF93DF93CDB7DEB728970FB6F89469
:10897400DEBF0FBECDBF8091E0028370E1F5FE0142
:10898400319688E0DF011D928A95E9F785E08B83B3
:1089940080918804909189049A83898380919C04AE
:1089A40090919D049E838D8320919A0430919B0421
:1089B40038872F8340919E0450919F04413551057F
:1089C40020F02A50310938872F834832510540F46A
:1089D4004E969E838D838F8198854E9698878F833C
:1089E40068E0CE0101960E94A14986E20E94AA484D
:1089F40087E08093990428960FB6F894DEBF0FBEE3
:108A0400CDBFDF91CF9108958091E002837099F4F6
:108A14000E94DA4A882349F00E94D24984E20E94E3
:108A2400AA4885E080939904089587E20E94AA48A1
:108A340088E080939904089580919A0490919B040E
:108A4400009701F1E8E8F4E066857785680F791FFF
:108A5400778766878EE892E00E94ED4C84B38F7727
:108A640084BB01C00000A799FDCF8091960490912A
:108A740097048F55984F909383008093820084B31A
:108A8400806884BB80919C0490919D04892BB1F0F3
:108A940084B38F7784BB01C00000A799FDCFE2E8BF
:108AA400F0E02081318180919C0490919D04820F9B
:108AB400931F9183808384B3806884BBEDE6F0E0E8
:108AC40080818260808386B5826086BD0E949C4CD2
:108AD400419907C080E80E94AA488EE180939904D6
:108AE40008958091980480FFF1CF80EA0E94AA48FB
:068AF4000E948C4C089565
:108AFA002F923F920F931F93CF93DF93CFEBD4E044
:108B0A0009951124DF91CF911F910F913F902F90DA
:108B1A0008952F923F920F931F93CF93DF93CFEB3A
:108B2A00D4E00995802F1124DF91CF911F910F91E5
:108B3A003F902F9008952F923F920F931F93CF93B8
:108B4A00DF93CFEBD4E00995802F912F1124DF9189
:108B5A00CF911F910F913F902F9008952F923F929E
:108B6A000F931F93CF93DF93CFEBD4E0082F099590
:108B7A001124DF91CF911F910F913F902F9008956B
:108B8A002F923F920F931F93CF93DF93CFEBD4E0B3
:108B9A00082F162F09951124DF91CF911F910F915C
:108BAA003F902F9008952F923F920F931F93CF9348
:108BBA00DF93CFEBD4E0082F162F242F0995802FAF
:108BCA001124DF91CF911F910F913F902F9008951B
:108BDA002F923F920F931F93CF93DF93CFEBD4E063
:108BEA00082F192F0995802F1124DF91CF911F91FA
:108BFA000F913F902F9008952F923F920F931F93BA
:108C0A00CF93DF93CFEBD4E0082F192F262F372FDE
:108C1A0009951124DF91CF911F910F913F902F90C9
:108C2A0008952F923F920F931F93CF93DF93CFEB29
:108C3A00D4E0082F192F09951124DF91CF911F91A4
:108C4A000F913F902F9008952F923F920F931F9369
:108C5A00CF93DF93CFEBD4E0082F192F262F372F8E
:108C6A0009951124DF91CF911F910F913F902F9079
:108C7A0008952F923F920F931F93CF93DF93CFEBD9
:108C8A00D4E0082F192F262F372F0995802F11246A
:108C9A00DF91CF911F910F913F902F9008952F92BE
:108CAA003F920F931F93CF93DF93CFEBD4E0082F1C
:108CBA00192F262F372F09951124DF91CF911F9154
:108CCA000F913F902F9008952F923F920F931F93E9
:108CDA00CF93DF93CFEBD4E0062F622F202F072FFD
:108CEA00732F302F082F192F09951124DF91CF9157
:108CFA001F910F913F902F9008952F923F920F93BB
:108D0A001F93CF93DF93CFEBD4E0082F192F262F91
:108D1A0009951124DF91CF911F910F913F902F90C8
:108D2A0008952F923F920F931F93CF93DF93CFEB28
:108D3A00D4E0082F192F262F372F09951124DF91F8
:108D4A00CF911F910F913F902F9008952F923F92AC
:108D5A000F931F93CF93DF93CFEBD4E0082F162FF7
:108D6A000995802F912F1124DF91CF911F910F9197
:108D7A003F902F9008952F923F920F931F93CF9376
:108D8A00DF93CFEBD4E0082F162F0995802F912F70
:108D9A001124DF91CF911F910F913F902F90089549
:108DAA002F923F920F931F93CF93DF93CFEBD4E091
:108DBA00082F192F262F372F0995802F912F622FD1
:108DCA00732F1124DF91CF911F910F913F902F9014
:108DDA0008952F923F920F931F93CF93DF93CFEB78
:108DEA00D4E0082F192F262F372F0995802F912F7E
:108DFA00622F732F1124DF91CF911F910F913F9012
:108E0A002F9008952F923F920F931F93CF93DF9342
:108E1A00CFEBD4E0082F192F262F372F0995802F53
:108E2A00912F622F732F1124DF91CF911F910F91F0
:108E3A003F902F9008952F923F920F931F93CF93B5
:108E4A00DF93CFEBD4E0082F192F262F0995802F17
:108E5A00912F1124DF91CF911F910F913F902F9065
:028E6A00089569
:108E6C008F929F92AF92BF920F931F93CF93DF93EA
:108E7C0000D000D00F92CDB7DEB78091E0028370A6
:108E8C0009F03FC0109289041092880400E010E0B1
:108E9C0015C00F2EF8E88F2EF4E09F2EF02DF40164
:108EAC00A080B180C801805F9B4F0E94E54CA80E4A
:108EBC00B11CF401B182A0820F5F1F4F0C30110561
:108ECC0044F3E8E8F4E0208131813F703183208362
:108EDC00CE01019645E0FC0111924A95E9F747E075
:108EEC004B834C8148604C834AEA4D833A832983F7
:108EFC0065E00E94A14981E30E94AA488AE0809320
:108F0C0099040F900F900F900F900F90DF91CF91CD
:108F1C001F910F91BF90AF909F908F90089580916B
:108F2C00E0028370E9F40E94D24982B18E7F82B94B
:108F3C0081B38F7781BB81B3806281BB84E08093E6
:108F4C00700085B3826085BB8CE38093710081B324
:108F5C00806881BB82E30E94AA488BE080939904CD
:108F6C00089589EE92E00E94D749882309F447C0FE
:108F7C0081B38F7781BB82B1816082B98091EB0222
:108F8C008830B1F5E9EEF2E080812181E8E8F4E087
:108F9C0082832383822F82958F7090E001962081AB
:108FAC0031813F70982F88279295907F822B932B3D
:108FBC00918380830E94D24982B18E7F82B981B322
:108FCC008F7781BB81B3806281BB88E28093700014
:108FDC0085B3826085BB8CE38093710081B380681C
:108FEC0081BB83E30E94AA488CE080939904089586
:108FFC0081E30E94AA488AE0809399040895A99B72
:10900C000BC081B38F7781BB82B1816082B980EA5A
:10901C000E94AA480E948C4C089589EE92E00E940E
:10902C00D7498823B9F081B38F7781BB82B1816036
:10903C0082B98091EB028B3039F484E30E94AA4808
:10904C008DE080939904089580EA0E94AA480E94BA
:10905C008C4C0895A99B0BC081B38F7781BB82B1D7
:10906C00816082B980EA0E94AA480E948C4C0895C3
:10907C00CF93DF9300D000D0CDB7DEB78091E00264
:10908C008370B9F419821A821B821C8285E08B834F
:10909C0080918804909189049A83898364E0CE013D
:1090AC0001960E94A14985E30E94AA488EE0809314
:1090BC0099040F900F900F900F90DF91CF9108951E
:1090CC00CF93DF938091E0028370D9F5C8E8D4E0A8
:1090DC006881798180E892E00E94ED4C6A817B8105
:1090EC0082E892E00E94ED4C66EF7FEF8EE892E012
:1090FC000E94ED4C82B1877F82B984B38F7784BB99
:10910C0001C00000A799FDCF84B3806284BB84B3F7
:10911C00846084BB88E18093860087E088BB1092D2
:10912C00880080ED97E0909383008093820084B355
:10913C00806884BBC19BFECF80EA0E94AA480E9433
:08914C008C4CDF91CF910895D6
:10915400F8949AB194609AB920E030E003C000001A
:109164002F5F3F4F22303105D4F39AB19B7F9AB9D8
:1091740020E030E003C000002F5F3F4F243631056C
:10918400D4F39AB194609AB920E030E003C00000AF
:109194002F5F3F4F22303105D4F347E050E03DC00C
:1091A400282F30E0042E02C0359527950A94E2F763
:1091B40020FF19C09AB19B7F9AB920E030E003C028
:1091C40000002F5F3F4F22303105D4F39AB19460F1
:1091D4009AB920E030E003C000002F5F3F4F2231F6
:1091E4003105D4F318C09AB19B7F9AB920E030E0DE
:1091F40003C000002F5F3F4F22313105D4F39AB1F1
:1092040094609AB920E030E003C000002F5F3F4F24
:1092140022303105D4F34150510955230CF0C0CF0D
:109224008AB18B7F8AB980E090E002C00000019689
:1092340082309105DCF38AB184608AB97894089508
:10924400F8942AB124602AB920E030E003C0000079
:109254002F5F3F4F22303105D4F32AB12B7F2AB937
:1092640020E030E003C000002F5F3F4F243631057B
:10927400D4F32AB124602AB920E030E003C000000E
:109284002F5F3F4F22303105D4F34FE050E03FC011
:1092940021E030E0042E02C0220F331F0A94E2F7CB
:1092A40028233923232BC9F02AB12B7F2AB920E0A4
:1092B40030E003C000002F5F3F4F22303105D4F36C
:1092C4002AB124602AB920E030E003C000002F5FF7
:1092D4003F4F22313105D4F318C02AB12B7F2AB96C
:1092E40020E030E003C000002F5F3F4F2231310502
:1092F400D4F32AB124602AB920E030E003C000008E
:109304002F5F3F4F22303105D4F34150510955238B
:109314000CF0BECF8AB18B7F8AB980E090E002C0A6
:109324000000019682309105DCF38AB184608AB929
:109334007894089560E480E00E94884C0895BF9278
:109344000F931F93CF93DF93CDB7DEB727970FB655
:10935400F894DEBF0FBECDBF8C01B62E87E0E4E2E9
:10936400F5E0DE01119601900D928A95E1F767E030
:10937400CE0101960E94844C6B2DC8010E94804C42
:1093840060E481E20E94884C27960FB6F894DEBF11
:109394000FBECDBFDF91CF911F910F91BF90089564
:1093A40060E482E20E94884C08950F931F93CF9348
:1093B4009C019091E002937009F590910E00892F21
:1093C400807496FF1DC090910E00892F807295FFC6
:1093D40017C090910E00892F807194FF11C08901EC
:1093E40087B18F7B87B90E94744CC82F882341F0C2
:1093F400682FC8010E947C4C8C2F02C080E000C002
:08940400CF911F910F91089513
:10940C00089584E088B980E090E002C000000196E5
:10941C008A309105DCF384E088B9089580E90E94D4
:10942C00AA4881E280939904089580E90E94AA4891
:10943C0081E280939904089581E08EB982E08EB91F
:10944C000E94A44C0E94984C88E00E94944CEFEF30
:10945C00FFE48491813219F08FEF0E94B44C40E00C
:10946C0050E066E279E08FE099E00E94A04C8823FE
:10947C0019F080E00E94B44C8AB184608AB980E80B
:10948C0092E00E94FA67C8E8D4E09983888382E866
:10949C0092E00E94FA679B838A8300E010E00FC081
:1094AC00E8012296CC0FDD1FCE0180589D4F0E9403
:1094BC00FA67C857DB4F998388830F5F1F4F0530BE
:1094CC00110574F38EE892E00E94FA67909397046A
:1094DC00809396048AB180628AB980910D0080FFD6
:1094EC0016C08091880490918904019639F480E328
:1094FC000E94AA4889E08093990406C080E40E94E7
:10950C00AA488FE080939904419BFECF12C08091B2
:10951C00880490918904019631F480E10E94AA4854
:10952C001092990406C080E20E94AA4881E08093C0
:10953C009904A8959AB384E089278ABB0E94234397
:10954C00E0919904F0E0EE0FFF1FE052FB4F019009
:10955C00F081E02D09950E94AC4C20919C02309139
:10956C009D02213080E8380768F080919B02E82F3B
:10957C00F0E0EE0FFF1FE20FF31F0590F491E02DCA
:10958C00099502C00E94B04C809199049FEF980FEE
:10959C00973078F292EE980F933058F289508231CE
:1095AC0040F20E949C4CC5CF20E030E080E00EC021
:1095BC00F9013296EE0FFF1FE857FB4F40815181A6
:1095CC004F3F5F4F31F08F5F2F5F3F4F253031059D
:1095DC007CF3089520E030E060E018C0F901329689
:1095EC00EE0FFF1FE857FB4F408151814817590779
:1095FC0059F4F9013296EE0FFF1FE857FB4F4FEF6E
:10960C005FEF5183408361E02F5F3F4F2530310581
:10961C002CF3862F089520E030E017C0F901329624
:10962C00EE0FFF1FE857FB4F408151814F3F5F4FBB
:10963C0051F4F9013296EE0FFF1FE857FB4F91835F
:10964C00808381E008952F5F3F4F2530310534F33F
:04965C0080E008950D
:109660001F920F920FB60F9211240F900FBE0F9002
:109670001F9018951F920F920FB60F9211242F93DF
:109680003F934F935F936F937F938F939F93AF938A
:10969000BF93EF93FF938AB58F7E8ABD80910F00B1
:1096A000886080930F008091100283FD0E94B84C67
:1096B000FF91EF91BF91AF919F918F917F916F91AA
:1096C0005F914F913F912F910F900FBE0F901F9080
:1096D00018951F920F920FB60F9211248F93EF934C
:1096E000FF93EBECF0E080818E7F8083FF91EF9120
:1096F0008F910F900FBE0F901F9018951F920F9291
:109700000FB60F9211242F933F934F935F936F9354
:109710007F938F939F93AF93BF93EF93FF93EBEC64
:10972000F0E080818D7F808380910F008061809345
:109730000F0080913B00826080933B00809110027B
:1097400084FD0E94B84C8091E0028370813039F42E
:10975000E0E0F3E082E1808311820E94A84CFF9157
:10976000EF91BF91AF919F918F917F916F915F9199
:109770004F913F912F910F900FBE0F901F90189512
:109780001F920F920FB60F9211248F9380913B007E
:10979000816180933B008F910F900FBE0F901F90BF
:1097A00018951F920F920FB60F9211248F93EF937B
:1097B000FF9380913B00806180933B00EFEDF2E0EE
:1097C000808580628087FF91EF918F910F900FBE0F
:1097D0000F901F9018951F920F920FB60F921124A1
:1097E0008F93EF93FF93E8E9F4E0808181608083B9
:1097F000FF91EF918F910F900FBE0F901F901895D2
:10980000CF93DF9300D000D0CDB7DEB719821A8294
:109810001B821C8286E08B8380918804909189044E
:109820009A83898364E0CE0101960E94A14981E870
:109830000E94AA488FE1809399040F900F900F9097
:109840000F90DF91CF9108958091E0028370E9F449
:1098500082B18E7F82B981B38F7781BB81B3806201
:1098600081BB84E68093700085B3826085BB8CE108
:109870008093710081B3806881BB0E94D24982E8E5
:109880000E94AA4880E280939904089589EE92E0AC
:109890000E94D7498823B9F081B38F7781BB82B109
:1098A000816082B98091EB02853031F480E10E94C1
:1098B000AA4810929904089580E80E94AA488EE16F
:1098C000809399040895A99B0EC081B38F7781BBC3
:1098D00082B1816082B90E949C4980E80E94AA48B6
:0898E0008EE1809399040895C4
:1098E800E0E0FDE20C948E45E6E0FDE20C9469466A
:1098F800EAE0FDE20C948246E4E1FDE20C94824643
:10990800E6E1FDE20C948246E8E1FDE20C94C545EF
:10991800E2E2FDE20C947D45E8E2FDE20C947D452F
:10992800EAE7FDE20C94B345ECE7FDE20C947D45D3
:10993800E0E8FDE20C947D45E0EAFDE20C943E4649
:10994800E4EAFDE20C947D45E8EBFDE20C947D45EC
:10995800EAE0FEE20C947D45EEE0FEE20C947D45E3
:10996800E0E2FEE20C94B345E6E3FEE20C947D45AA
:10997800DC01CB01FC01F999FECF06C0F2BDE1BDC7
:10998800F89A319600B40D9241505040B8F70895B6
:10999800262FF999FECF1FBA92BD81BD20BD0FB603
:0C99A800F894FA9AF99A0FBE01960895FF
:1099B400EC010E94FB4C0E94FA4CCE010E94FC4C2C
:0699C400CE010E94F84CE8
:1099CA00F999FECF92BD81BDF89A992780B508957D
:0A99DA000E94CC4C272F0C94CD4CBA
:0899E400089508950895089507
:0499EC000C94004097
:0499F0000E94A540EC
:0299F4000895D4
:0299F6000895D2
:0299F8000895D0
:1099FA00064A5A439343B843C7434944B3440645C6
:109A0A001E4536479547B74713483E486648A7401C
:109A1A00C540204157417941B941F9413142534248
:109A2A009D42D642F84231431B4A144A004C244C08
:049A3A00464C074A45
:079A3E0030555555555556F2
:03CFF0000220001C
:0CCFF400A8E1B0E042E050E00C94BE4C1C
:040000030000800079
:00000001FF
