:020000040000fa
:10000000f07f0020e56b0000a75b0000035d0000af
:1000100000000000000000000000000000000000e0
:10002000000000000000000000000000418000000f
:100030000000000000000000916d0000557d0000f0
:10004000e35d0000e35d000061790000bd60000039
:10005000e35d0000e35d0000e35d0000e35d0000a0
:10006000e35d0000e35d000099330000e35d000004
:10007000e35d0000a5630000e35d0000e35d0000b8
:10008000e35d0000e35d0000e35d0000e35d000070
:10009000e35d0000e35d0000e35d0000e35d000060
:1000a000e35d0000e35d0000e35d0000e35d000050
:0c00b000e35d0000e35d0000e35d000084
:020000040000fa
:1000bc00f8b5c046f8bc08bc9e4670475d6a0000a7
:1000cc00f8b5c046f8bc08bc9e467047356a0000bf
:020000040000fa
:0800dc006c3e00000100000071
:020000040000fa
:1000e40043454e5452414c205625642e25642e25fa
:1000f400640d0a0053310000000000005332000078
:100104005333000053340000533500004300000013
:1001140055736167653a2053544152545f4c4541cd
:10012400524e203c432f53312e2e53353e0d0a00a0
:100134003a20436f6d6d616e64730000636f6d6d83
:10014400616e6473000000005b41737365727469cf
:100154006f6e5d20000000005359535f434d445fb0
:10016400414444475250206661696c7300000000aa
:100174000d0a2d2d2d2d2d2d2d2d2d2d2d2d2d2dee
:100184002d2d2d2d2d2d2d2d2d2d2d2d2d2d2d2d9b
:100194002d2d2d2d2d0000000d0a2d2043454e54ec
:1001a40052414c205625642e25642e2564000000ff
:1001b4000d0a2d2d2d2d2d2d2d2d2d2d2d2d2d2dae
:1001c4002d2d2d2d2d2d2d2d2d2d2d2d2d2d2d2d5b
:1001d4002d2d2d2d2d0d0a0056455253494f4e3fbe
:1001e400000000003a204765742056657273696ff9
:1001f4006e00000053544152545f4c4541524e002e
:100204003a205374617274204c6561726e204d6f94
:10021400646500005345545f414c41524d00000059
:100224003a205365742053656e736f7220416c617c
:10023400726d000043454e5452414c5f5245534544
:10024400540000003a205365742043656e74726153
:100254006c2052657365740053454e534f525f5280
:1002640045534554000000003a20536574205365fb
:100274006e736f7220526573657400005445535455
:10028400000000003a205374617274205465737442
:10029400000000000d0a5b52465f4153534552541f
:1002a4005d202573282e2e29203a20004c656e6788
:1002b40074682065786365656473206d6178696d21
:1002c400756d206f66203136206279746573000085
:1002d4000d0a5b4552524f525d2000000d0a00008a
:1002e4000d0a5b53534d5f4552524f525d2000003f
:1002f40044454255475f4552524f525f434f444530
:100304005f53595354454d5f4552524f525f4545d3
:1003140050524f4d5f4e4f545f56414c494400007c
:1003240044454255475f4552524f525f434f4445ff
:100334005f53455449444c454d4f44455f4d4953e3
:10034400535f53534d5244590000000044454255f5
:10035400475f4552524f525f434f44455f534554a4
:1003640049444c454d4f44455f54494d45525f4cbb
:100374004f434b454400000044454255475f4552b6
:10038400524f525f434f44455f52585f5354415458
:1003940045535441525453534d5f54494d45525f54
:1003a4004c4f434b4544000044454255475f45523a
:1003b400524f525f434f44455f52585f5354415428
:1003c40045574149543453534d53544154455f4761
:1003d400455454454c454752414d5f54494d454f52
:1003e4005554000044454255475f4552524f525fb1
:1003f400434f44455f54585f53544154455354410b
:10040400525453534d5f54494d45525f4c4f434be7
:100414004544000044454255475f4552524f525fa0
:10042400434f44455f54585f5354415445574149e1
:10043400543453534d5244595f54494d454f5554c8
:100444000000000044454255475f4552524f525ff9
:10045400434f44455f504f4c4c5f535441544553b4
:100464005441525453534d5f54494d45525f4c4f80
:10047400434b45440000000044454255475f455204
:10048400524f525f434f44455f504f4c4c5f53545f
:10049400415445574149543453534d5354415445a1
:1004a4005f47455454454c454752414d5f54494d6f
:1004b400454f55540000000044454255475f45529e
:1004c400524f525f434f44455f414e5454554e453d
:1004d4005f5354415445535441525453534d5f5404
:1004e400494d45525f4c4f434b45440044454255aa
:1004f400475f4552524f525f434f44455f414e540c
:1005040054554e455f53544154455741495434530f
:10051400534d5244595f54494d454f5554000000c2
:1005240044454255475f4552524f525f434f4445fd
:100534005f56434f43414c5f5354415445535441d8
:10054400525453534d5f54494d45525f4c4f434ba6
:100554004544000044454255475f4552524f525f5f
:10056400434f44455f56434f43414c5f53544154ba
:1005740045574149543453534d5244595f54494d9e
:10058400454f55540000000044454255475f4552cd
:10059400524f525f434f44455f53485554444f575d
:1005a4004e5452585f54494d45525f4c4f434b454e
:1005b4004400000044454255475f4552524f525f44
:1005c400434f44455f53485554444f574e54525833
:1005d4005f54494d454f5554000000004445425571
:1005e400475f4552524f525f434f44455f504f4c13
:1005f4004c494e475f54494d4552315f4c4f434b34
:100604004544000044454255475f4552524f525fae
:10061400434f44455f494e56414c49445f4f504d0a
:100624005f535749544348494e4700004445425597
:10063400475f4552524f525f434f44455f494e56c0
:10064400414c49445f4f504d5f4d4f44455f4455c5
:1006540052494e475f54554e455f414e445f4348af
:1006640045434b0044454255475f4552524f525f04
:10067400434f44455f415643434c4f575f445552a3
:10068400494e475f5458000044454255475f455220
:10069400524f525f434f44455f5345525649434579
:1006a4005f494e49545f4641494c5552450000004c
:1006b40044454255475f4552524f525f434f44456c
:1006c4005f444649464f5f4f5645525f554e444539
:1006d400525f464c4f57000044454255475f4552d0
:1006e400524f525f434f44455f534649464f5f4f15
:1006f4005645525f554e4445525f464c4f57000095
:1007040044454255475f4552524f525f434f44451b
:100714005f525353495f53544154455354415254c7
:1007240053534d5f54494d45525f4c4f434b4544e1
:100734000000000044454255475f4552524f525f06
:10074400434f44455f5352435f4652435f43414cda
:1007540049425f4641494c454400000044454255e6
:10076400475f4552524f525f434f44455f4745549c
:10077400525854454c454752414d5f53534d5f4584
:1007840052524f520000000044454255475f4552c3
:10079400524f525f434f44455f54454d504d454180
:1007a400535f5354415445535441525453534d5f32
:1007b40054494d45525f4c4f434b454400000000a3
:1007c40044454255475f4552524f525f434f44455b
:1007d4005f54454d504d4541535f53544154455723
:1007e4004149543453534d5244595f54494d454f34
:1007f4005554000044454255475f4552524f525f9d
:10080400434f44455f415643434c4f575f54494d12
:10081400454f55540000000044454255475f45523a
:10082400524f525f434f44455f5355424348414ef4
:100834005f5354415445535441525453534d5f43b1
:10084400454e544552465245515f54494d45525fb9
:100854004c4f434b4544000044454255475f455285
:10086400524f525f434f44455f5355424348414eb4
:100874005f5354415445535441525453534d5f4c68
:100884004f574552465245515f54494d45525f4c6e
:100894004f434b454400000044454255475f455291
:1008a400524f525f434f44455f5355424348414e74
:1008b4005f5354415445535441525453534d5f551f
:1008c40050504552465245515f54494d45525f4c34
:1008d4004f434b454400000044454255475f455251
:1008e400524f525f434f44455f5355424348414e34
:1008f4005f5354415445535441525453534d5f43f1
:10090400454e544552465245515f54494d454f5505
:100914005400000044454255475f4552524f525fd0
:10092400434f44455f5355424348414e5f535441fe
:100934005445535441525453534d5f4c4f574552b1
:10094400465245515f54494d454f555400000000ef
:1009540044454255475f4552524f525f434f4445c9
:100964005f5355424348414e5f5354415445535499
:1009740041525453534d5f55505045524652455180
:100984005f54494d454f55540000000030555555ae
:100994005555560044454255475f53534d5f4552a4
:1009a400524f525f434f44455f504c4c5f454e415c
:1009b400424c450044454255475f53534d5f4552b1
:1009c400524f525f434f44455f504c4c5f4c4f4332
:1009d4004b00000044454255475f53534d5f455219
:1009e400524f525f434f44455f52585f4453505fe8
:1009f400454e41424c45000044454255475f5353e0
:100a04004d5f4552524f525f434f44455f52585fca
:100a14004453505f44495341424c45004445425578
:100a2400475f53534d5f4552524f525f434f4445c6
:100a34005f54585f4453505f454e41424c4500005b
:100a440044454255475f53534d5f4552524f525fa1
:100a5400434f44455f54585f4453505f44495341a6
:100a6400424c450044454255475f53534d5f455200
:100a7400524f525f434f44455f52585f544f5f5447
:100a84005800000044454255475f53534d5f45525b
:100a9400524f525f434f44455f54585f544f5f5227
:100aa4005800000044454255475f53534d5f45523b
:100ab400524f525f434f44455f4745545f54454c42
:100ac400454752414d00000044454255475f53534a
:100ad4004d5f4552524f525f434f44455f53454e1d
:100ae400445f54454c454752414d000044454255ee
:100af400475f53534d5f4552524f525f434f4445f6
:100b04005f534855545f444f574e00004445425587
:100b1400475f53534d5f4552524f525f434f4445d5
:100b24005f56434f5f54554e494e47004445425526
:100b3400475f53534d5f4552524f525f434f4445b5
:100b44005f414e545f54554e494e4700556e6b6e8f
:100b54006f776e204170706c69636174696f6e2089
:100b640053746174650000003e3e3e2000000000a6
:100b7400203c3c3c0d0a000053544154455f494e0f
:100b84004954000053544154455f574149545f52fe
:100b9400465f5359535f5244590000005354415423
:100ba400455f49444c45000053544154455f4b450f
:100bb40045505f414c495645000000005354415490
:100bc400455f4c4541524e0053544154455f4c459a
:100bd40041524e5f52585f504152545f524551004a
:100be40053544154455f4c4541524e5f54585f50f5
:100bf4004152545f5245515f52455350000000002a
:100c040053544154455f4c4541524e5f54585f50d4
:100c14004152545f5245515f524553505f434f4dcb
:100c2400504c45544500000053544154455f4c45d5
:100c340041524e5f54585f434f4e5f5645525f5387
:100c44005441540053544154455f4c4541524e5f06
:100c540054585f434f4e5f5645525f535441545f5f
:100c6400434f4d504c4554450000000053544154eb
:100c7400455f4c4541524e5f52585f41434b5f4d77
:100c84005347000053544154455f4c4541524e5f15
:100c9400504153530000000053544154455f4c45a8
:100ca40041524e5f4641494c0000000053544154a8
:100cb400455f434f4e4e454354494f4e5f56455250
:100cc400494649434154494f4e5f54585f434f4e40
:100cd4005f5645525f5245535000000053544154ef
:100ce400455f434f4e4e454354494f4e5f56455220
:100cf400494649434154494f4e5f54585f434f4e10
:100d04005f5645525f524553505f434f4d504c45db
:100d14005445000053544154455f55504441544593
:100d24005f54585f41434b0053544154455f555001
:100d3400444154455f54585f41434b5f434f4d50ca
:100d44004c4554450000000053544154455f4552fe
:100d5400524f52000d0a5359535f4552524f52009d
:100d640025303458000000003b5b253034582c25d6
:100d74003032585d000000002525253038583b25c9
:100d84007325250d0a000000414c41524d204f4e61
:100d94000d0a0000414c41524d204f46460d0a00b9
:100da4000d0a556e737570706f7274656420636f8d
:100db4006d6d616e640d0a000d0a544553540d0a9d
:100dc40000000000454d7631000000000d0a2d2d75
:100dd4002d2d2d2d2d20537570706f727465642028
:100de400636f6d6d616e642067726f757073202d13
:100df4002d2d2d2d2d0000000d0a202a2a2a200039
:100e0400202a2a2a000000000d0a2d2d2d2d2d2d1b
:100e14002d2d2d2d204275696c7420696e20636f11
:100e24006d6d616e6473202d2d2d2d2d2d2d2d2d89
:100e34002d0000000d0a556e6b6e6f776e20636f88
:100e44006d6d616e642067726f75702e20547279b7
:100e54002068656c700d0a00082008000800000076
:100e64000d0a3e001b5b2564430000001b5b2564e8
:100e7400440000000d0a202a2a2a2051756974743e
:100e8400696e672074686520436f6d6d616e6420c0
:100e940050726f636573736f722e20427965202ad6
:100ea4002a2a0d0a000000000d0a202a2a2a2053ab
:100eb400797374656d205265626f6f74202a2a2ad3
:100ec4000d0a000020092c004661696c65642074d9
:100ed4006f206372656174652074686520436f6e6a
:100ee400736f6c65204150490d0a0000202a2a2a9c
:100ef40020436f6d6d616e642050726f6365737310
:100f04006f723a20506c6561736520747970652046
:100f1400696e206120636f6d6d616e642a2a2a0deb
:100f24000a0000000a0d20546f6f206d616e792055
:100f3400617267756d656e74732e204d6178696d8d
:100f4400756d206172677320737570706f7274654c
:100f5400643a202564210d0a00000000202a2a2a70
:100f640020436f6d6d616e642050726f636573739f
:100f74006f723a20756e6b6e6f776e20636f6d6d56
:100f8400616e642e202a2a2a0d0a00003e00000009
:100f9400081b5b4b25731b5b25644400081b5b4be0
:100fa400000000001b5b4b25731b5b2564440000a1
:100fb40025731b5b25644400202a2a2a20436f6d75
:100fc4006d616e642050726f636573736f7220621b
:100fd40075666665722065786365656465642e2050
:100fe40052657472792e202a2a2a0d0a0000000004
:100ff40072657365740000003a205265736574204d
:10100400686f737400000000710000003a2071756d
:10101400697420636f6d6d616e642070726f6365b7
:1010240073736f720000000068656c70000000004c
:101034003a2068656c7000001b5b41001b5b42003a
:101044001b5b43001b5b44001b5b317e0000000004
:101054001b5b347e000000005359535f434d445fd3
:101064005441534b530000004150505f5461736b23
:101074007300000049444c4500000000546d722088
:04108400537663003c
:020000040000fa
:10108800f0b59db012930b6814900b934b681191b7
:1010980004938b680d930b691593cb6808931368b9
:1010a800546806930794069807990022002306f0cf
:1010b80032f800280dd10b9b5b073ed408230b9a0e
:1010c8001a400c920d9a09920b9a1a4213d01833af
:1010d8000ae080200006844606990a0007996144c0
:1010e8000b00069207932d23089a13700d9b013b62
:1010f800099301230c93079b06995b00c74a5b0879
:1011080000291cd193421ad1089a129b94460c9834
:10111800413bc3496044192b00d9c24907f02efb53
:10112800089807f02ff90b9b0200009308990d9b74
:10113800149804f047fc1db0f0bd2b23d4e793426c
:1011480002d80cd100290ad0089a129b94460c9810
:10115800413bb5496044192be0d9b449dee7002288
:1011680006980799002306f026fc0026b04f0028b1
:1011780000d120e100230393129807f0bbfac3b211
:101188001093049b002b00daebe1109b0a93672b6a
:1011980012d1049b002b01d10133049365230a93d8
:1011a800039b04331ddb039b049a934219da6623dd
:1011b8000a93039b002b14da049b013304930a9bc4
:1011c800662b0ed1039b002b03da00230026984fd1
:1011d8000393109b672b04d0039a049b94466344a3
:1011e8000493069a079b0e920f93002334003d0048
:1011f800139322000e980f992b0003f029f903f09e
:10120800e7f98022120694460e9b169017911893c0
:101218000f9b63441993189a199b0092019322001b
:101228002b0007f049fa80231b06cb18002229005f
:101238000e900f9320007f4b03f00af9139b0400d4
:1012480001331393139a049b0d009342d1d10022ca
:10125800794b01f01ffd0e9a0f9b04000d0005f05d
:101268003bff002800d0d5e00e9a0f9b20002900f4
:1012780006f0a1fb002806d01698179906f0f2fa96
:10128800c00700d4c6e00698079922002b0001f099
:1012980059fa002206900791664b3000390001f098
:1012a800f9fc069a079b0e900f9105f0b1fd0028f6
:1012b80000d1c7e0039b013303930a9b662b00d040
:1012c800c2e0049b039d0133049300263700049b6e
:1012d8000c9ceb1a1693169b9d4200d0dee0002f63
:1012e80000d11de10026089b1f190a9b3e70652b43
:1012f8002dd1159b5d1e089b5e55039bb34202daf8
:101308005b4203930136039b002b00d011e1159b30
:10131800eb1a0333002b00dd0be12b236a1e002e92
:1013280000d002330899023d8b54129b413b192b84
:1013380001d845230a93089b59190a9b0b70ac42a4
:1013480002da380007f01afa099b023b09930323d3
:101358000b9a1340022b00d0e2e6099b002b00dc1d
:10136800dee6089807f00ef80c9b834200dcf1e0fb
:101378001800089b30219c46099a604407f014f92c
:1013880000230d93cce626002f00039b0133039323
:101398000022284b3000390001f07cfc04000d00cd
:1013a80002000b000698079905f0b5fe0028ead060
:1013b8000024012523e00390eae7204b039a9a4290
:1013c80012da002c10d10698079900221c4b01f064
:1013d80061fc002206900791194b3000390001f09a
:1013e80059fc2c0006000f0030003900114b002278
:1013f80003f02ef806000f00039b013b0393320015
:10140800069807993b0005f086fe0028d5d1b3e67b
:101418000623c2e60024002535e7c0460000f07f19
:10142800888000008c80000090800000948000007c
:101438000000f03f0000244000001440d4feffffed
:10144800000050430e960f970a9d653d6b1e9d4107
:10145800039b6d421d4038e7002f0ad1002d08daa2
:101468002e23089a139901345354099b0137013be1
:101478000993321923009446302102e0089ad15486
:1014880001336345fad1099a3419961b089a30300a
:10149800d054731e01340026099320e0119b139445
:1014a8001b69053ba34200d819e70e9a0f9b0698c3
:1014b800079902f0cdff03f08bf80490059106f030
:1014c800d1f9092800dd092010230b9a13400343a2
:1014d800c2d1109b672bbfd1002dbdda0136802207
:1014e8000e980f9912069446069b013d1a93079b86
:1014f80063441b931a9a1b9b00920193049a059bc1
:1015080007f0daf880231b06cb18069007930e988d
:101518000f990022174b02f09bff0e900f91dae60d
:101528000b9bdb0600d4dde62e23089a1355013405
:10153800d8e603980a2103f003fb089b3031013dec
:10154800595503980a2103f0b1fa099b0390013b0e
:101558000993d8e6089b09991a5c5b181a54013854
:1015680002e7109b672b00d152e70a9306230493e6
:0815780022e6c04600002440f9
:020000040000fa
:10158000f0b599b012930b68cf680a934b68169028
:101590000e938b680b930b69119313685468069331
:1015a0000794069807990022002305f0b8fd00284b
:1015b0000ed10a9b5b072ed408230a9a0a991a4077
:1015c00005920b9a194213d018333b7013000ce0ac
:1015d00080200006844606990a00079961440b00a2
:1015e000069207932d233b700b9b5a1e01230593f4
:1015f000079b06995b005b0800290ed1af48834228
:101600000bd1129b059a413bad4cae49b818192b32
:1016100011d921000fe02b23e5e7a848834202d827
:1016200018d1002916d0129b059a413ba64ca74918
:10163000b818192bedd807f0a5f8200006f0a6fe83
:101640000a9b0200009339000b9b169804f0bef928
:1016500019b0f0bd059b0598591c30233b54129bd3
:10166000413b0f930f987823192800d8203b059809
:101670007b540230931e0590099300220698079927
:10168000002306f09cf9002800d16de10023904c66
:10169000089302930394182310930e9b002b00dbf6
:1016a00010930026029c039d109b01331793069a0a
:1016b000079b0c920d930c980d9922002b0002f0c1
:1016c000cbfe02f089ff22002b001490159101f04f
:1016d000e5fa02000b000c980d9906f0f9ff7d4b1e
:1016e0000c900d9100222000290001f0d7fa0e9bea
:1016f00004000d000136002b07da0c980d9900222a
:10170000002306f05cf9002804d1179b9e42d2d139
:10171000109e01360022200029006f4b01f0befa16
:1017200004000d0002000b000c980d9905f0f7fc69
:10173000002800d01ee10c980d9922002b0006f025
:101740003ef9002806d01498159906f08ff8c007c6
:1017500000d40fe10698079922002b0000f0f6ff55
:1017600006900791079b069a5b005b08002a03d14d
:10177000524a934200d144e7119b059a053b1493ca
:10178000934200d83de100257342140016001793e0
:1017900010950c95029a039b0698079902f05cfe3f
:1017a00002f01aff1290139106f060f8031e00d0a9
:1017b000e3e00c9a002a00d1dfe00135029a039b96
:1017c0001298139901f06afa02000b000698079923
:1017d00006f07eff002206900791029803993d4b88
:1017e00001f05cfa0c9b179a013b029003910c9359
:1017f000934203d0149b26009c42cbd3109b002b1a
:101800001ad1002d00dcfde00e9b002b00dcf9e07e
:101810000a9bdb0700d5f5e02e2230213b191a7018
:101820002a19ba18597001339342fbd16419ed4358
:10183000099b0134eb18099300263b191e70029393
:10184000119b5d1e089b7e55b34202da5b420893f2
:101850000136089b002b00d0bce0119beb1a013332
:1018600000d1b7e02b236a1e002e00d00233bb54f8
:101870000f9a7023023d192a00d8203b79190b706a
:10188000ac4202da029806f07dff03230a9a134065
:10189000022b11d1099b9c1e002c0ddd380006f097
:1018a00075fd059b984200dba4e0f818220030216a
:1018b00006f07efe00230b933800bfe60000f07fa9
:1018c0008c800000888000009480000090800000e0
:1018d0000000f03f0000b03f00002040089b029451
:1018e000039501330893029a039b1000190000f03e
:1018f0002dff04000d0002000b000698079905f06b
:101900000efc0028ead0029a039b0698079905f07e
:1019100006fc002800d1bee60298039900223d4b48
:1019200001f0bcf90022002306f049f800280fd08e
:10193000029803990022384b01f0b0f9002202907e
:10194000039106980799344b01f0a8f90690079186
:10195000029803992f4b002201f0a0f9089b0290f6
:101960000391013b0893cee700232c4c089002938f
:101970000394b8e700240025ece6109a002a0ad167
:101980000c9a002a07d02e22ba55099a0134013a3e
:1019900009920122109230222e1901e03a550134a9
:1019a000b442fbd11800099a5730551b092b01dcb2
:1019b000303318000f9b192b06d820230343613bbb
:1019c000192b01d806f0a1fe6b1e741c0025b8551a
:1019d0000993f3e608980a2103f0b6f8013d303187
:1019e000089879550a2103f065f8099b0890013b96
:1019f00009932ee7099b3a5c023bfb181a54013805
:101a00004fe7059c0a9bdb0600d415e72e233b55c8
:101a1000013411e70000e03f000050430000f03fb8
:020000040000fa
:101a2000f0b5de4657464e464546e0b5bbb0b34b33
:101a30001b68002b16d1b24b1b68002b06d0b04b95
:101a40001c68b04b0493b04b9b46ace0af494a785e
:101a50000131af4803f008fd00280bd0a84b1c68eb
:101a6000002ceed101203bb0f0bcbb46b246a946eb
:101a7000a046f0bda74b1b78002befd106f064fe0b
:101a8000012803d8a34b01221a70e7e706f056fe9f
:101a9000a14904f0c3f8f5e7002363759f4e2700c2
:101aa0001237a8465d4631680322380006f050f828
:101ab000002800d1e8e10c36ae42f4d1ab46002359
:101ac00023826ce00d283dd00a283bd0082800d1a5
:101ad00075e17f2800d1a2e11b2800d1bfe1e169b7
:101ae00020239846a0444346cb1a4f2b00ddbfe18c
:101af000a2698b1a914200d1b6e14a1ed843091857
:101b000010785070013a9142fad1e269511ce161ba
:101b100000215170a269013281492000723006f023
:101b200087fc7123e75433682100713128009847fe
:101b3000a3691f70a3690133a361e26993422ed99f
:101b4000e3612ce020239846a044e369434556d046
:101b50007449336828009847e36900221a704346a5
:101b6000a361e3612032002108a806f021fd676827
:101b700005975122414610a806f00afe082208a93e
:101b800010a803f0d7fa039000283dd166492368d6
:101b90001b68380098473368049928009847a46860
:101ba000002c00d15ee726686568f3682800984736
:101bb0000028f4d033692800984707001021635e9d
:101bc000002b00d17ee7e218907401331db225820c
:101bd000032d00d160e7022de1dde668b3689d4288
:101be000ddd131682000123006f017fc002803d147
:101bf000736831002000984700232382cfe74b49c8
:101c0000336828009847cae7039b002b05dc484946
:101c100023681b6805989847bde7cc23e35822004a
:101c2000cc325768bb4236d079682200cc32516042
:101c30000b60cc23e35852685a60380008305122b8
:101c4000414606f0a5fdcc23e358002b2ad03b608b
:101c5000cc232200cc3252687a601760e258576079
:101c6000e750d4230022e250089b9946314f324b73
:101c70009a463968484606f0d0fb00281ad00c373f
:101c80005745f6d12d4b99460696aa4643460793eb
:101c9000a0464e465ae00023cc22a3502200cc326c
:101ca0005360cae7cc33e7502300cc335f603f601a
:101cb0007f60d6e7039b082b06dd214923685b681c
:101cc00008220598984766e77b6808aa03992000d0
:101cd000984760e74446069e5546194923685b6865
:101ce00008220598984756e74446069e55467b6865
:101cf00008aa0399200098474de7c046002f00200e
:101d0000f42e0020900f0000e46b0000042f002050
:101d1000e88400008a2f0020cc0e00009c6b00009d
:101d2000b40f0000e0020000f00e0000640e00009e
:101d3000600f0000307d0000547d0000c02a0020ac
:101d4000280f00001836524b9e4230d07468002c89
:101d5000f8d03569002d13d05122079925a806f037
:101d600017fd73690093512325aa41462000a84717
:101d7000002820d1082208a925a803f0dbf9039048
:101d8000039b082ba6dc77683368002bdad0089d0c
:101d90000024b1461e003968280006f03efb0028ea
:101da000a2d001340c37b442f5d14e46cae74446be
:101db000069e55462be74446069e5546ebe6a3692c
:101dc00022002032934200d8e9e6e06983421bd228
:101dd0005a1ec31a01385178117001328242fad169
:101de000a269013aa261e269013ae261002111703f
:101df000a269284927007137380006f019fb3368bb
:101e0000390028009847cae62349336828009847d4
:101e1000a369013ba361e369013be361bfe6e169bb
:101e2000a269914200d8bae6501c0b1a814205d033
:101e3000d0185178117001328242fad1e269013a28
:101e4000e26100211170a26914492700713738003e
:101e500006f0eefa33683900280098479fe61b2306
:101e6000a3741a3b23829ae672230022e25458e6b6
:101e70000b493368280098474346a361e361094949
:101e80003368280098478ae6ab464546e660a4e6f4
:101e9000802b0020940f0000a00f0000a80f00006e
:081ea000bc0f0000900f0000d0
:020000040000fa
:101ea800042e00201c00000000000000cf2e00209f
:101eb8000100000000000000a42d00200400000024
:101ec8000000000024300020900000000100000005
:101ed800000000007c0b000001000000880b0000df
:101ee80002000000a00b000003000000ac0b000083
:101ef80005000000c00b000006000000cc0b00002d
:101f080007000000e40b000008000000040c0000bb
:101f1800090000002c0c00000a000000480c00001a
:101f28000b000000700c00000c000000880c000082
:101f38000d0000009c0c00000e000000b00c00001a
:101f48000f000000e00c000010000000180d000059
:101f5800110000002c0d0000120000004c0d0000c4
:101f68008c2f0020980000000100000000000000f5
:101f7800dd58000001000000d14d00000200000003
:101f88003925000003000000394d0000040000005e
:101f98000d6b000005000000d57100000600000070
:101fa800ed56000007000000a964000008000000ca
:101fb800a1650000090000007d6100000a00000022
:101fc800216800000b0000006d6800000c00000094
:101fd800b96800000d0000005d8600000e000000da
:101fe800d96100000f000000556b000010000000d0
:101ff800f1650000110000000569000012000000f2
:10200800ef2d0000fc2e002004000000000000005e
:10201800c02e00200f00000000000000682d0020e6
:102028003c00000000000000842c00205400000048
:1020380000000000002a0020c0000000000000008e
:10204800d02e00200c00000000000000892f002086
:102058000100000000000000d82d00202c00000026
:102068000000000000240020000400000000000020
:10207800282d002040000000000000008a2f0020ca
:102088000100000000000000002f002004000000f4
:1020980000000000c02a0020c0000000000000006e
:1020a800042f00200800000000000000002000208d
:1020b8000004000000000000f42e002008000000ca
:1020c800000000000c2f00200400000000000000a9
:1020d8008b2f0020010000000000000000280020d5
:1020e8000002000000000000dc2e002018000000a4
:1020f80000000000102f0020080000000000000071
:10210800b8300020020000000100000001000000bb
:10211800802b0020a000000000000000a82d002057
:102128003000000000000000202e002014000000f5
:1021380000000000182f0020080000000000000028
:10214800b43000200400000001000000aaaaaaaad6
:10215800202f0020080000000000000000000020e0
:102168000020000000000000282f00202c000000a4
:1021780000000000342e00201400000000000000c1
:10218800542f00200400000000000000482e00200a
:102198002800000000000000582f00200800000060
:1021a80000000000702e0020280000000000000041
:1021b800202c00206400000000000000602f002098
:1021c8001800000000000000982e002028000000e1
:1021d80000000000882f002001000000000000001f
:1021e800782f00200800000000000000d82c0020f4
:1021f8005000000000000000802f002008000000b0
:10220800000000000000000000000000666666662e
:020000040000fa
:102218000023f0b51600b1b0039007910493079d11
:102228002b78002b00d1cfe001235b420c9310ab3d
:1022380000240e9380230b940d940f932b5d002b99
:1022480001d0252b30d1002c06d02900220003987c
:102258002d1905f0a4fc0795079b1a78252a00d0ac
:10226800a7e001331800002105930793243a037867
:102278002b2b25d02dd8202b25d0232b26d0002959
:1022880000d007902a2b2cd004f0a0fd01250d903a
:102298000020079a11000b780132303b092b64d9d2
:1022a80000282dd007912be00134c7e701230b99b3
:1022b8000b430b9311000130d9e702230b99f7e781
:1022c80004230b99f4e708230b99f1e710230b99e2
:1022d800eee72d2bead0302befd00029d4d0079091
:1022e800d2e7336801301a1d1b68079032600d93de
:1022f800002b05da01220b995b424a400b920d93a1
:102308000b9bda0702d5022293430b93079b1a789b
:102318002e2a0dd100270c975a785d1c07952a2a7a
:1023280025d10233079333681a1d1b6832600c935a
:1023380007a805f07dfa079d0700287806f0daf966
:10234800252800d1d5e06138172800d9dbe006f050
:1023580053f91fdab63ea6a6a6da3edadadada9c2e
:102368005e7fdadac6da4edada6e280092e72800fb
:1023780004f02cfd01210c902a0013780135303b24
:10238800092b03d9002fd3d00792d1e70f00f3e729
:102398003200390008a805f094f9002800d17be044
:1023a8006b1c079303982b7808aa0ba9fff7e4f88e
:1023b8002418049b1c19a34200dcb0e04f22594b9f
:1023c8001a6001235b420493049831b0f0bd3300d6
:1023d8000122390008a801f0fdfe00285cd0013573
:1023e800039808aa0ba9079502f0aaf9e0e73300b9
:1023f8000022390008a801f0edfe00284cd0013574
:10240800039808aa0ba9079503f0f4ffd0e7330057
:102418000022390008a801f0ddfe00283cd0013573
:10242800039808aa0ba9079503f0a0fcc0e733009e
:102438000022390008a801f0cdfe00282cd06b1c22
:1024480007932b78039808aa0ba901f094f9afe732
:1024580033000022f02108a801f0bcfe00281bd0a0
:10246800089b099a0135079513430cd12e4d280076
:1024780005f088ff290002000b9b00930d9b039831
:1024880003f0a0fa94e77823dce7049b39001a19d3
:1024980008a8330003f00dfb0135079589e73200e2
:1024a800390008a805f00df90028f5d06b1c079332
:1024b80003982b7808aa0ba9fef7e2fd78e7802f8e
:1024c800ead1336801351a1d1b68326008aa1370f7
:1024d8000123079503980ba904f076f968e7802f84
:1024e800dad132680135131d33601268002307956d
:1024f800f0e7802fd0d10b9b0135009301220b49c7
:102508000d9b0795bbe7059b0122079300235242c9
:102518000c9206490b930d9300930232afe7049493
:102528007de6c046842f0020808000008680000061
:020000040000fa
:10253800f0b5ce46474680b595b003780c2b00d948
:10254800e3e09b00754ad3589f4605f08dff0121b3
:10255800052002f077fe15b0c0bcb946b046f0bd04
:1025680005f082fff7e750220021684606f01cf8c4
:102578006b4b9a691202120c6a49684605f054ffbf
:10258800694d042700242e0003e001340335052c8f
:102598000fd063001b19995df3185a7812020a4389
:1025a800f3d0ab7861493800684405f03dff0a373d
:1025b800ebe75b4b9a68511c99605d496b460020bc
:1025c80003f028fbc7e75b4b5b78db06c3d505f058
:1025d8005ffc040020220021684605f0e5ff6946fb
:1025e800200004f0d5fd6b469b78032b10d00c2bf4
:1025f80073d0042b00d17de006f0a2f8032800d99f
:102608007de005f027ff0028a5d105f037ffa2e7f8
:10261800009804f0f9fd00285cd06b46da7892083f
:1026280001210a4083780124a343134383706b4636
:10263800db78194230d06b461c8800223a490e00dc
:10264800022399460ae0384b5700bf18db199d78da
:102658000227bd439d700132052a11d053009b18f3
:102668005f5ccb185b781b023b43f4d0a342ead0f3
:1026780053009b18f3189f784d462f439f70eae745
:102688008378db07d80f264a3a215054002b16d0fe
:102698002949002005f0b2f8214b3a229b5c002b17
:1026a80012d08223db05802212025a611c4b6a4633
:1026b80012889a860121032002f0c4fd4be71f49c6
:1026c800002005f09bf8e7e78223db058022120251
:1026d8009a61ebe705f0d2fe3de7114b6a46928816
:1026e800da866a4691793822995401210e2002f03f
:1026f800a9fd30e70121102002f0a4fd2be706f028
:1027080019f80f4905f07af87be705f0a3fe0028d1
:1027180000d020e705f0b2fe1de7c046687700004c
:10272800682d0020640d0000c02e00206c0d0000f4
:102738007c0d0000a42d00208c0d0000980d0000d9
:04274800a40d0000dc
:020000040000fa
:10274c00f0b40125ed070f005f405ad48b4200d145
:10275c00824205d950404240504059404b4059406c
:10276c004e18760ddf187f0d3bd0741c640529d0f4
:10277c00f41b352c26d80e0ddb022b43db0ac902c9
:10278c002943c9121700202c1ed2e741e2405740c2
:10279c00e3415a40a340e3405a4000248018594179
:1027ac000ad3b21c520521d0c207012f6241170077
:1027bc004008cb0718434908013636054208af419b
:1027cc0060417141f0bc7047203c06d01f00e741ce
:1027dc00e3405f400024012a6741c0186141ebd3fc
:1027ec00dfe7002eeed129400020ebe70136310562
:1027fc000020e7e7e742e5d10020c143090dc904f9
:10280c00e0e76b400e00871a9e4104d26e40c01b5d
:10281c00b141d21973414e18df18ac0ae642e9d225
:10282c00760d7f0d31d0f41b362ccbd8b4460e0d63
:10283c00db022b43db0ac9022943c90a012c32d81b
:10284c0004d1d4075208df073a435b08ef0a64420d
:10285c00904199411ed0002239424dd1241940415a
:10286c0049410124394204d101340018494139420b
:10287c00fad06246a24204d9361b013e36058919ac
:10288c00a0e7f10ac90700209ce736429ad1002044
:10289c00002197e70200224394d0b842ded2010017
:1028ac0020002024e3d1202c13dd203ce241170032
:1028bc00a240e2405740e3415a40a340e3405a4013
:1028cc00012fbf410137174300227c4298419141af
:1028dc000ce01700e741e2405740e3415a40a34067
:1028ec00e3405a407c429041994100220f0303d2ad
:1028fc00013e241940414941013e36054708ac418f
:08290c0050417141f0bc70471d
:020000040000fa
:10291400f0b583b000900f0001939400200002f002
:10292400e9fa061e59d0542002f0e4fa051e51d0eb
:102934005422002105f03afe2e632200a521300026
:1029440005f034fe043c2e6b361907229643002f03
:102954000cd000242a0034323b5d1355002b02d0e6
:102964000134102cf8d143230022ea54089f042f89
:1029740000d90427ef626f642c1d200005f02effa0
:102984002800183005f02aff2d610523db1bab61fd
:102994006d62019a0099300002f02ef92860099bbb
:1029a400002b00d01d6005f0bffc394a13680133c9
:1029b4001360384b1b68002b13d0374b1b68002b5c
:1029c40015d1344b1b68da6aeb6a9a420fd8314b43
:1029d4001d600ce0300003f03afd0120404203b0da
:1029e400f0bd2c4b1d602a4b1b68012b31d02b4aa8
:1029f400136801331360ea6a294b1b689a4201d9b0
:102a0400274b1a60274993009b189b00cb185b68df
:102a1400ab609a68ea6054609c60e86a83001a18a4
:102a2400920052186a611a18920053580133535095
:102a340005f086fc184b1b680120002bcfd0154bea
:102a44001b68da6aeb6a9a42c9d205f061fc01207c
:102a5400c5e7144e37006437300005f0d1fc143656
:102a6400be42f9d1104f380005f0cafc0f4e3000b9
:102a740005f0c6fc0e4805f0c3fc0e4805f0c0fc8a
:102a84000d4805f0bdfc0d4b1f600d4b1e60aee7fd
:102a9400502f0020602f0020442f0020342f0020ce
:102aa400482f0020202c0020842e0020702e00208f
:102ab4005c2e0020482e0020342e00205c2f0020a5
:042ac400582f002067
:020000040000fa
:102ac800f0b5de4657464e464546e0b583b0584b0e
:102ad8001b68002b00d09de0564b1c68621c0092be
:102ae8001a60002a11d0544b1b6800229346009aa2
:102af80093421dd8514b1b681b68002b12d04f4db9
:102b08004f4fbc464f4901955ce04c4a11684e4b0b
:102b18001868106019604d4a13680133136004f097
:102b2800fdffe0e700239b46434b012252421a6017
:102b3800474b1b68434ad96a8b005b189b009b581c
:102b4800012b01d901239b46424b1b68002b67d000
:102b580001239b4664e0384b1a60e9e7dc6854605f
:102b680041e000229a622268013a2260dc6a3a68ef
:102b7800944201d962461460a200121992008a1880
:102b880052689a609468dc6060609060d86a8200dd
:102b98001418a400a046884444465c611418a40094
:102ba8006258013262502a4a12689046da6a4346ed
:102bb800db6a9a4201d901239b46019b1b681b686b
:102bc800002bb1d02b68db68db685a68009890420c
:102bd800c1d35a699c68d868a0609c684460181d75
:102be80054688442bad000245c611468013c1460c3
:102bf8009c6a002cbad0da6992461a6a5646b260c4
:102c0800de6956601a00183266689642a9d11a6ab7
:102c18006260a6e7104a13680133136000239b46dd
:102c2800584603b0f0bcbb46b246a946a046f0bd24
:102c3800282f00204c2f0020302f00205c2f002050
:102c4800482f0020202c0020582f0020382f00204b
:0c2c5800602f00203c2f0020402f0020a7
:020000040000fa
:102c640008d1002806d1f54204d801d3002a01d1a5
:102c74006d0d09d10020c143090dc904f0bdf9d17e
:102c84001242f7d1640df5d00020c143490549082b
:102c9400a6e000206146f0bdf0b50127ff070e0055
:102ca4005e403e40b446be0a4c18dd18f442d7d20a
:102cb400f542e4d2640decd06d0dead06419c9027a
:102cc4003943460dc0023143db023b43db0a10b4f7
:102cd4008e4685b297b26f43140c6c433e0ca41914
:102ce400260c2404bfb227439cb26c43a419190ccc
:102cf4006943250ca4b249190d04090c6419000c8c
:102d040095b245433e0c76193743bfb2360c150cc9
:102d14004543ad19a6b2240cad192e0437432e0c2d
:102d240036199db24543ad19acb22e0c89191d0c50
:102d340045436d182e04290c3443704680b295b275
:102d440045433e0c76193743bfb2360c150c454348
:102d5400ad19a6b2ad19240c2e0437432e0c361926
:102d64009db24543ad19acb22e0c89191d0c4543d7
:102d74006d182e043443290c75462d0c90b268430b
:102d84003e0c80190604bfb23e43070ca0b23f18a4
:102d9400120c6a43d019020c80b2240ca4189ab203
:102da4006a43121914042043120c89181b0c6b4338
:102db400c91810bc01273d05294203d1b619404169
:102dc4004941013cff077d0d013d641b0bdb6d0098
:102dd400ac4209da240500254208be41684161413c
:0a2de40066463143f0bd54e74ee7a8
:020000040000fa
:022dee0070472c
:020000040000fa
:102df000810000009809000082000000b80900006e
:102e000083000000d809000084000000fc090000d5
:102e100085000000200a000086000000440a00002f
:102e200087000000680a000088000000880a00008f
:102e300089000000a80a00008a000000cc0a0000f7
:102e40008b000000f00a00008c000000100b000056
:102e50008d000000300b000000000000f4020000b4
:102e600001000000240300000200000050030000e5
:102e7000030000007c03000004000000ac0300001d
:102e800005000000e8030000060000001804000030
:102e90000700000048040000080000007c04000057
:102ea00009000000bc0400000a000000f00400005b
:102eb0000b000000240500000c0000005805000075
:102ec0000d0000008c0500000e000000b805000099
:102ed0000f000000e00500001000000008060000e0
:102ee000110000003006000012000000680600001b
:102ef000130000008c06000014000000b40600005f
:102f000015000000dc0600001600000004070000a9
:102f100017000000380700001800000060070000dc
:102f2000190000008c0700001a000000c407000010
:102f30001b000000f80700001c0000001c08000037
:102f40001d0000005c0800001e0000009c0800003e
:102f50001f000000dc08000020000000180900002d
:082f60002100000054090000eb
:020000040000fa
:102f680070b50500594c247fe0b2002c00d0a7e0d2
:102f780000294ad0002d48d0554c666807243440b3
:102f8800012c5ed051480560426000244461846190
:102f980004614e488160002a58d04c4ad3604b4a9d
:102fa800012111774a4a127e520705d5484a042062
:102fb800916a117e0142fbd1454a518b042001439d
:102fc8005183117e7c300143117640498a68c96873
:102fd800914203d93d48c168891a01613c49496851
:102fe800490743d139498969914233d2374a11682f
:102ff800087837498862916901319161002b5ad06c
:10300800334b04229a7501205be0002b59d0002a2b
:1030180057d02f4c666807243440012c0cd02b481d
:10302800056042600024446184610461002db0d1d0
:10303800264900208860aee7002943d1dc07eed599
:103048003fe0cc073dd4002be9d0f7e71f4a002129
:10305800d160a4e71d4a1269002acfd01c4aff217b
:1030680091621a490a69013a0a61c7e7174a9168e1
:1030780049089160116949081161d1684908d1600e
:10308800916892698a420ad210490a681288d20560
:10309800d20d0f4882628a6901328a61aee70b4a13
:1030a8001269002aaad00a4a0a49916207490a699c
:1030b800013a0a61a2e7064b01229a75012000e055
:1030c800002070bdcc07b9d5fbe7c046d82d00203d
:0830d80000080042ff010000a6
:020000040000fa
:1030e000f0b5ce46474680b585b000f09cff504b0a
:1030f0009946504b984600254b461b681e68002e8b
:103100005cd0db681e6805f0d3fa01a803f0eef886
:103110000400019a002a0bd1b0425dd300f090f870
:103120002100300004f00af95fe005f0f3f85ce0fc
:1031300000f086f859e02422a35c01210b43a3543c
:10314000029ba16959180200200003f06ffd0028be
:103150004fd02423e35c5a0707d401229343233240
:10316000a354236a2000984743e00299a369c91831
:103170003a00200004f07cfdf3e72422a35c012147
:103180008b43a35435e02422a35c01210b43a354b9
:103190000299a161411803000200200003f046fdde
:1031a00027e02423e35c9a0704d5012293432332ca
:1031b000a3541ee0200003f04cf91ae005f078fa61
:1031c00001a803f093f80400019b002bb0d1434603
:1031d0001b681a6853425a41311b174b186803f099
:1031e0007ffa00f02df800289fd0019502950395f5
:1031f000114e30682a0001a900f059fc002800d1c6
:103200007ae7019b002bf4db039c002cf1d063696f
:10321000002b02d0201d04f0c5fd684603f066f8bf
:103220000700019b092be4d89900044b5b589f468b
:10323000742f0020702f00206c2f0020987c00003d
:020000040000fa
:10324000f8b5de4657464e464546e0b505f06ef801
:10325000494b1a68013a1a601b680024002b7bd185
:10326000464b1b68002b77d0454b1b68002b5cd06e
:10327000434e00239b46434dac46434b9a46340095
:1032800008e0196a516012e0d96851601ee02368b5
:10329000002b48d0f368db689a6ad869196a8160a4
:1032a000d86948601900183150688842e9d05946f9
:1032b00099621168013911605a699868d96881600a
:1032c000986848601f1d5168b942ddd05946596160
:1032d000116801391160d86a2a68904201d96246a2
:1032e00010602a498200121892008a1852689a6067
:1032f0009068d86047609760df6aba00d019800094
:103300008046884440465861d019800042580132b6
:1033100042501f4a1168da6acb6a9a42b7d9012330
:1033200052461360b3e704f0fdfb1a4b1c68002cf7
:103330000ed0154e012502e0013c002c05d0fff710
:10334000c3fb0028f8d03560f6e7124b00221a6064
:103350000d4b1c68002c08d104f0f4ff2000f0bcd9
:10336000bb46b246a946a046f8bd094b1b6804f00f
:10337000d1ff0124f0e7c046282f0020502f002065
:103380005c2e0020482f00203c2f0020202c002005
:08339000602f0020402f0020f7
:020000040000fa
:1033980070b5504b586a504b9b7d002b54d04e490a
:1033a8004c68072214404b4b5a699d699e680b7ef6
:1033b8005b0757d5896a474bdb68934252d9002c83
:1033c80043d1444b5b6899540132434b1b7edb0766
:1033d80016d5414b012119753e4b9b68ab4256d916
:1033e8003c4b1b68595d3c4b99620135394b1b6955
:1033f800002b01d1b54262d0364bdb68934262d0d4
:10340800344b5a619d61344b1b7e9b0715d5334b5a
:103418001b78002b18d02f4bdb68934211d12d4b12
:1034280000221a772c4907240c752c490a701b6a4c
:10343800002b09d0274b1b6a9847284b1b78002b79
:1034480002d0254b02229a7570bd224b5b6854004e
:10345800e1520132204b1b7edb07d1d51e4b0121e7
:10346800197508e01c4b1b7edb07c9d51a4b0121d7
:103478001975002cb0d0174b9b68ab4213d9154b6c
:103488001b686900c95a144b99620135aee7114ba4
:103498001b69002baad0104bff2199620d490b69bb
:1034a800013b0b61a2e70b4b1b69002b9ed00a4b1b
:1034b8000b49996207490b69013b0b6196e7074b7a
:1034c800012119709ce7044b012199750331197585
:1034d80096e7c046d82d002000080042892f00201a
:0434e800ffff0000e2
:020000040000fa
:1034ec00f0b5c64600b5040017004568012903d0a5
:1034fc00464e474b984651e00022444e454f18e04b
:10350c0023681b68390028009847b16823681b683a
:10351c0028009847f16823681b68280098473e49a3
:10352c0023681b682800984701221836384b9e42a6
:10353c000ad07368002bf8d0002ae1d137492368f0
:10354c001b6828009847dbe7354923681b6828006f
:10355c009847344e2f4b98462f4f23681b68414693
:10356c0028009847316823681b6828009847b16881
:10357c0023681b682800984723681b6839002800bb
:10358c0098470c36284b9e42e7d1284923681b6884
:10359c002800984731e01836464531d07368002b27
:1035ac00f9d07968b06804f032ff0028f3d177685d
:1035bc00336800229046002b1ad0164923681b68ea
:1035cc0028009847396823681b6828009847b96811
:1035dc0023681b68280098470f4923681b6828003c
:1035ec00984701239c46e0440c3733684345e4d8a4
:1035fc000e4923681b682800984780bcb846f0bd6c
:10360c000b4923681b6828009847f6e7c02a00205e
:10361c00802b0020fc0d0000040e0000d00d0000db
:10362c000c0e0000307d0000547d0000e002000014
:04363c00380e000044
:020000040000fa
:10364000f0b5c64600b584b0040001910023984649
:1036500000274425002645e0013ba3632368002b97
:103660000bd02369002b0cd104f06cfe012398468b
:10367000404604b080bcb846f0bd04f071ffa060c5
:10368000efe72000103000f0cffc0028ecd004f071
:1036900041fee9e704f056fe00239846e8e702a859
:1036a00004f068fe28e0665530e04523e65432e039
:1036b00004f03cfea06801f0a7f9804604f042fe49
:1036c00039e0200001f0d2fffff7bafd09e0200049
:1036d00001f0ccfffff7b4fd200004f037ff002815
:1036e00038d1012704f022fea36b002bb4d1019b3b
:1036f000002bcfd0002fd2d004f024fe04f0d8ff4e
:1037000004f014fe635d5bb20133ccd04523e35c6f
:103710005bb20133c9d004f015fe01a902a802f082
:10372000b7fd0028d3d1200004f010ff0028c8d036
:103730002368002bbcd001992000243004f084fdc4
:10374000200001f093fffff77bfd0028c9d104f0b2
:10375000e1fdc6e74346002b00d189e704f0e6fd12
:10376000616a002903d0236b1b680521c91aa06870
:0e37700001f0f4fd04f0e6fd0023984678e732
:020000040000fa
:10377e00f0b58fb00c934b680d0008938b68160054
:10378e000993cb680f680393089b0b90002b43dbc8
:10379e0002239f4310233a001a400d92099a049275
:1037ae001f4206d033687268134302d0099b023b56
:1037be00049308233b400a935a1e9341049a2c69a2
:1037ce00d31a04933368039a06937368013c0793e4
:1037de0000231355049b0593012c20dc0d9b002b1d
:1037ee0050d10a9b002b03d02023039a013c135582
:1037fe002a69039b013a19190b98099b121b009712
:10380e0002f0ddf80b9b5b68db0503d56b68984215
:10381e0000da18000fb0f0bd01230893bae7069b3b
:10382e00079a13430ad1049a089b9b1a059a9b1870
:10383e00002b03dc002ad1ddbb07cfd50f23069a60
:10384e00013c134018005730092b01dc30331800af
:10385e000c9b413b192b06d820230343613b192bac
:10386e0001d804f04bff039b1855059b013b0593b4
:10387e00079b1a07069b1b091a43079b06921b09f7
:10388e000793a9e70cce1343abd0039b0c9a1b19dd
:0e389e00013b1a703023039a023c1355a1e738
:020000040000fa
:1038ac00f0b5de4657464e464546e0b583b001902e
:1038bc008c4600296dd005000123374f374a9146bd
:1038cc009346160092460de040003549009c0c547e
:1038dc00013000240c5451468a605a1c0235634551
:1038ec0047d213005a1e9046796807220a40012ad3
:1038fc0017d0b068f468421c31698a4289410a4089
:10390c00944237d001990139cc5c0094796888468f
:10391c000721444621400129d6d02149009c0c5452
:10392c00d9e74a469068d468421c494609698a42dc
:10393c0089410a4094421dd0697809022c782143b0
:10394c0000917c68a046072441460c40012c06d00f
:10395c0069460978124c215459468a60bde74000eb
:10396c00694609780e4c215401300099090a2154fa
:10397c00f2e7984604f0f2fb002802d0064b012235
:10398c009a75404603b0f0bcbb46b246a946a04669
:10399c00f0bd8846eee7c04600140042282d0020fa
:0439ac0000240020d3
:020000040000fa
:1039b000f0b5ce4600b584b00400009101921e001f
:1039c0000025442730e032000099200002f060f921
:1039d000636a002b08d100280fd104f0b3fc01204a
:1039e00004b080bcb946f0bd2000243000f01cfbc0
:1039f0000028f2d004f08efcefe704f08bfcece73b
:103a000004f0a0fc0020ebe702a804f0b3fc18e0ef
:103a10000023e3551fe00022e25421e0200001f0e2
:103a200025fefff70dfc012504f080fca26be36b83
:103a30009a42c8d3022ec6d0019b002be0d0002da5
:103a4000e2d004f07ffc04f033fe04f06ffce15d93
:103a500049b20131dcd04523e05c40b20130dad01c
:103a600004f070fc01a902a802f012fc002817d192
:103a700004f05cfca36b9946e56b04f063fca9457c
:103a8000ccd101992000103004f0defb200001f0c1
:103a9000edfdfff7d5fb0028c5d104f03bfcc2e7e4
:0e3aa000200001f0e3fdfff7cbfb002098e7cc
:020000040000fa
:103aae00f0b5c64600b584b004000091019200271f
:103abe0044260023984638e00099200004f07df952
:103ace006b1ea3632369002b06d104f034fc012086
:103ade0004b080bcb846f0bd2000103000f09dfa56
:103aee000028f2d004f00ffcefe704f024fc0020d5
:103afe00eee702a804f037fc21e04346a35528e088
:103b0e0045234246e25429e0200001f0a8fdfff7cc
:103b1e0090fb09e0200001f0a2fdfff78afb2000d8
:103b2e0004f00dfd002835d1012704f0f8fba56b3c
:103b3e00002dc1d1019b002bd7d0002fd9d004f07e
:103b4e00fafb04f0aefd04f0eafba35d5bb20133b9
:103b5e00d3d04523e35c5bb20133d1d004f0ebfb51
:103b6e0001a902a802f08dfb0028d3d1200004f099
:103b7e00e6fc0028c8d001992000243004f05dfb3b
:103b8e00200001f06cfdfff754fb0028ccd104f0af
:083b9e00bafbc9e700209be718
:020000040000fa
:023ba600704766
:020000040000fa
:103ba800f8b5de4657464e464546e0b5354d364be8
:103bb8002f001e00354a01239b46324b9846b246d9
:103bc8001e0016e0580030498c46095c8946ff21e2
:103bd8008c4349460c4301306146085c0002e4b25c
:103be8000443013319e0ff2323401385337d002b61
:103bf80021d1137e584603423ed0a868eb6898420c
:103c080037d05068072108400128dbd05046c05cf7
:103c1800f8318c430443a4b20133386983428041ac
:103c280003404046c360536807210b40012bdad19b
:103c3800164b1c85dae7564604f048fc114b1b6806
:103c4800002bb7d00f4b59681b7f002b08d00d4baa
:103c58009b699842aed30b4b1b6803209847a9e792
:103c6800084b9b699842a5d1064b1b6803209847cf
:103c7800a0e7064b01221a75f0bcbb46b246a9461e
:103c8800a046f8bd282d0020002400200014004282
:020000040000fa
:103c980070b5364b5b681a8835498a4207d080214f
:103ca8004900595a3248814201d08a4205d02f4be7
:103cb8005868010000232d4c16e08021585a824292
:103cc80050d04031595a8a424cd040229b5a98428f
:103cd80048d0994246d0012004f04af9e7e7013379
:103ce8009bb24031082b05d00a88012af7d8a218c0
:103cf8001372f4e71d4b012252425a8103881d4a70
:103d0800944663445a4253414022825a6244514283
:103d18004a41524213408022825a624451424a41e7
:103d280052421340c022815a114a914214d0421c77
:103d3800ff3280239b009c46604401210c4c138871
:103d48001b1b5d426b415b42194040328242f6d1f7
:103d58000122002903d170bd002be8d00022034bbb
:103d68005a81f8e7002004f003f9a0e7842c00202a
:083d7800ffff00000100ffff46
:020000040000fa
:103d800010b5e0b03249882252001ba804f006fcae
:103d90003049682201a804f001fcc0216a4689006c
:103da000022001f01ffb6b46187822221ba904f0a9
:103db00040f8041e0bd004f0c7fc032824d804f0fc
:103dc000c3fc032826d804f0bffc032828d86b4680
:103dd00058780d2201a904f02cf8041e0bd004f031
:103de000b3fc032822d804f0affc032824d804f045
:103df000abfc032826d86b461b881b0a1b026a46ad
:103e00001078184360b010bd04f098fc124903f01c
:103e1000f9fcd4e704f092fc210003f0f3fcd2e7b4
:103e200004f08cfc0d4903f0edfcd0e704f086fcb7
:103e30000b4903f0e7fcd6e704f080fc210003f017
:103e4000e1fcd4e704f07afc044903f0dbfcd2e7a0
:103e5000582e0000f02d0000d4020000e002000007
:043e6000e402000078
:020000040000fa
:103e6400f8b5ce46474680b5334d2f00a846a9463f
:103e74005be04246126a002a42d0716a336a01202a
:103e84009847b36a0133326b93429241134037e04f
:103e94004a46926a5200e0b2284988540132240a00
:103ea4008c543ce004f06cf9234b1b6a002b3cd08f
:103eb400214b596a3c229b5c002b08d01e4b9b6b08
:103ec400984232d31c4b1b6a002098472de01a4bb2
:103ed4009b6b984229d1184b1b6a0020984724e019
:103ee400174b1b7e5b0722d5154b1c8da4b2ab6a06
:103ef40001332a6b934292411340fa6a9a42b8d032
:103f04000d4ad26a9a42ebd00d4a516807220a4000
:103f1400012abdd0084a926ae4b208498c54064a80
:103f240093623423d35c002bbcd1034ed8e7c0bcce
:103f3400b946b046f8bdc046282d00200026002012
:043f44000014004223
:020000040000fa
:103f4800f0b506000f0015001c0085b08b4263d841
:103f580001d1824260d82100280004f043fa3900d8
:103f68000090300004f03efa009b21001b1a1a0052
:103f78002800039304f02afa00900191b94245d829
:103f880001d1b04242d8009b019c01200021039a34
:103f9800f61aa74104f01afa04000d00039b002b3f
:103fa8002bd0019b009adb0750081843019b590846
:103fb800039b9c46b9422cd801d1b04229d8320083
:103fc8003b00121a8b41012692185b410027b61854
:103fd8005f4101235b429c446346002bead13000d9
:103fe8003900039a04f0e6f9039aa4197d41060002
:103ff8000f0004f0ebf9241a8d410a9b002b01d025
:104008001e605f602000290005b0f0bd0024002577
:0e401800c4e7b6197f41dce700240025ede780
:020000040000fa
:024026007047e1
:020000040000fa
:1040280010b5c368db689a6ad869196a8160d8696b
:104038004860180018305168814240d000219962c8
:10404800116801391160274a1268002a3dd15a695e
:104058009868d9688160986848601c1d5168a142b9
:1040680030d000215961116801391160d96a1e4a9e
:104078001268914201d91c4a11601c488a005218e2
:104088009200821852689a609168d9604c60946076
:10409800dc6aa200111989000918596111198900ef
:1040a8000a5801320a50124a1168da6acb6a0020ab
:1040b8009a4203d90f4b01221a60013010bd196ac8
:1040c8005160bbe7d9685160cbe70b4a5168d961a9
:1040d8008c681c62606088609a62116801311160a6
:1040e800e1e7c046282f0020482f0020202c002080
:0c40f800602f00203c2f00205c2e0020d8
:020000040000fa
:1041040010b52e4b1b68002b03d02d4b01221a60d7
:1041140010bd2b4b00221a602a4b1a68116b1a68c7
:104124001b6812681b6b9a4203d9274b0a689a4290
:1041340033d0244b19681868343104f057fb234bef
:104144001b6823499a00d21892005258002a09d1b8
:104154009a00d21892001f495218013b143a51692f
:104164000029fad01a489a00d118890041184c68dd
:1041740064684c60d218920008321218944216d027
:10418400134a9900c918890052185268d1680d4a17
:1041940011600e490b601368bae74a689a42c8d1a5
:1041a4008a689a42c5d1ca689a42c2d1c7e79900bf
:1041b400c91889004218d1685160e1e7282f00200e
:1041c4003c2f0020602f0020a5a5a5a5482f002086
:0841d400202c00200c2c00201f
:020000040000fa
:1041dc0010b50400902911dc00207f2928dd8039de
:1041ec000800102910d804f005fa31313d0f110fd9
:1041fc000f0f240f0f0f0f0f0f0f3d00c0294bd0c7
:10420c00f02949d0a02928d0002011e01968002af3
:10421c0007d00a1d1a6000228b5e2360db176360d7
:10422c0005e0081d18600b689bb2236062600120da
:10423c0010bd1968002a04d00a1d1a600023cb5641
:10424c00ebe7081d18600b68dbb2eee71968002a73
:10425c001ed00a1d1a600b68dfe71a68111d196061
:10426c001368dae707201968002a09d00918814376
:10427c000a0008321a600a684b6822606360d6e74d
:10428c00ca1d824311000831196053681268f4e7a3
:10429c00081d18600b68c8e71a68111d19601368af
:0642ac0023600023bbe7c4
:020000040000fa
:0242b200704753
:020000040000fa
:1042b40030b58223db05304a1a60304a1a61002285
:1042c40042215a5408315a5401315a5449394d2023
:1042d400195402301a544e385024185501341955c3
:1042e400013418550134185501341955023419553f
:1042f4000134195504341a55013407251d552b3c36
:104304001a5504341a5501341a5501341a55013416
:10431400195501341b351d5501341a5501341a55ec
:1043240002341a5501341a554234154d1d511034b6
:10433400a025ed011d5134341a5501341a550134a8
:104344001a5501341a5502341955013418550134db
:104354001855cb301954cc31c73858541c395a54d9
:1043640001315a5401315a5401312e30585401311b
:104374005a5401315a5430bd04acd2080484d218c2
:04438400f012000033
:020000040000fa
:10438800f8b5314b5a6a9869d96901240025001992
:1043980069419861d961002a4ed02020195c013109
:1043a80019549368002b48d09368013b9360264bbf
:1043b8005c6a002c43d1254d00242e0021e020000a
:1043c80002f0c2faa378002b00d16770e368002bd3
:1043d80001d020699847746a002cecd0a368002ba0
:1043e800e9d125756575a378002be8d1e368002b22
:1043f800e5d0e06902f0f0fde8e701342035052c4e
:1044080015d06301f3185b7d002bf6d00f4b6101cb
:104418005b1800215975ab78012beed169680b4bfd
:1044280062019b189960280000f034fce5e7064b10
:1044380020215a5c013a5a54f8bd034b5c6a0125a5
:104448000027014ecae7c046a82d0020802b002077
:020000040000fa
:10445800f0b40125ed070c005c402c40a446ae0ae0
:104468004c18df18f4423dd2f74245d2640d4cd0c7
:104478007f0d3cd0e41bc9022943cf0adb022b4342
:10448800db0a0600b61a9f4104d2013cb6197f41e7
:10449800b6185f416812800d241838dd0018844270
:1044a80025d8e80c0021b6197f41b61a9f4103d3dd
:1044b80040414941f7d304e0b6185f41001849412b
:1044c800f1d32405b6197f41b61a9f4105d3374366
:1044d800c20717430022012f504161416246114330
:1044e800f0bc70470cd100280ad1f74208d200204e
:1044f800c143490d0905f1e7002a01d1f74206d069
:104508000020c143090dc904eae77f0df8d0002057
:044518006146e5e72c
:020000040000fa
:10451c00f0b583b004000191264b1e68264b1f6832
:10452c00264b1d68264b1868043003f035fc631cc1
:10453c000dd03419224b1b685c60a6421ed9204b4f
:10454c0019680431280003f01dfa03b0f0bd019b7b
:10455c00002b20d01b4a5168194b186881601868d1
:10456c008c68c46018680430606018680430886017
:10457c001b685a61136801331360e6e7104b196826
:10458c000431380003f0fef90f4b1b68a342dcd951
:10459c000d4b1c60d9e7731e094a126853609e428a
:1045ac00cdd8074b19680431380003f0ebf9064bf2
:1045bc001b68cae74c2f00205c2f0020582f0020ce
:0c45cc00602f0020342e0020302f002033
:020000040000fa
:1045d8004b005b0d284af0b50d00591e04009142ae
:1045e80039d8264a9e1825d420002900332e20dced
:1045f800234a9b1826d4234ada4013002700214a6d
:104608009f43f24038002f00234097432a40390047
:1046180013430ed0002f0cda3400203c25d480251b
:104628006d03e5402a0080246403f44023008018c9
:104638005941f0bd002d02db00200021f9e70020e0
:104648001149f6e720230f4a9b1b9a4001235b423e
:10465800f3401343d2e720002900002be9d10022c0
:10466800e90fcb0710001900e3e720248025a41bdd
:104678006d03a5402a00d6e7fd07000001fcfffff7
:0c468800e1fbffffffff0f000000f0bf90
:020000040000fa
:10469400f0b5de4657464e464546e0b583b00700c2
:1046a4000b0001910822944663449b46180003f0d2
:1046b4006bfe0090002837d03e687d6820239a4620
:1046c400ba44fc695346e41aa0420dda1a4b9946df
:1046d4003b00070098463368494628009847013c48
:1046e400a742f8d14746009c002c0ad0134bb84689
:1046f4001f003368390028009847013c002cf8d18a
:1047040047465946504604f03bf80d4933682800a3
:1047140098473368514628009847009b5344bb612f
:10472400fb61d423019afa5003b0f0bcbb46b246f5
:10473400a946a046f0bdc0465c0e0000600e000015
:04474400640e0000ff
:020000040000fa
:10474800f0b54b6889b004930b6805000c009c46d3
:104758008e68cf68079310685168cb0f05930029be
:1047680044da0b000200002150429941049b002bbf
:1047780009db0222634693430793059b002b02d172
:10478800079b5a0723d5731e07aa02920a22009391
:1047980001920b000200200001f0c6f9059b002bd6
:1047a80019d02d2301383b542269079b013a121a6c
:1047b800391800932800330001f004f96b68db0511
:1047c80003d56368984200da180009b0f0bd1b07ea
:1047d800db0ff31ad8e7079b5a0702d52b230138ba
:1047e800e1e71b07e0d520230138dce7049b002b19
:0447f800bfdac5e778
:020000040000fa
:1047fc00f0b583b005000c001700019308ab1e78d0
:10480c0002f078fd00283fd0214b1b785bb2022bc5
:10481c0006d00124644203f069f9200003b0f0bd16
:10482c00002c2bd0ac422cd300231a4a117800292f
:10483c0006d020320133052bf8d101246442eae77b
:10484c0001311170002151701175517596705460c1
:10485c00d76001991161641b94600f4909881c048d
:10486c00240c0b041c43d461013189b20b4a9142d4
:10487c0002d0094a1180cee70121fae701246442f3
:10488c00c9e701246442c6e701246442c5e7c04677
:10489c00a82d0020802b0020b8300020ffff000046
:020000040000fa
:1048ac00f8b504000d00002850d0c36b0020002b7d
:1048bc004dd00026190c226c100c00292fd181b27e
:1048cc0000291ed10020002e41d103f029fd2268c1
:1048dc00216ce36b4b43d018a0600020a063626096
:1048ec005b1ad218e260ff234422a3540132a35472
:1048fc00002d22d12369002b16d103f01dfd0120c0
:10490c0025e0011c181c9bb292b25a4380b28bb2a8
:10491c004343120c9b181b0cd4d00126d2e780b257
:10492c000028fad1101ceee720001030fff776fbc0
:10493c000028e2d003f0e8fcdfe72000103003f0a1
:10494c005bfd2000243003f057fdd6e70020f8bdb6
:020000040000fa
:10495c00244b5a6852031b68db0c13439b029b0ac3
:10496c00214a936300235375110004228b691a4268
:10497c00fcd11d491022cb681a42fcd01a4a137d77
:10498c0080210b431375194b00229a611a61184b45
:10499c00184a1a62190004224b681a42fcd1144ab4
:1049ac0088234021d15010004831402243581a42ec
:1049bc00fcd00f4ad0234021d1501000903140221e
:1049cc0043581a42fcd00a4adc234021d150100033
:1049dc009c31402243581a42fcd0074b2422da6106
:1049ec007047c0462060800000100040001400405a
:0c49fc00001c0040060101000008004003
:020000040000fa
:104a080070b5041e4ad0c26a254b1b68db6a9a42fd
:104a18003cd28369002b05db214b1b68d96a05232f
:104a28005b1a836193009b189b001e4a9b1862695e
:104a38009a4205d01a4b1b68db6ae36201202ce01e
:104a4800251d280003f0aaf9154b1b68da6ae262f3
:104a5800154b1b689a4201d9134b1a6011499300f0
:104a68009b189b00cb185b68a3609a68e26055604e
:104a78009d60e06a83001a189200521862611a1841
:104a88009200535801335350012006e0044b1b6831
:104a9800406cdb6a98428041404270bd0020fce7d0
:0c4aa800602f0020202c0020482f002050
:020000040000fa
:104ab400002941d010b404004c40a4460123002234
:104ac400002900d54942002800d5404288422cd311
:104ad40001242407a14204d2814202d209011b010c
:104ae400f8e7e400a14204d2814202d249005b000b
:104af400f8e7884201d3401a1a434c08a04202d373
:104b0400001b5c0822438c08a04202d3001b9c08b3
:104b14002243cc08a04202d3001bdc082243002815
:104b240003d01b0901d00909e3e710006446002cf7
:104b340000d5404210bc704701b5002003f05efe72
:104b440002bdc0460029f7d003b5fff7b3ff0ebc82
:084b54004243891a1847c046cc
:020000040000fa
:104b5c00f0b5de4657464e46c0b582b007008b46d0
:104b6c0091469a46214d01235b420193002404e0b7
:104b7c00019401341835082c2fd06e68002ef7d014
:104b8c00be42f6d1194b62001219d2009b189968db
:104b9c00484603f03cfc002826d1144b6200121945
:104bac00d2009b181d695869631c18d00f4a61000c
:104bbc000b19db00d3185f600e19f6005f46b75077
:104bcc004e469e605646de601d615861012002b063
:104bdc00e0bcbb46b246a946f0bd00200025019cb6
:104bec00631ce3d10020f2e70020f0e7c02a00208c
:020000040000fa
:104bfc0010b5031f802464041c60043b1960043b43
:104c0c0016491960043b16491960043b1549196093
:104c1c00043b15491960043b14491960043b1a60a4
:104c2c00043b134a1a60043b124a1a60043b124ab2
:104c3c001a60043b114a1a60043b114a1a60043b87
:104c4c00104a1a60043b104a1a60043b0f4a1a605f
:104c5c00443803235b42036010bdc0463986000014
:104c6c0012121212030303030202020201010101d8
:104c7c001111111110101010090909090808080860
:104c8c0007070707060606060505050504040404c0
:020000040000fa
:104c9c00f0b5d6464f464646c0b584b0002834d051
:104cac00214b596a83689a46002934d08b68524646
:104cbc000392002290469a4531d30022002381466c
:104ccc008e683400002512196b4102918969002904
:104cdc000dd08e68009600260196009e019fb61896
:104cec005f41474503d8ebd103988642e8d9029c33
:104cfc0048468161a06151468a1a82608369002b03
:104d0c0003d081689a68521a9a6004b0e0bcba4623
:104d1c00b146a846f0bd8360034b5862f5e7024be1
:0c4d2c00586281610022e6e7a82d0020fb
:020000040000fa
:104d380070b582b0234d686b02f074fb0400686b99
:104d480002f062fa0600290019310222684603f0cf
:104d580021fc05236a469370b17849080122114065
:104d68006b46db78012083430b433a21695c0a4098
:104d7800920002218b4302318b4313430822934351
:104d88000832934310329343203293433f32134007
:104d98006a46d37000269680d68003f007fd083453
:104da800a4006359c01a03f013f96b469880de809b
:104db8006946082002f070f80121042000f042fa48
:084dc80002b070bd682d00204f
:020000040000fa
:104dd000f8b503780c2b00d0f8bd1f4b1b789b0651
:104de000fad51e4b1a00002159760023937619320a
:104df0008224e400194e1500ff27200002f060ff16
:104e0000b3691b021b0cc01883b2384028701b0a00
:104e10006b70642003f090f80134a4b2104b9c42f4
:104e2000ebd1a820800002f04bff0c4b39229854a4
:104e3000997e2a3a0a409a761b7e002b04d00121e3
:104e4000052000f003fac7e70121022000f0fef977
:104e500003f082f8c0e7c046a42d0020682d002092
:044e60001c0400002e
:020000040000fa
:104e6400f0b5d6464f464646c0b582461e4ad36a7a
:104e7400956a002933d0ab4234d0040001201b4a88
:104e840094469046184f13e05a006646b65c267066
:104e940001326646b25c627001333a6b93429241ce
:104ea4001340814213d9421c0234ab4210d010008b
:104eb4000f4a566807223240012ae5d04246d25ca6
:104ec40091465246013a4e4616540133e5e71d0019
:104ed400054bdd62e0bcba46b146a846f0bd1d00f4
:104ee4000800f5e70020f3e7282d00200026002025
:044ef4000014004264
:020000040000fa
:104ef80070b5040007231a000240034205d01300ce
:104f0800093b834229d30834a41a03f0cdfb194b7b
:104f18001b68002b0ed0002c25d0174b1b68e243d2
:104f28009a420dd31c19154a94420cd9fef784f9fc
:104f38001be000240f4a124b07218b431360eae75a
:104f4800fef77af911e00b4a1568ed180a4b1c6058
:104f5800fef772f9002d0bd107e003f0a5fb054b16
:104f68001b68002be5d0fef767f903f03ffc00252e
:104f7800280070bd202f0020242f0020f71f0000dc
:044f880007000020fe
:020000040000fa
:104f8c0010b582b01a4b1b4a1b480621fff7e0fdf7
:104f9c00002819d0194c2100002002f02dfc210012
:104fac00002002f029fc1649002300930122002066
:104fbc0000f02efe2100002002f01efc1149002002
:104fcc0002f01afc02b010bd03f0b8fb032809d89c
:104fdc0003f0b4fb0328ddd903f0aafb0a4902f065
:104fec000bfcd7e703f0a4fb084902f005fcefe744
:104ffc0034010000400100007c6a000074010000d4
:10500c009c010000b40100005c0100004c01000098
:020000040000fa
:10501c001e4b1f4a1a601f4a9a81c02292025a6084
:10502c001a00d369002bfcd1184a136802210b43d8
:10503c001360d369002bfcd1174b00221a629a62c1
:10504c00da6234215a5408315a549a630021da87af
:10505c001a609a60da60197519779a610b4b5a6865
:10506c0007231340012b0ad00b4b802292001a63aa
:10507c001a61064b80229a757c3a9a757047064bda
:10508c00802252001a631a61f3e7c04600140042f2
:0c509c00840131402bf6ffff282d00207e
:020000040000fa
:1050a8000eb430b51d4ca544ffab183304cb0193a7
:1050b8008021c90002a800f09bff0400421e184b83
:1050c8009a4224d802ab00221a54164b1b68c31804
:1050d8008022d200934202d3124b00221a60114b55
:1050e8001d68114bed1802a9280003f047fb2900a1
:1050f800002003f05ff8032213002340224201d06e
:105108000132d31a074a1b1911685b1813608123ef
:10511800db009d4430bc08bc03b01847f8fbffff18
:0c512800fe030000082f002000200020e3
:020000040000fa
:10513400f8b5ce46474680b50500894617000028d5
:105144002ed000241c4b984621e001340025414612
:10515400280001f021fc002805d0a742f5d9a300be
:105164004a46d050f1e7002e1ed0013622213000ed
:1051740003f026fa002815d086421ad000230370c3
:10518400bc4202d2a3004a469e500134451c22214f
:10519400280003f015fa061ed9d000230370d6e7c1
:1051a400002401e0012464422000c0bcb946b0469a
:0c51b400f8bd01246442f7e7c80e0000bb
:020000040000fa
:1051c000002934d00123002210b488422cd30124ba
:1051d0002407a14204d2814202d209011b01f8e74f
:1051e000e400a14204d2814202d249005b00f8e708
:1051f000884201d3401a1a434c08a04202d3001b34
:105200005c0822438c08a04202d3001b9c08224366
:10521000cc08a04202d3001bdc082243002803d0a4
:105220001b0901d00909e3e7100010bc704701b564
:10523000002003f0e5fa02bd0029f8d003b5fff71e
:0c524000c1ff0ebc4243891a1847c0464b
:020000040000fa
:10524c0030b58bb004001c4b187000290fd1200016
:10525c0001f040fe00f044f901a901230b70164b3c
:10526c00586800230022fef79dfb0bb030bd13499c
:10527c00122202f0d8fd051ee9d003f05ffa0328d4
:10528c000dd803f05bfa03280fd803f057fa032864
:10529c00ddd903f04dfa0a4902f0aefad7e703f074
:1052ac0047fa084902f0a8faebe703f041fa2900a3
:1052bc0002f0a2fae9e7c046682d00202430002055
:0852cc00740b00006c0b0000e4
:020000040000fa
:1052d40000b587b00023029303930493059301332d
:1052e4001648c25c69460731ca5419000133002ac2
:1052f400f7d102ab5b18013b1a701148114b0193b3
:1053040000920023803202a9fdf702fb012803d09a
:105314000d4b1b6807b000bd02f02cf80128f7d133
:1053240072b60a4b012252421a60094b02321a60c9
:10533400084b00221a6001f001fde9e77710000034
:105344005d8300002c2f0020f8870000302f002000
:08535400442f00204c2f002023
:020000040000fa
:10535c0070b5041e09d0436c8b4200d20b00e26a7c
:10536c009a4202d0a16c012900d070bde362a16900
:10537c00002902db0521cb1aa36193009b189b002b
:10538c00134a9b1862699a42efd1251d280002f03e
:10539c0003fde26a0f4b1b689a4201d90d4b1a6050
:1053ac000b4993009b189b00cb185b68a3609a6811
:1053bc00e26055609d60e06a83001a1892005218f2
:1053cc0062611a189200535801335350cde7c0460e
:0853dc00202c0020482f0020c6
:020000040000fa
:1053e40070b586b004001500102818d903f0aaf986
:1053f400032807d803f0a6f90026032809d83000ab
:1054040006b070bd03f098f9134a144900f004fc87
:10541400f0e703f091f9124900f0fefbefe70023f7
:1054240001930293039304936a461375083313702c
:1054340050700b0a9370d170461df6b26946300065
:1054440001f084f8002ddad022006b46591d2800a3
:1054540003f0a2f8d3e7c046b87e0000980200002b
:04546400b002000092
:020000040000fa
:1054680070b506000d009220800002f081fc041e39
:1054780030d092229200002103f096f826606560f1
:1054880023002033a361e361b83392229200a51868
:105498007d3aff3a2000cc3009e019604168596034
:1054a8000b60a1584b60a3505c33ab4207d0a158a6
:1054b8000029f2d1a35043601b605b60f4e700232e
:1054c800a360074b1b68002b06d0054b5b689c60ec
:1054d800034b5c60200070bd014b1c60f8e7c046c0
:0454e800f42e00207e
:020000040000fa
:1054ec00f0b5c64600b5070072b68224e4058025e7
:1054fc00ed006561642002f019fda561022002f047
:10550c0015fd0724012398468225ed050be0802626
:10551c00f6006e61122002f009fdae61022002f06d
:10552c0005fd013c0fd33b00234142461a42eed00d
:10553c008026f6006e61022002f0f8fcae611220ab
:10554c0002f0f4fcede78224e4058025ed006561b2
:10555c00022002f0ebfca56162b680bcb846f0bd3f
:020000040000fa
:10556c0010b51c4a137801210b4313701100012252
:10557c004b681a42fcd117490023cb61164b0b62c6
:10558c008223db010b61154b10221a819a821a843b
:10559c009a851a8744201a520c301a520c301a521f
:1055ac000c3008241c520c301a520c301a520c308d
:1055bc001a520c301a520c301a520c3006341c523f
:1055cc000c301a520b780e3a13430b704b681a427c
:1055dc00fcd110bd0028004002000001002a002070
:020000040000fa
:1055ec0010b5194b06225a60fef75efefff7b0f9b4
:1055fc0003f092f801f024fefef755fefff708fdcc
:10560c0003f084f8fff7acff01f072fb00210020df
:10561c0000f0c4fa0d4ce0600d4801f039ff206039
:10562c000c49002000f090f960600b49002002f05a
:10563c00cdfda0600949002000f05efb206102f066
:10564c0093ff00f09ffc10bd00400041202e002075
:10565c00ec870000bc8700006087000054870000c6
:020000040000fa
:10566c0070b5050002f05cfe4523ec5c64b2002cc6
:10567c0011dd2e00243603e0013c64b2002c0ad06c
:10568c006b6a002b07d03000fef7c8fc0028f3d063
:10569c0003f06cf8f0e74523ff22ea5402f04cfecd
:1056ac0002f03efe4423ec5c64b2002c11dd2e00b3
:1056bc00103603e0013c64b2002c0ad02b69002b9d
:1056cc0007d03000fef7aafc0028f3d003f04ef808
:0e56dc00f0e74423ff22ea5402f02efe70bdd8
:020000040000fa
:0256ea00704707
:020000040000fa
:1056ec0010b588b003780c2b01d008b010bd184b46
:1056fc001b787f2b16d8164b5b78db06f5d502f0a2
:10570c00c5fb040020220021684602f04bff6946cd
:10571c00200001f03bfd6b469b78072b0dd002f06f
:10572c00abfee2e70b4b586901f074fcfef722fb71
:10573c0001210d20fff784fdd7e7074802226946b7
:10574c0002f026ff01210720fff77afdcde7c046c6
:0c575c00a42d0020682d0020832d0020cb
:020000040000fa
:1057680070b504000d00002833d00021030c2a0c6a
:10577800002b29d193b2002b18d100292cd1280055
:10578800604300260300493324d84830fff7b0fbb4
:10579800061e1fd00300002d00d048333360f46389
:1057a800356401213000fff77df813e0131c261c37
:1057b800a0b2aab24243b6b29bb27343120c9b1872
:1057c8001b0cdad00121d8e792b2002afad12e1c9c
:0c57d800eee70026300070bd0026fbe765
:020000040000fa
:1057e40070b5041e31d0836c013b8364c16a426c82
:1057f40091422cd00020002b00d070bd251d280024
:1058040002f0cefa626ce26205239b1aa361114b8b
:105814001b689a4201d90f4b1a600f4993009b18d9
:105824009b00cb185b68a3609a68e26055609d603a
:10583400e06a83001a189200521862611a189200e2
:105844005358013353500120d7e70020d5e70020f7
:0c585400d3e7c046482f0020202c002085
:020000040000fa
:1058600070b50d0088b0202204000021684602f0c7
:105870009ffe2a78101e19d06b78002b18d01f209d
:1058800001212b78002b15d00e005a0903409e40b1
:1058900033006e469200b658013533436e46b3501e
:1058a000efe7013001789142fbd0001b08b070bdda
