:108000000C945D400C94762D0C94782D0C94662D78
:108010000C94682D0C94744C0C94A34C0C94B84C98
:10802000189500000C943C2E0C943E2E0C94442E7B
:108030000C94462E0C94502E0C944C2E0C944E2ED8
:10804000189500000C94254D189500000C94602E96
:108050000C94622E0C946C2D0C946E2D0C94702D3F
:108060000C94FA4C0C94EE2D0C94BA2D0C94F02D2B
:108070000C94BC2D0C94082E0C94E22D0C94E42D41
:108080000C94E62D0C94E82D0C94EA2D0C94EC2D18
:10809000189500001895000018950000189500002C
:1080A000189500000C940B4D048804DB8004DB055C
:1080B00022009BCE052205248000F0E0E0E0D0E025
:1080C000C0E0B0E0A0E090E080E070E060E050E070
:1080D00040E030E020E010E000E0FE2EEE2EDE2E4C
:1080E000CE2EBE2EAE2E9E2E8E2E7E2E6E2E5E2E70
:1080F0004E2E3E2E2E2E1E2E0E2E11241FBECFEFE4
:10810000D5E0DEBFCDBFE8EAF0E840E817C0B591A2
:10811000A59135912591059107FD0CC0959185910B
:10812000EF01F92FE82F05900D92A217B307D9F7A9
:10813000FE0104C01D92A217B307E1F7E93BF40763
:0E81400031F70E94604A0C94C84DF894FFCFAE
:10814E000E941F4C0E94CA4982B18E7F82B981B3B0
:10815E008F7781BB81B3806281BB88E28093700090
:10816E0085B3826085BB8CE38093710081B3806898
:10817E0081BB81E40E94A04880E180939904089518
:10818E0089EE92E00E94D049882309F446C081B35B
:10819E008F7781BB82B1816082B98091EB0287308B
:1081AE0049F134C0FC013296EE0FFF1FE857FB4F2A
:1081BE00208131812F3F3F4FD9F4E9EEF2E050811B
:1081CE0041813091890432953F703F5F3295307F07
:1081DE00242F2F70232B5093220520932305FC016F
:1081EE003296EE0FFF1FE857FB4F5083218307C0D7
:1081FE00019602C080E090E0853091059CF282E409
:10820E000E94A04881E180939904089580E40E9421
:10821E00A0488FE0809399040895A99B0BC081B369
:10822E008F7781BB82B1816082B980E10E94A048C4
:10823E00109299040895CF93DF93CDB7DEB72797A9
:10824E000FB6F894DEBF0FBECDBF8091E0028370F3
:10825E0001F5CE01019627E0FC0111922A95E9F76E
:10826E002CE02B8320912205309123053E832D8314
:10827E0025E52F8320918804309189043A83298340
:10828E0067E00E94984983E40E94A04882E18093AF
:10829E00990427960FB6F894DEBF0FBECDBFDF91BF
:1082AE00CF9108958091E0028370E9F40E94CA494B
:1082BE0082B18E7F82B981B38F7781BB81B38062A9
:1082CE0081BB88E28093700085B3826085BB8CE3AE
:1082DE008093710081B3806881BB84E40E94A048C2
:1082EE0083E180939904089589EE92E00E94D0492B
:1082FE00882361F181B38F7781BB82B1816082B9AE
:10830E008091EB028D30E1F42091ED023091EE027E
:10831E0080912205909123052817390759F48091F1
:10832E00EC0281FF07C085E40E94A04884E180939F
:10833E009904089580E10E94A0481092990408952E
:10834E0080E10E94A048109299040895A99B0BC049
:10835E0081B38F7781BB82B1816082B980E10E9447
:10836E00A048109299040895CF93DF9300D000D0C7
:10837E000F92CDB7DEB78091E002837009F042C054
:10838E00FE01319685E0DF011D928A95E9F788E0BE
:10839E008B838C8182608C83A8E8B4E08D919C9154
:1083AE0011979A83898350962C919DEC299F912D3C
:1083BE001124969596959695990F392F330F330F65
:1083CE00930F291B2D8365E0CF010E94984986E407
:1083DE000E94A04885E18093990482B18E7F82B974
:1083EE0081B38F7781BB81B3806281BB8AE080933A
:1083FE00700085B3826085BB8CE18093710081B380
:10840E00806881BB0F900F900F900F900F90DF91AF
:10841E00CF910895CF93DF9300D000D000D0CDB789
:10842E00DEB78091E002837021F5A99B22C081B353
:10843E008F7781BB82B1816082B9CE01019626E031
:10844E00FC0111922A95E9F72BE02B832BEB3AEAEC
:10845E003E832D8320918804309189043A832983A9
:10846E0066E00E94984987E40E94A04886E18093C6
:10847E00990426960FB6F894DEBF0FBECDBFDF91DE
:10848E00CF9108958091E0028370E9F40E94CA4969
:10849E0082B18E7F82B981B38F7781BB81B38062C7
:1084AE0081BB84E08093700085B3826085BB8CE3D2
:1084BE008093710081B3806881BB88E40E94A048DC
:1084CE0087E180939904089589EE92E00E94D04945
:1084DE00882321F181B38F7781BB82B1816082B90C
:1084EE008091EB02853099F48091220590912305BD
:1084FE000E942C4B4AE06CE874E084E20E942A4C05
:10850E0089E40E94A04888E180939904089580E947
:10851E000E94A0488FE1809399040895A99B0BC0F7
:10852E0081B38F7781BB82B1816082B980E10E9475
:10853E00A048109299040895CF93DF93CDB7DEB77C
:10854E002B970FB6F894DEBF0FBECDBF8091E00221
:10855E00837011F5CE0101962BE0FC0111922A9544
:10856E00E9F724E02B8325E02D83209188043091B8
:10857E0089043987288740912205509123055B870E
:10858E004A873A8329836BE00E9498498AE40E94C5
:10859E00A04889E1809399042B960FB6F894DEBF1C
:1085AE000FBECDBFDF91CF9108958091E002837011
:1085BE00E9F40E94CA4982B18E7F82B981B38F7766
:1085CE0081BB81B3806281BB84E08093700085B3F0
:1085DE00826085BB8CE38093710081B3806881BB20
:1085EE008BE40E94A0488AE180939904089589EE55
:1085FE0092E00E94D0498823E1F181B38F7781BB4D
:10860E0082B1816082B98091EB02853059F582B1D9
:10861E00877F82B984B38F7784BB01C00000A7998E
:10862E00FDCF84B3806284BB84B3846084BB88E155
:10863E008093860087E088BB82E08093880080ED7F
:10864E0097E0909383008093820084B3806884BB0C
:10865E008091970480FFFCCF80E10E94A048109289
:10866E009904089580E90E94A0488FE180939904AF
:10867E000895A99B0BC081B38F7781BB82B18160B6
:10868E0082B980E10E94A0481092990408958091C9
:10869E0099048950823140F4419906C080E50E94C8
:1086AE00A0488BE180939904089541E150E060EB7E
:1086BE0072E088E894E00E94AA4D0E94584C6091A6
:1086CE0088047091890480E892E00E94DB4D419B02
:0E86DE00FECF80E10E94A048109299040895FA
:1086EC00CF93DF930F92CDB7DEB71982E7E9F4E0B1
:1086FC00908196FB992790F980E090FB86F989830D
:10870C00908197FB992790F990FB87F9898341E039
:10871C00BE016F5F7F4F8FE20E942A4C0F90DF915A
:10872C00CF91089580919A048E7F8D7F80939A04C7
:10873C009091970496FB992790F990FB82F980937E
:10874C009A040E94F54A882349F00E94CA4981E2A2
:10875C000E94A04882E080939904089584E20E94CC
:10876C00A04885E080939904089589EE92E00E94D8
:10877C00D0498823E9F18091EB02833081F5809117
:10878C00E9029091EA020E940B4B8130F9F480913E
:10879C00EC0280FF14C080919A04826080939A044A
:1087AC008091EC02E7E9F4E0908180FB96F99083EC
:1087BC0082FB882780F9908180FB97F9908382E275
:1087CC000E94A04883E08093990408950E94CA49AE
:1087DC0081E20E94A04882E08093990408950E944F
:1087EC00CA4981E20E94A04882E0809399040895CE
:1087FC008091970480FF05C080E10E94A0481092F0
:10880C0099040895CF93DF93CDB7DEB728970FB6B1
:10881C00F894DEBF0FBECDBF8091E002837049F5A6
:10882C00FE01319688E0DF011D928A95E9F785E01B
:10883C008B8380918804909189049A838983809199
:10884C009A04877059F08C8181608C839091970485
:10885C0097FB992790F990FB82F98C8368E0CE0105
:10886C0001960E94984983E20E94A04884E080937C
:10887C00990428960FB6F894DEBF0FBECDBFDF91DA
:10888C00CF9108958091E002837099F40E94F54A8B
:10889C00882349F00E94CA4981E20E94A04882E0E4
:1088AC0080939904089584E20E94A04885E0809307
:1088BC0099040895CF93DF9300D000D0CDB7DEB7E5
:1088CC0019821A821B821C8283E08B8390919A04FA
:1088DC0092FB992790F98C8190FB80F98C83909175
:1088EC00970497FB992790F990FB82F98C838091E0
:1088FC008804909189049A83898364E0CE0101965F
:10890C000E94984985E20E94A04886E080939904D1
:10891C000F900F900F900F90DF91CF910895809151
:10892C00E002837041F40E94CA4986E20E94A0488A
:10893C0087E080939904089589EE92E00E94D049D3
:10894C00882309F446C08091EB028530D9F520913B
:10895C00E9023091EA0280918A0490918B042817E5
:10896C00390749F58091EC0280FF1EC080919A0472
:10897C00816080939A048091EC02E7E9F4E09081A5
:10898C0080FB96F9908382FB882780F9908180FB8D
:10899C0097F990838081882324F48AB18F7D8AB9DA
:1089AC0003C08AB180628AB987E20E94A04888E03D
:1089BC0080939904089585E20E94A04886E08093F4
:1089CC009904089585E20E94A04886E0809399045A
:1089DC0008958091970480FF05C080E10E94A04813
:1089EC00109299040895CF93DF9380919A04982F55
:1089FC00957029F0E7E9F4E090819F7B908381FFEB
:108A0C0005C0E7E9F4E08081806480830E947643AE
:108A1C00E8E8F4E0808990E001966AE070E00E945A
:108A2C00824D808B8089882349F00DC08AEA0E9490
:108A3C00A04885E50E94A048219602C0C0E0D0E085
:108A4C00C436D1059CF341E068E974E080E30E94F0
:108A5C002A4C8091970488236CF08EB188608EB973
:108A6C0089B1846089B98AB184608AB90E94564DF3
:108A7C000000FECFEDE6F0E0808182608083808193
:108A8C008061808386B5826086BD0E94624D41996B
:108A9C000AC0E7E9F4E080818064808380818F776D
:108AAC0080830E9476434499F0CF80E10E94A048D5
:0A8ABC0010929904DF91CF91089504
:108AC6002F923F920F931F93CF93DF93CAEBD4E07D
:108AD60009951124DF91CF911F910F913F902F900F
:108AE60008952F923F920F931F93CF93DF93CAEB74
:108AF600D4E00995802F1124DF91CF911F910F911A
:108B06003F902F9008952F923F920F931F93CF93EC
:108B1600DF93CAEBD4E00995802F912F1124DF91C2
:108B2600CF911F910F913F902F9008952F923F92D2
:108B36000F931F93CF93DF93CAEBD4E0082F0995C9
:108B46001124DF91CF911F910F913F902F9008959F
:108B56002F923F920F931F93CF93DF93CAEBD4E0EC
:108B6600082F162F09951124DF91CF911F910F9190
:108B76003F902F9008952F923F920F931F93CF937C
:108B8600DF93CAEBD4E0082F162F242F0995802FE8
:108B96001124DF91CF911F910F913F902F9008954F
:108BA6002F923F920F931F93CF93DF93CAEBD4E09C
:108BB600082F192F0995802F1124DF91CF911F912E
:108BC6000F913F902F9008952F923F920F931F93EE
:108BD600CF93DF93CAEBD4E0082F192F262F372F18
:108BE60009951124DF91CF911F910F913F902F90FE
:108BF60008952F923F920F931F93CF93DF93CAEB63
:108C0600D4E0082F192F09951124DF91CF911F91D8
:108C16000F913F902F9008952F923F920F931F939D
:108C2600CF93DF93CAEBD4E0082F192F262F372FC7
:108C360009951124DF91CF911F910F913F902F90AD
:108C460008952F923F920F931F93CF93DF93CAEB12
:108C5600D4E0082F192F262F372F0995802F11249E
:108C6600DF91CF911F910F913F902F9008952F92F2
:108C76003F920F931F93CF93DF93CAEBD4E0082F55
:108C8600192F262F372F09951124DF91CF911F9188
:108C96000F913F902F9008952F923F920F931F931D
:108CA600CF93DF93CAEBD4E0062F622F202F072F36
:108CB600732F302F082F192F09951124DF91CF918B
:108CC6001F910F913F902F9008952F923F920F93EF
:108CD6001F93CF93DF93CAEBD4E0082F192F262FCB
:108CE60009951124DF91CF911F910F913F902F90FD
:108CF60008952F923F920F931F93CF93DF93CAEB62
:108D0600D4E0082F192F262F372F09951124DF912C
:108D1600CF911F910F913F902F9008952F923F92E0
:108D26000F931F93CF93DF93CAEBD4E0082F162F30
:108D36000995802F912F1124DF91CF911F910F91CB
:108D46003F902F9008952F923F920F931F93CF93AA
:108D5600DF93CAEBD4E0082F162F0995802F912FA9
:108D66001124DF91CF911F910F913F902F9008957D
:108D76002F923F920F931F93CF93DF93CAEBD4E0CA
:108D8600082F192F262F372F0995802F912F622F05
:108D9600732F1124DF91CF911F910F913F902F9048
:108DA60008952F923F920F931F93CF93DF93CAEBB1
:108DB600D4E0082F192F262F372F0995802F912FB2
:108DC600622F732F1124DF91CF911F910F913F9046
:108DD6002F9008952F923F920F931F93CF93DF9377
:108DE600CAEBD4E0082F192F262F372F0995802F8D
:108DF600912F622F732F1124DF91CF911F910F9125
:108E06003F902F9008952F923F920F931F93CF93E9
:108E1600DF93CAEBD4E0082F192F262F0995802F50
:108E2600912F1124DF91CF911F910F913F902F9099
:028E360008959D
:108E38008F929F92AF92BF920F931F93CF93DF931E
:108E480000D000D00F92CDB7DEB78091E0028370DA
:108E580009F041C00E941F4C1092890410928804A6
:108E680000E010E015C00F2EF8E88F2EF4E09F2EDA
:108E7800F02DF401A080B180C801805F9B4F0E9453
:108E8800D34DA80EB11CF401B182A0820F5F1F4F11
:108E98000C30110544F3E8E8F4E0208131813F709B
:108EA80031832083CE01019645E0FC0111924A9559
:108EB800E9F747E04B834C8148604C834AEA4D838D
:108EC8003A83298365E00E94984981E30E94A0487B
:108ED8008AE0809399040F900F900F900F900F9055
:108EE800DF91CF911F910F91BF90AF909F908F907E
:108EF80008958091E0028370E9F40E94CA4982B122
:108F08008E7F82B981B38F7781BB81B3806281BB49
:108F180084E08093700085B3826085BB8CE3809386
:108F2800710081B3806881BB82E30E94A0488BE016
:108F3800809399040895CF93DF9389EE92E00E947D
:108F4800D049882309F451C081B38F7781BB82B19E
:108F5800816082B98091EB02883009F03FC0E9EE68
:108F6800F2E080819181C8E8D4E09B838A83848180
:108F7800888B41E068E974E080E30E942A4C2B81E9
:108F8800822F82958F7090E00196288139813F70F9
:108F9800982F88279295907F822B932B998388838B
:108FA8000E94CA4982B18E7F82B981B38F7781BB13
:108FB80081B3806281BB88E28093700085B3826050
:108FC80085BB8CE38093710081B3806881BB83E3A8
:108FD8000E94A0488CE08093990414C081E30E9409
:108FE800A0488AE0809399040DC0A99B0BC081B367
:108FF8008F7781BB82B1816082B980E10E94A048ED
:1090080010929904DF91CF91089589EE92E00E9421
:10901800D0498823B9F081B38F7781BB82B1816051
:1090280082B98091EB028B3039F484E30E94A04826
:109038008DE080939904089580E10E94A0481092E1
:1090480099040895A99B0BC081B38F7781BB82B126
:10905800816082B980E10E94A04810929904089525
:10906800CF93DF9300D000D0CDB7DEB78091E00278
:109078008370B9F419821A821B821C8285E08B8363
:1090880080918804909189049A83898364E0CE0151
:1090980001960E94984985E30E94A0488EE080933B
:1090A80099040F900F900F900F90DF91CF91089532
:1090B8008091E002837009F03EC042E068E874E005
:1090C80080E20E942A4C609188047091890480E8AB
:1090D80092E00E94DB4D42E06AE874E082E20E947E
:1090E8002A4C82B1877F82B984B38F7784BB01C051
:1090F8000000A799FDCF84B3806284BB84B38460E9
:1091080084BB88E18093860087E088BB82E08093F7
:10911800880088E998E0909383008093820084B364
:10912800806884BB8091970480FFFCCF80E10E9417
:08913800A0481092990408956B
:10914000F8949AB194609AB920E030E003C000002E
:109150002F5F3F4F22303105D4F39AB19B7F9AB9EC
:1091600020E030E003C000002F5F3F4F2436310580
:10917000D4F39AB194609AB920E030E003C00000C3
:109180002F5F3F4F22303105D4F347E050E03DC020
:10919000282F30E0042E02C0359527950A94E2F777
:1091A00020FF19C09AB19B7F9AB920E030E003C03C
:1091B00000002F5F3F4F22303105D4F39AB1946005
:1091C0009AB920E030E003C000002F5F3F4F22310A
:1091D0003105D4F318C09AB19B7F9AB920E030E0F2
:1091E00003C000002F5F3F4F22313105D4F39AB105
:1091F00094609AB920E030E003C000002F5F3F4F39
:1092000022303105D4F34150510955230CF0C0CF21
:109210008AB18B7F8AB980E090E002C0000001969D
:1092200082309105DCF38AB184608AB9789408951C
:10923000F8942AB124602AB920E030E003C000008D
:109240002F5F3F4F22303105D4F32AB12B7F2AB94B
:1092500020E030E003C000002F5F3F4F243631058F
:10926000D4F32AB124602AB920E030E003C0000022
:109270002F5F3F4F22303105D4F34FE050E03FC025
:1092800021E030E0042E02C0220F331F0A94E2F7DF
:1092900028233923232BC9F02AB12B7F2AB920E0B8
:1092A00030E003C000002F5F3F4F22303105D4F380
:1092B0002AB124602AB920E030E003C000002F5F0B
:1092C0003F4F22313105D4F318C02AB12B7F2AB980
:1092D00020E030E003C000002F5F3F4F2231310516
:1092E000D4F32AB124602AB920E030E003C00000A2
:1092F0002F5F3F4F22303105D4F3415051095523A0
:109300000CF0BECF8AB18B7F8AB980E090E002C0BA
:109310000000019682309105DCF38AB184608AB93D
:10932000789408956091960480E00E944E4D0895CF
:10933000BF920F931F93CF93DF93CDB7DEB72797DD
:109340000FB6F894DEBF0FBECDBF8C01B62E87E0FE
:10935000EBE1F5E0DE01119601900D928A95E1F7BF
:1093600067E0CE0101960E944A4D6B2DC8010E9414
:10937000464D6091960481E20E944E4D27960FB6AD
:10938000F894DEBF0FBECDBFDF91CF911F910F913B
:10939000BF9008956091960482E20E944E4D089518
:1093A0000F931F93CF939C019091E002937009F566
:1093B00090910E00892F807496FF1DC090910E0031
:1093C000892F807295FF17C090910E00892F8071B0
:1093D00094FF11C0890187B18F7B87B90E943A4DF4
:1093E000C82F882341F0682FC8010E94424D8C2F5E
:0E93F00002C080E000C0CF911F910F91089540
:1093FE0084E088B980E090E002C0000001968A30D7
:10940E009105DCF384E088B9089580E90E94A048B4
:10941E008FE180939904089580E90E94A0488FE11E
:10942E008093990408958CEC0E94A0484499FBCF38
:10943E000E941F4CE7E9F4E0808180648083808184
:10944E00882324F080818068808305C0E7E9F4E0FA
:10945E0080818F77808380919704882324F48AB14A
:10946E008F7D8AB903C08AB180628AB980E20E9478
:10947E00A04881E0809399040895CF93DF93C7E9C4
:10948E00D4E088818E7F88830E941F4C8881882338
:10949E0024F48AB18F7D8AB903C08AB180628AB9F9
:1094AE0080E20E94A04881E080939904DF91CF91E1
:1094BE00089581E08EB982E08EB9CBB51BBC0E94B7
:1094CE006A4D0E945E4D88E00E945A4DEFEFFFE418
:1094DE008491813219F08FEF0E947A4D40E050E076
:1094EE0066E279E08FE099E00E94664D882319F0DC
:1094FE0080E00E947A4D8AB184608AB986B181601B
:10950E0086B987B18E7F87B980E892E00E94FA67AC
:10951E0090938904809388048AB180628AB980E12D
:10952E000E94A0481092990480910D0080FF1AC0ED
:10953E00C1FF18C08091880490918904019639F476
:10954E0080E30E94A04889E08093990406C080E4DD
:10955E000E94A0488FE08093990484E088B9419BD3
:10956E00FCCF0AC080910D0080FF06C080E80E94EB
:10957E00A0488EE180939904A8959AB384E0892738
:10958E008ABB0E944E43E0919904F0E0EE0FFF1F5C
:10959E00E552FB4F0190F081E02D09950E94724D2E
:1095AE0020919C0230919D02213080E8380768F0AE
:1095BE0080919B02E82FF0E0EE0FFF1FE20FF31FEA
:1095CE000590F491E02D099502C00E94764D809190
:1095DE009904873288F20E94624DCECF20E030E0AF
:1095EE0080E00EC0F9013296EE0FFF1FE857FB4FD9
:1095FE00408151814F3F5F4F31F08F5F2F5F3F4F63
:10960E00253031057CF3089520E030E060E018C08D
:10961E00F9013296EE0FFF1FE857FB4F4081518143
:10962E004817590759F4F9013296EE0FFF1FE85704
:10963E00FB4F4FEF5FEF5183408361E02F5F3F4F52
:10964E00253031052CF3862F089520E030E017C029
:10965E00F9013296EE0FFF1FE857FB4F4081518103
:10966E004F3F5F4F51F4F9013296EE0FFF1FE8574F
:10967E00FB4F9183808381E008952F5F3F4F25300C
:08968E00310534F380E008957A
:1096960097B19F7D97B993E19EBD0DB407FEFDCFAF
:1096A6009EB58EBD0DB407FEFDCF8EB580E090E071
:1096B6000AC01EBC0DB407FEFDCFFB01E80FF91F63
:1096C6002EB520830196242F30E0821793078CF362
:1096D60087B1806287B9089541E168E874E080E265
:1096E6000E944B4B08958CB58F7B8CBD86B18D7FC8
:1096F60086B987B18D7F87B986B18B7F86B987B1E9
:109706008B7F87B986B1877F86B987B1877F87B90F
:1097160086B18F7D86B987B18F7D87B987B1816024
:1097260087B980E090E002C000000196883E23E001
:109736009207D4F387B18E7F87B980E090E002C0AC
:109746000000019684369105DCF3089587B58D7F78
:1097560087BD86B1826086B987B18D7F87B986B1AC
:10976600846086B987B1846087B986B1877F86B9F8
:1097760087B1877F87B986B1806286B987B18062F3
:1097860087B980E58CBD1DBC0895FC0187B18F7D2E
:1097960087B980E090E009C020812EBD0DB407FE98
:1097A600FDCF2EB5208301963196262F30E0821705
:1097B600930794F387B1806287B90895CF93DF93B7
:1097C600C9EED2E093E1988389831A8263E0CE01E1
:1097D6000E94C84B8A81DF91CF910895E9EEF2E0AD
:1097E60092E190838183628363E0CF010E94C84B3C
:1097F600089560E881E00E94F14B84E00E94E14B0D
:1098060085FD09C080E090E002C000000196843624
:109816009105DCF3F2CF08950E94FC4B61E083E1F1
:109826000E94F14B61E086E10E94F14B60E06062CC
:1098360088E00E94F14B08950E94A94B0E946F4B4D
:109846000E94764B0E94A94B0E940F4C089597B137
:109856009F7D97B992E19EBD0DB407FEFDCF9EB5E3
:109866008EBD0DB407FEFDCF8EB580E090E00AC038
:10987600FB01E80FF91F20812EBD0DB407FEFDCFB9
:109886002EB50196242F30E0821793078CF387B10B
:10989600806287B90895E9EEF2E084E5808311825B
:1098A60062E0CF010E94C84B089541E168E874E088
:0898B60080E20E942A4C089593
:1098BE001F920F920FB60F9211248F93EF93FF9377
:1098CE00E7E9F4E0808182608083FF91EF918F91D0
:1098DE000F900FBE0F901F9018951F920F920FB6FC
:1098EE000F9211242F933F934F935F936F937F9318
:1098FE008F939F93AF93BF93EF93FF938AB58F7E12
:10990E008ABD80910F00886080930F0080911002B5
:10991E0083FD0E947E4DFF91EF91BF91AF919F917C
:10992E008F917F916F915F914F913F912F910F90FA
:10993E000FBE0F901F9018951F920F920FB60F9299
:10994E0011248F93EF93FF93EBECF0E080818E7FE9
:10995E008083FF91EF918F910F900FBE0F901F900C
:10996E0018951F920F920FB60F9211242F933F93BB
:10997E004F935F936F937F938F939F93AF93BF9309
:10998E00EF93FF93EBECF0E080818D7F80838091ED
:10999E000F00806180930F0080913B008260809366
:1099AE003B008091100284FD0E947E4D8091E0026A
:1099BE008370813039F4E0E0F3E082E1808311823C
:1099CE000E946E4DFF91EF91BF91AF919F918F913C
:1099DE007F916F915F914F913F912F910F900FBE9D
:1099EE000F901F9018951F920F920FB60F92112481
:1099FE008F9380913B00816180933B008F910F90FC
:109A0E000FBE0F901F9018951F920F920FB60F92C8
:109A1E0011248F93EF93FF9380913B00806180938D
:109A2E003B00EFEDF2E0808580628087FF91EF9141
:109A3E008F910F900FBE0F901F9018951F920F923F
:109A4E000FB60F9211248F93EF93FF93E7E9F4E093
:109A5E00808181608083FF91EF918F910F900FBE77
:069A6E000F901F901895F7
:109A7400E0E0FDE20C947445E6E0FDE20C944F4610
:109A8400EAE0FDE20C946846E4E1FDE20C946846E9
:109A9400E6E1FDE20C946846E8E1FDE20C94AB4596
:109AA400E2E2FDE20C946345E8E2FDE20C946345D6
:109AB400EAE7FDE20C949945ECE7FDE20C9463457A
:109AC400E0E8FDE20C946345E0EAFDE20C942446F0
:109AD400E4EAFDE20C946345E8EBFDE20C94634593
:109AE400EAE0FEE20C946345EEE0FEE20C9463458A
:109AF400E0E2FEE20C949945E6E3FEE20C94634551
:109B040097FB072E16F4009407D077FD09D00E9426
:109B1400964D07FC05D03EF4909581959F4F08958E
:089B2400709561957F4F0895D3
:109B2C00AA1BBB1B51E107C0AA1FBB1FA617B70777
:109B3C0010F0A61BB70B881F991F5A95A9F7809593
:089B4C009095BC01CD010895C4
:109B5400DC01CB01FC01F999FECF06C0F2BDE1BDE9
:109B6400F89A319600B40D9241505040B8F70895D8
:109B7400262FF999FECF1FBA92BD81BD20BD0FB625
:0C9B8400F894FA9AF99A0FBE0196089521
:109B9000EC010E94E54D0E94E44DCE010E94E64D8D
:069BA000CE010E94E24D1F
:109BA600F999FECF92BD81BDF89A992780B508959F
:0A9BB6000E94BA4D272F0C94BB4DFE
:049BC0000C940040C1
:049BC4000E94A54016
:029BC8000895FE
:029BCA000895FC
:029BCC000895FA
:109BCE00444A9843BB430844484460449544A244E5
:109BDE00F9441C477D479F47094834485C48A740D5
:109BEE00C740224159417B41BB41114249426B4220
:109BFE00A342DC42FE425C43134A0C4A1A4AFF4916
:079C0E003055555555555620
:03CFF0000220001C
:0CCFF400A8E1B0E042E050E00C94AC4D2D
:040000030000800079
:00000001FF
